{"contracts/HonestHotel.sol":{"HonestHotel":{"abi":[{"inputs":[{"internalType":"uint256","name":"_roomCount","type":"uint256"}],"stateMutability":"nonpayable","type":"constructor"},{"anonymous":false,"inputs":[{"indexed":true,"internalType":"address","name":"oldOwner","type":"address"},{"indexed":true,"internalType":"address","name":"newOwner","type":"address"}],"name":"OwnerSet","type":"event"},{"anonymous":false,"inputs":[{"indexed":false,"internalType":"uint256","name":"roomNr","type":"uint256"},{"indexed":false,"internalType":"address","name":"lastTenant","type":"address"},{"indexed":false,"internalType":"address","name":"freedBy","type":"address"}],"name":"RoomFreed","type":"event"},{"anonymous":false,"inputs":[{"indexed":false,"internalType":"uint256","name":"roomNr","type":"uint256"},{"indexed":false,"internalType":"address","name":"client","type":"address"}],"name":"RoomOccupied","type":"event"},{"inputs":[{"internalType":"address","name":"newOwner","type":"address"}],"name":"changeOwner","outputs":[],"stateMutability":"nonpayable","type":"function"},{"inputs":[],"name":"forceFreeAllRooms","outputs":[],"stateMutability":"nonpayable","type":"function"},{"inputs":[{"internalType":"uint256[]","name":"roomNumbers","type":"uint256[]"}],"name":"forceFreeRooms","outputs":[],"stateMutability":"nonpayable","type":"function"},{"inputs":[{"internalType":"uint256[]","name":"roomNumbers","type":"uint256[]"}],"name":"freeRooms","outputs":[],"stateMutability":"nonpayable","type":"function"},{"inputs":[],"name":"getOccupiedRoomsNr","outputs":[{"internalType":"uint256","name":"","type":"uint256"}],"stateMutability":"view","type":"function"},{"inputs":[],"name":"getOwner","outputs":[{"internalType":"address","name":"","type":"address"}],"stateMutability":"view","type":"function"},{"inputs":[],"name":"getRoomCount","outputs":[{"internalType":"uint256","name":"","type":"uint256"}],"stateMutability":"view","type":"function"},{"inputs":[{"internalType":"uint256","name":"roomsToAdd","type":"uint256"}],"name":"increaseRoomCountBy","outputs":[],"stateMutability":"nonpayable","type":"function"},{"inputs":[{"internalType":"uint256","name":"searchedNr","type":"uint256"},{"internalType":"uint256[]","name":"nrArray","type":"uint256[]"}],"name":"isUintInList","outputs":[{"internalType":"bool","name":"","type":"bool"}],"stateMutability":"pure","type":"function"},{"inputs":[{"internalType":"uint256[]","name":"roomNumbers","type":"uint256[]"}],"name":"occupyRooms","outputs":[],"stateMutability":"nonpayable","type":"function"}],"evm":{"bytecode":{"linkReferences":{},"object":"60806040523480156200001157600080fd5b506040516200374d3803806200374d833981810160405281019062000037919062000341565b620000536796d6f6766204b60360c01b6200022c60201b60201c565b6200006f67b002ea01e2288fc860c01b6200022c60201b60201c565b6200008b677ab33a8cb606307660c01b6200022c60201b60201c565b620000d76040518060400160405280601b81526020017f4f776e657220636f6e7472616374206465706c6f7965642062793a0000000000815250336200022f60201b62001ec21760201c565b620000f367282a066949985c9860c01b6200022c60201b60201c565b336000806101000a81548173ffffffffffffffffffffffffffffffffffffffff021916908373ffffffffffffffffffffffffffffffffffffffff1602179055506200014f67cd8342d149db9c5760c01b6200022c60201b60201c565b6200016b675cffb0bb3bf2a53a60c01b6200022c60201b60201c565b60008054906101000a900473ffffffffffffffffffffffffffffffffffffffff1673ffffffffffffffffffffffffffffffffffffffff16600073ffffffffffffffffffffffffffffffffffffffff167f342827c97908e5e2f71151c08502a66d44b6f758e3ac2f1de95f02eb95f0a73560405160405180910390a36200020267a27135d46c88d75f60c01b620002d560201b60201c565b6200021e676cad12ab6ac8580660c01b620002d560201b60201c565b806004819055505062000490565b50565b620002d18282604051602401620002489291906200045c565b6040516020818303038152906040527f319af333000000000000000000000000000000000000000000000000000000007bffffffffffffffffffffffffffffffffffffffffffffffffffffffff19166020820180517bffffffffffffffffffffffffffffffffffffffffffffffffffffffff8381831617835250505050620002d860201b60201c565b5050565b50565b60008151905060006a636f6e736f6c652e6c6f679050602083016000808483855afa5050505050565b600080fd5b6000819050919050565b6200031b8162000306565b81146200032757600080fd5b50565b6000815190506200033b8162000310565b92915050565b6000602082840312156200035a576200035962000301565b5b60006200036a848285016200032a565b91505092915050565b600081519050919050565b600082825260208201905092915050565b60005b83811015620003af57808201518184015260208101905062000392565b83811115620003bf576000848401525b50505050565b6000601f19601f8301169050919050565b6000620003e38262000373565b620003ef81856200037e565b9350620004018185602086016200038f565b6200040c81620003c5565b840191505092915050565b600073ffffffffffffffffffffffffffffffffffffffff82169050919050565b6000620004448262000417565b9050919050565b620004568162000437565b82525050565b60006040820190508181036000830152620004788185620003d6565b90506200048960208301846200044b565b9392505050565b6132ad80620004a06000396000f3fe608060405234801561001057600080fd5b506004361061009e5760003560e01c8063a6f9dae111610066578063a6f9dae114610135578063d94955df14610151578063e0e3738c1461016d578063eadddb3c14610189578063f68e5f60146101a75761009e565b806318d7b320146100a357806343f96fe0146100c15780635b014401146100f1578063893d20e8146100fb5780639b4e0ef514610119575b600080fd5b6100ab6101c3565b6040516100b89190612733565b60405180910390f35b6100db60048036038101906100d691906128e7565b610365565b6040516100e8919061295e565b60405180910390f35b6100f96104a5565b005b610103610988565b60405161011091906129ba565b60405180910390f35b610133600480360381019061012e9190612a30565b6109ec565b005b61014f600480360381019061014a9190612aa9565b610eab565b005b61016b60048036038101906101669190612a30565b6110e6565b005b61018760048036038101906101829190612ad6565b611605565b005b610191611777565b60405161019e9190612733565b60405180910390f35b6101c160048036038101906101bc9190612a30565b6117bd565b005b60006101d96724cb88086cafe94360c01b611f5e565b6101ed67b46d451e17146f2d60c01b611f5e565b61020167f5602eb3e0dbabd160c01b611f5e565b60006102176773f53794fb630d7a60c01b611f5e565b61022b67cce47783ec6cbce660c01b611f5e565b60005b600160045461023d9190612b32565b8111610335576102576747c7b43e98eae89060c01b611f5e565b61026b678aa2bcd54cb96f3d60c01b611f5e565b600073ffffffffffffffffffffffffffffffffffffffff166002600083815260200190815260200160002060009054906101000a900473ffffffffffffffffffffffffffffffffffffffff1673ffffffffffffffffffffffffffffffffffffffff161461030d576102e66752415f04333c54d360c01b611f5e565b6102fa6714adddc6c88609eb60c01b611f5e565b818061030590612b66565b925050610322565b610321674d22fa06af38f52360c01b611f5e565b5b808061032d90612b66565b91505061022e565b5061034a670ac06bbe6826980760c01b611f5e565b61035e677bed1210507323bc60c01b611f5e565b8091505090565b600061037b67b7409d3a077a813960c01b611f5e565b61038f679ba12e610dc0aa2960c01b611f5e565b6103a36708d9d6850799aeae60c01b611f5e565b60005b600183516103b49190612b32565b8111610471576103ce674493f57a13e06eae60c01b611f5e565b6103e26754ae3bf779289c9e60c01b611f5e565b838382815181106103f6576103f5612baf565b5b6020026020010151141561044a57610418672078fe6b712852e160c01b611f5e565b61042c67d2cdd4b87252b3f460c01b611f5e565b61044067292d9ce1ac9508e760c01b611f5e565b600191505061049f565b61045e673417aa66a8c53de960c01b611f5e565b808061046990612b66565b9150506103a6565b506104866727dae45036a6e6eb60c01b611f5e565b61049a67ef8afe7bc8a33a8360c01b611f5e565b600090505b92915050565b6104b967bdd7f2ee5de7738a60c01b611f5e565b6104cd67c8cbac8358fc41e660c01b611f61565b6104e1677298e4fde750db0b60c01b611f61565b6104f567b452cbeb6ab1713160c01b611f61565b610509676b92ded8e461915760c01b611f61565b60008054906101000a900473ffffffffffffffffffffffffffffffffffffffff1673ffffffffffffffffffffffffffffffffffffffff163373ffffffffffffffffffffffffffffffffffffffff1614610597576040517f08c379a000000000000000000000000000000000000000000000000000000000815260040161058e90612c3b565b60405180910390fd5b6105ab67a5a73c2f0610d4d260c01b611f61565b6105bf67922ac618d7aaab8260c01b611f61565b6105d3673177104f1e7330cd60c01b611f5e565b6105e767382f189193acd1d560c01b611f5e565b6105fb6746be9242211c3d0e60c01b611f5e565b61060f67824e2e04d5ca1c6360c01b611f5e565b6000600380549050141561065e57610631671eeb7fe70f29b94b60c01b611f5e565b6106456787fb95f4a2f6669160c01b611f5e565b61065967d86092efc26640e060c01b611f5e565b610986565b61067267ff6b6ae0b01b0f4360c01b611f5e565b6106866769e6d006ff22d98960c01b611f5e565b61069a676086aed0921974dd60c01b611f5e565b60005b60016003805490506106af9190612b32565b8111610765576106c96772f6f4652d91d09f60c01b611f5e565b60016000600383815481106106e1576106e0612baf565b5b9060005260206000200160009054906101000a900473ffffffffffffffffffffffffffffffffffffffff1673ffffffffffffffffffffffffffffffffffffffff1673ffffffffffffffffffffffffffffffffffffffff168152602001908152602001600020600061075291906126bb565b808061075d90612b66565b91505061069d565b5061077a67d96724d22d799ed060c01b611f5e565b6003600061078891906126dc565b61079c67495c596544380af460c01b611f5e565b6107b067d458b9043ca2168860c01b611f5e565b60005b6004548111610984576107d067d7a590a941c0704e60c01b611f5e565b6107e4678b00961562058a9e60c01b611f5e565b60006002600083815260200190815260200160002060009054906101000a900473ffffffffffffffffffffffffffffffffffffffff16905061083067ed6198810f7cf75460c01b611f5e565b6108446713905cd01137130960c01b611f5e565b600073ffffffffffffffffffffffffffffffffffffffff168173ffffffffffffffffffffffffffffffffffffffff161461095b5761088c67085005a789b974e960c01b611f5e565b6108a0670e236f8a20ed3f0960c01b611f5e565b60006002600084815260200190815260200160002060006101000a81548173ffffffffffffffffffffffffffffffffffffffff021916908373ffffffffffffffffffffffffffffffffffffffff1602179055506109076715293a6d12b5de7f60c01b611f5e565b61091b6760d16e9ff56e8ec560c01b611f5e565b7fa3be76334976c368b4726800022e50475912fa6a8dc117941a00e82e1fc50f2582823360405161094e93929190612c5b565b60405180910390a1610970565b61096f6723ac5db09cb0e27060c01b611f5e565b5b50808061097c90612b66565b9150506107b3565b505b565b600061099e67b0e568373fad74d660c01b611f61565b6109b267fb99474c7207f13460c01b611f61565b6109c66712dd4788531a539060c01b611f61565b60008054906101000a900473ffffffffffffffffffffffffffffffffffffffff16905090565b610a00677f21bd12eb98f9c560c01b611f5e565b610a14678d0fc171c0f4515160c01b611f5e565b610a2867e64703fba2beaa8560c01b611f5e565b610a3c6710a6b4c0d6c8cefa60c01b611f5e565b600454828290501115610a84576040517f08c379a0000000000000000000000000000000000000000000000000000000008152600401610a7b90612d04565b60405180910390fd5b610a98672752e34f0df375df60c01b611f5e565b610aac671c8ffcf1825a856f60c01b611f5e565b610ac0678b4bce7c177e4eca60c01b611f5e565b60005b600183839050610ad39190612b32565b8111610ea657610aed676205b9b2ed160d6260c01b611f5e565b610b0167e09271d7cbd3dcdb60c01b611f5e565b6000838383818110610b1657610b15612baf565b5b905060200201359050610b3367d045d931595083a060c01b611f5e565b610b4767f6b8ef807bb87bf460c01b611f5e565b610b5b673b2fce12bff4b44560c01b611f5e565b6001600454610b6a9190612b32565b811115610bac576040517f08c379a0000000000000000000000000000000000000000000000000000000008152600401610ba390612d70565b60405180910390fd5b610bc067df4c78bce94abfeb60c01b611f5e565b610bd467a7108e03ffb21a8360c01b611f5e565b610be867fd1e783828a1e16760c01b611f5e565b610bfc67a8324968e76a9c4f60c01b611f5e565b600073ffffffffffffffffffffffffffffffffffffffff166002600083815260200190815260200160002060009054906101000a900473ffffffffffffffffffffffffffffffffffffffff1673ffffffffffffffffffffffffffffffffffffffff1614610c9e576040517f08c379a0000000000000000000000000000000000000000000000000000000008152600401610c9590612e28565b60405180910390fd5b610cb2677bff0d1839c345d960c01b611f5e565b610cc6678a9cea6c3f172a4d60c01b611f5e565b610cda679e0d4784b12444a260c01b611f5e565b6003339080600181540180825580915050600190039060005260206000200160009091909190916101000a81548173ffffffffffffffffffffffffffffffffffffffff021916908373ffffffffffffffffffffffffffffffffffffffff160217905550610d5167f8638fd930b9724760c01b611f5e565b610d6567ad7cbb557a0413c960c01b611f5e565b600160003373ffffffffffffffffffffffffffffffffffffffff1673ffffffffffffffffffffffffffffffffffffffff168152602001908152602001600020819080600181540180825580915050600190039060005260206000200160009091909190915055610ddf67d97d25ab6915a25860c01b611f5e565b336002600083815260200190815260200160002060006101000a81548173ffffffffffffffffffffffffffffffffffffffff021916908373ffffffffffffffffffffffffffffffffffffffff160217905550610e45675b530154c667dde160c01b611f5e565b610e5967f8d3d383af68888a60c01b611f5e565b7f672b59f7ae6f9ce32310639926243c8a7b423f2c4be780b7f555215a737af7768133604051610e8a929190612e48565b60405180910390a1508080610e9e90612b66565b915050610ac3565b505050565b610ebf676139b28d292d672360c01b611f61565b610ed367c8cbac8358fc41e660c01b611f61565b610ee7677298e4fde750db0b60c01b611f61565b610efb67b452cbeb6ab1713160c01b611f61565b610f0f676b92ded8e461915760c01b611f61565b60008054906101000a900473ffffffffffffffffffffffffffffffffffffffff1673ffffffffffffffffffffffffffffffffffffffff163373ffffffffffffffffffffffffffffffffffffffff1614610f9d576040517f08c379a0000000000000000000000000000000000000000000000000000000008152600401610f9490612c3b565b60405180910390fd5b610fb167a5a73c2f0610d4d260c01b611f61565b610fc567922ac618d7aaab8260c01b611f61565b610fd9675f8b028f9edd7db660c01b611f61565b610fed678b11fb289d56593c60c01b611f61565b61100167445f245cb1bca28160c01b611f61565b61101567b7bff48b7c2c06ab60c01b611f61565b8073ffffffffffffffffffffffffffffffffffffffff1660008054906101000a900473ffffffffffffffffffffffffffffffffffffffff1673ffffffffffffffffffffffffffffffffffffffff167f342827c97908e5e2f71151c08502a66d44b6f758e3ac2f1de95f02eb95f0a73560405160405180910390a36110a3676aa84991b9856e9e60c01b611f61565b806000806101000a81548173ffffffffffffffffffffffffffffffffffffffff021916908373ffffffffffffffffffffffffffffffffffffffff16021790555050565b6110fa67ac874eb266406d5060c01b611f5e565b61110e67c7430dfe22612ed860c01b611f5e565b6111226758a2cc956d4188d560c01b611f5e565b611136675dbc90838970267960c01b611f5e565b60045482829050111561117e576040517f08c379a000000000000000000000000000000000000000000000000000000000815260040161117590612ee3565b60405180910390fd5b61119267201dd51417d9a8ee60c01b611f5e565b6111a6679ce1782f2fd6b47c60c01b611f5e565b6111ba670e9c88b0bfe71db260c01b611f5e565b60005b6001838390506111cd9190612b32565b8111611600576111e76725f8f541e4d6d27060c01b611f5e565b6111fb67adc8e639d9b3776660c01b611f5e565b60008383838181106112105761120f612baf565b5b90506020020135905061122d67cd022acc8310768960c01b611f5e565b61124167c47c462227fdd45460c01b611f5e565b61125567b64f1b67871ea33560c01b611f5e565b60016004546112649190612b32565b8111156112a6576040517f08c379a000000000000000000000000000000000000000000000000000000000815260040161129d90612d70565b60405180910390fd5b6112ba67a014a8457c742fe360c01b611f5e565b6112ce67a9c63fd99b7ce43360c01b611f5e565b6112e267f6d998785915d3df60c01b611f5e565b6112f667222927a0445b0a6d60c01b611f5e565b61138d81600160003373ffffffffffffffffffffffffffffffffffffffff1673ffffffffffffffffffffffffffffffffffffffff16815260200190815260200160002080548060200260200160405190810160405280929190818152602001828054801561138357602002820191906000526020600020905b81548152602001906001019080831161136f575b5050505050610365565b6113cc576040517f08c379a00000000000000000000000000000000000000000000000000000000081526004016113c390612f75565b60405180910390fd5b6113e067a68899188c4a2e3860c01b611f5e565b6113f467593887961f737eb960c01b611f5e565b611408670298931136fdde2460c01b611f5e565b611450600160003373ffffffffffffffffffffffffffffffffffffffff1673ffffffffffffffffffffffffffffffffffffffff16815260200190815260200160002082611f64565b61146467b43cf6c237d1232360c01b611f5e565b61147867d999ba80551e01fa60c01b611f5e565b6000600160003373ffffffffffffffffffffffffffffffffffffffff1673ffffffffffffffffffffffffffffffffffffffff16815260200190815260200160002080549050141561150d576114d767a25df037120a8b2d60c01b611f5e565b6114eb670166e7e6921840c260c01b611f5e565b6114ff6793283d8049cf7cca60c01b611f5e565b61150833611fe5565b611522565b611521674d52dca9b48df43560c01b611f5e565b5b6115366744a2ae20acae0a5b60c01b611f5e565b60006002600083815260200190815260200160002060006101000a81548173ffffffffffffffffffffffffffffffffffffffff021916908373ffffffffffffffffffffffffffffffffffffffff16021790555061159d67cc90f1c62c6098ae60c01b611f5e565b6115b167b3d39d4c7dbb669060c01b611f5e565b7fa3be76334976c368b4726800022e50475912fa6a8dc117941a00e82e1fc50f258133336040516115e493929190612c5b565b60405180910390a15080806115f890612b66565b9150506111bd565b505050565b6116196720df01d1cb2bbb8760c01b611f5e565b61162d67c8cbac8358fc41e660c01b611f61565b611641677298e4fde750db0b60c01b611f61565b61165567b452cbeb6ab1713160c01b611f61565b611669676b92ded8e461915760c01b611f61565b60008054906101000a900473ffffffffffffffffffffffffffffffffffffffff1673ffffffffffffffffffffffffffffffffffffffff163373ffffffffffffffffffffffffffffffffffffffff16146116f7576040517f08c379a00000000000000000000000000000000000000000000000000000000081526004016116ee90612c3b565b60405180910390fd5b61170b67a5a73c2f0610d4d260c01b611f61565b61171f67922ac618d7aaab8260c01b611f61565b61173367add8d51958860db760c01b611f5e565b611747671039d637fd936bce60c01b611f5e565b61175b67a3b427cb3584e53860c01b611f5e565b806004600082825461176d9190612f95565b9250508190555050565b600061178d671742b36344e28e7160c01b611f5e565b6117a1674f427722fa72c72b60c01b611f5e565b6117b5678dfca3526f4fdd9d60c01b611f5e565b600454905090565b6117d167d857af5d0665fe8b60c01b611f5e565b6117e567c8cbac8358fc41e660c01b611f61565b6117f9677298e4fde750db0b60c01b611f61565b61180d67b452cbeb6ab1713160c01b611f61565b611821676b92ded8e461915760c01b611f61565b60008054906101000a900473ffffffffffffffffffffffffffffffffffffffff1673ffffffffffffffffffffffffffffffffffffffff163373ffffffffffffffffffffffffffffffffffffffff16146118af576040517f08c379a00000000000000000000000000000000000000000000000000000000081526004016118a690612c3b565b60405180910390fd5b6118c367a5a73c2f0610d4d260c01b611f61565b6118d767922ac618d7aaab8260c01b611f61565b6118eb67a273ab0dff6ce42560c01b611f5e565b6118ff67393c2661c1202dc460c01b611f5e565b61191367044da4f2da19fa3c60c01b611f5e565b611927674479bb0bca16d6b960c01b611f5e565b61193b6742d4bce50d85e3ce60c01b611f5e565b600454828290501115611983576040517f08c379a000000000000000000000000000000000000000000000000000000000815260040161197a90612ee3565b60405180910390fd5b61199767a67d19eac5577dd960c01b611f5e565b6119ab67487b9f6dd542ff8660c01b611f5e565b6119bf6727632c41d1e94b7060c01b611f5e565b60005b6001838390506119d29190612b32565b8111611ebd576119ec676358452cbaf9c33260c01b611f5e565b611a0067e0d39a026699f29460c01b611f5e565b6000838383818110611a1557611a14612baf565b5b905060200201359050611a32671945c86c0900ced960c01b611f5e565b611a466711776dfc22014e8d60c01b611f5e565b611a5a671208368cce6933b960c01b611f5e565b6001600454611a699190612b32565b811115611aab576040517f08c379a0000000000000000000000000000000000000000000000000000000008152600401611aa290612d70565b60405180910390fd5b611abf67f5e1d8b7612c7fde60c01b611f5e565b611ad36712cd701b683b652c60c01b611f5e565b611ae767a27abd6e3cd6662160c01b611f5e565b611afb67ccf2faee914f3ff560c01b611f5e565b600073ffffffffffffffffffffffffffffffffffffffff166002600083815260200190815260200160002060009054906101000a900473ffffffffffffffffffffffffffffffffffffffff1673ffffffffffffffffffffffffffffffffffffffff161415611b9e576040517f08c379a0000000000000000000000000000000000000000000000000000000008152600401611b959061305d565b60405180910390fd5b611bb267c86d343b519419a260c01b611f5e565b611bc667cdb1aa871dc2f26860c01b611f5e565b611bda67233fbafc82ba6e7d60c01b611f5e565b60006002600083815260200190815260200160002060009054906101000a900473ffffffffffffffffffffffffffffffffffffffff169050611c26678be0e07a4a79367e60c01b611f5e565b611c3a67b6e104ea78c55b1260c01b611f5e565b611c82600160008373ffffffffffffffffffffffffffffffffffffffff1673ffffffffffffffffffffffffffffffffffffffff16815260200190815260200160002083611f64565b611c966735e7503a0f5542d860c01b611f5e565b611caa67bc4ed8bef775acac60c01b611f5e565b6000600160008373ffffffffffffffffffffffffffffffffffffffff1673ffffffffffffffffffffffffffffffffffffffff168152602001908152602001600020805490501415611d3f57611d0967b4c63d3d894b073760c01b611f5e565b611d1d67d1c76f9a1854df9660c01b611f5e565b611d31676d02a8e29e035f9460c01b611f5e565b611d3a81611fe5565b611d54565b611d5367fa91d1699799c0dc60c01b611f5e565b5b611d6867e08e5b071c33ca6860c01b611f5e565b611d7c677fae012aa989a30b60c01b611f5e565b600073ffffffffffffffffffffffffffffffffffffffff168173ffffffffffffffffffffffffffffffffffffffff1614611e9357611dc46744bec608331d572960c01b611f5e565b611dd8674da98387350f474660c01b611f5e565b60006002600084815260200190815260200160002060006101000a81548173ffffffffffffffffffffffffffffffffffffffff021916908373ffffffffffffffffffffffffffffffffffffffff160217905550611e3f67ed50029c7481fdea60c01b611f5e565b611e53679ad5f6b9c611bbac60c01b611f5e565b7fa3be76334976c368b4726800022e50475912fa6a8dc117941a00e82e1fc50f25828233604051611e8693929190612c5b565b60405180910390a1611ea8565b611ea7673989d42118390f4160c01b611f5e565b5b50508080611eb590612b66565b9150506119c2565b505050565b611f5a8282604051602401611ed89291906130f4565b6040516020818303038152906040527f319af333000000000000000000000000000000000000000000000000000000007bffffffffffffffffffffffffffffffffffffffffffffffffffffffff19166020820180517bffffffffffffffffffffffffffffffffffffffffffffffffffffffff8381831617835250505050612063565b5050565b50565b50565b611f7867499bb9ffaae84d9560c01b611f5e565b611f8c67e123dc2f20358cea60c01b611f5e565b611fa06750cd023ccff87e2160c01b611f5e565b6000611fac838361208c565b9050611fc267e7aadf62f954b10060c01b611f5e565b611fd6678482b3213009800260c01b611f5e565b611fe08382612207565b505050565b611ff96729c1cb78719d331560c01b611f5e565b61200d67a15c41c0bb9b47d760c01b611f5e565b61202167d172dc1e91ca12ff60c01b611f5e565b600061202c826123a2565b905061204267ed3971981253e80e60c01b611f5e565b61205667e7d15bd37e6e96af60c01b611f5e565b61205f8161256a565b5050565b60008151905060006a636f6e736f6c652e6c6f679050602083016000808483855afa5050505050565b60006120a267bfb8c58298d0644d60c01b611f5e565b6120b667113a266cfdb3a07160c01b611f5e565b6120ca676bfb4c9dd4676a5660c01b611f5e565b60005b600184805490506120de9190612b32565b811161219d576120f86791346372c69b404a60c01b611f5e565b61210c67921b6c37fa79cc7a60c01b611f5e565b828482815481106121205761211f612baf565b5b9060005260206000200154141561217657612145676ed817ccaa72b80660c01b611f5e565b612159673d73d7c1f446aad260c01b611f5e565b61216d67cb7470977e159dbe60c01b611f5e565b80915050612201565b61218a6793201a8f80ce5a0a60c01b611f5e565b808061219590612b66565b9150506120cd565b506121b2670c7aac0ecdbbd15260c01b611f5e565b6121c66792f1b569184cf73e60c01b611f5e565b6040517f08c379a00000000000000000000000000000000000000000000000000000000081526004016121f890613196565b60405180910390fd5b92915050565b61221b679ac8dbe8d71c91ef60c01b611f5e565b61222f6762862a731f8e6ec560c01b611f5e565b612243678eac1ffef1c865ea60c01b611f5e565b60008280549050148015612267575061226667a53248240483f81660c01b6126b0565b5b8061229257508180549050811015801561229157506122906735bec3025870c5d260c01b6126b0565b5b5b156122d8576122ab6749dd58dc116824e360c01b611f5e565b6122bf67241ac41168ca93d560c01b611f5e565b6122d367908607946a8b4c8f60c01b611f5e565b600080fd5b6122ec6783c9954a4080b44460c01b611f5e565b61230067b2a6e24dd27c417460c01b611f5e565b81600183805490506123129190612b32565b8154811061232357612322612baf565b5b906000526020600020015482828154811061234157612340612baf565b5b906000526020600020018190555061236367430017887dc2b41860c01b611f5e565b61237767deda8aef8764a12960c01b611f5e565b81805480612388576123876131b6565b5b600190038181906000526020600020016000905590555050565b60006123b86730da624578dd70fb60c01b611f5e565b6123cc67f7c301ff0c3faab860c01b611f5e565b6123e06709c775c45eb63e2b60c01b611f5e565b60005b60016003805490506123f59190612b32565b81116125015761240f670552ee50d6453dcf60c01b611f5e565b612423672f967b6379e0168960c01b611f5e565b8273ffffffffffffffffffffffffffffffffffffffff166003828154811061244e5761244d612baf565b5b9060005260206000200160009054906101000a900473ffffffffffffffffffffffffffffffffffffffff1673ffffffffffffffffffffffffffffffffffffffff1614156124da576124a967ddf9430cfab1f57d60c01b611f5e565b6124bd677d9460f6c9dd018c60c01b611f5e565b6124d167470cf6419eef98d760c01b611f5e565b80915050612565565b6124ee67ef01ce1a36a5d47660c01b611f5e565b80806124f990612b66565b9150506123e3565b5061251667fd59c8152fc472ba60c01b611f5e565b61252a67fac5abcc585c584a60c01b611f5e565b6040517f08c379a000000000000000000000000000000000000000000000000000000000815260040161255c90613257565b60405180910390fd5b919050565b61257e673d4a7529e29448fc60c01b611f5e565b61259267120b99f019a453ec60c01b611f5e565b600360016003805490506125a69190612b32565b815481106125b7576125b6612baf565b5b9060005260206000200160009054906101000a900473ffffffffffffffffffffffffffffffffffffffff16600382815481106125f6576125f5612baf565b5b9060005260206000200160006101000a81548173ffffffffffffffffffffffffffffffffffffffff021916908373ffffffffffffffffffffffffffffffffffffffff16021790555061265267141038852ae6c36e60c01b611f5e565b61266667a19d6ad0b11c80ba60c01b611f5e565b6003805480612678576126776131b6565b5b6001900381819060005260206000200160006101000a81549073ffffffffffffffffffffffffffffffffffffffff0219169055905550565b600060019050919050565b50805460008255906000526020600020908101906126d991906126fd565b50565b50805460008255906000526020600020908101906126fa91906126fd565b50565b5b808211156127165760008160009055506001016126fe565b5090565b6000819050919050565b61272d8161271a565b82525050565b60006020820190506127486000830184612724565b92915050565b6000604051905090565b600080fd5b600080fd5b61276b8161271a565b811461277657600080fd5b50565b60008135905061278881612762565b92915050565b600080fd5b6000601f19601f8301169050919050565b7f4e487b7100000000000000000000000000000000000000000000000000000000600052604160045260246000fd5b6127dc82612793565b810181811067ffffffffffffffff821117156127fb576127fa6127a4565b5b80604052505050565b600061280e61274e565b905061281a82826127d3565b919050565b600067ffffffffffffffff82111561283a576128396127a4565b5b602082029050602081019050919050565b600080fd5b600061286361285e8461281f565b612804565b905080838252602082019050602084028301858111156128865761288561284b565b5b835b818110156128af578061289b8882612779565b845260208401935050602081019050612888565b5050509392505050565b600082601f8301126128ce576128cd61278e565b5b81356128de848260208601612850565b91505092915050565b600080604083850312156128fe576128fd612758565b5b600061290c85828601612779565b925050602083013567ffffffffffffffff81111561292d5761292c61275d565b5b612939858286016128b9565b9150509250929050565b60008115159050919050565b61295881612943565b82525050565b6000602082019050612973600083018461294f565b92915050565b600073ffffffffffffffffffffffffffffffffffffffff82169050919050565b60006129a482612979565b9050919050565b6129b481612999565b82525050565b60006020820190506129cf60008301846129ab565b92915050565b600080fd5b60008083601f8401126129f0576129ef61278e565b5b8235905067ffffffffffffffff811115612a0d57612a0c6129d5565b5b602083019150836020820283011115612a2957612a2861284b565b5b9250929050565b60008060208385031215612a4757612a46612758565b5b600083013567ffffffffffffffff811115612a6557612a6461275d565b5b612a71858286016129da565b92509250509250929050565b612a8681612999565b8114612a9157600080fd5b50565b600081359050612aa381612a7d565b92915050565b600060208284031215612abf57612abe612758565b5b6000612acd84828501612a94565b91505092915050565b600060208284031215612aec57612aeb612758565b5b6000612afa84828501612779565b91505092915050565b7f4e487b7100000000000000000000000000000000000000000000000000000000600052601160045260246000fd5b6000612b3d8261271a565b9150612b488361271a565b925082821015612b5b57612b5a612b03565b5b828203905092915050565b6000612b718261271a565b91507fffffffffffffffffffffffffffffffffffffffffffffffffffffffffffffffff821415612ba457612ba3612b03565b5b600182019050919050565b7f4e487b7100000000000000000000000000000000000000000000000000000000600052603260045260246000fd5b600082825260208201905092915050565b7f43616c6c6572206973206e6f74206f776e657200000000000000000000000000600082015250565b6000612c25601383612bde565b9150612c3082612bef565b602082019050919050565b60006020820190508181036000830152612c5481612c18565b9050919050565b6000606082019050612c706000830186612724565b612c7d60208301856129ab565b612c8a60408301846129ab565b949350505050565b7f546865206e756d626572206f6620726f6f6d7320796f7520617265207472796960008201527f6e6720746f207265736572766520697320746f6f206269670000000000000000602082015250565b6000612cee603883612bde565b9150612cf982612c92565b604082019050919050565b60006020820190508181036000830152612d1d81612ce1565b9050919050565b7f54686520726f6f6d206e756d626572206973206f7574206f662072616e676500600082015250565b6000612d5a601f83612bde565b9150612d6582612d24565b602082019050919050565b60006020820190508181036000830152612d8981612d4d565b9050919050565b7f596f7572207265736572766174696f6e2063616e6e6f7420626520636f6d706c60008201527f657465642c2062656361757365206120726f6f6d20796f752077616e7420697360208201527f20616c7265616479206f63637570696564000000000000000000000000000000604082015250565b6000612e12605183612bde565b9150612e1d82612d90565b606082019050919050565b60006020820190508181036000830152612e4181612e05565b9050919050565b6000604082019050612e5d6000830185612724565b612e6a60208301846129ab565b9392505050565b7f546865206e756d626572206f6620726f6f6d7320796f7520617265207472796960008201527f6e6720746f206672656520697320746f6f206269670000000000000000000000602082015250565b6000612ecd603583612bde565b9150612ed882612e71565b604082019050919050565b60006020820190508181036000830152612efc81612ec0565b9050919050565b7f596f7520617265206e6f7420616c6c6f77656420746f2066726565206120726f60008201527f6f6d20796f7520646f6e2774206f636375707900000000000000000000000000602082015250565b6000612f5f603383612bde565b9150612f6a82612f03565b604082019050919050565b60006020820190508181036000830152612f8e81612f52565b9050919050565b6000612fa08261271a565b9150612fab8361271a565b9250827fffffffffffffffffffffffffffffffffffffffffffffffffffffffffffffffff03821115612fe057612fdf612b03565b5b828201905092915050565b7f54686520726f6f6d2063616e6e6f742062652066726565642c2062656361757360008201527f65206974206973206e6f74206f63637570696564000000000000000000000000602082015250565b6000613047603483612bde565b915061305282612feb565b604082019050919050565b600060208201905081810360008301526130768161303a565b9050919050565b600081519050919050565b60005b838110156130a657808201518184015260208101905061308b565b838111156130b5576000848401525b50505050565b60006130c68261307d565b6130d08185612bde565b93506130e0818560208601613088565b6130e981612793565b840191505092915050565b6000604082019050818103600083015261310e81856130bb565b905061311d60208301846129ab565b9392505050565b7f546865207375626d69747465642076616c756520636f756c646e27742062652060008201527f666f756e6420696e207468652072657370656374697665206172726179210000602082015250565b6000613180603e83612bde565b915061318b82613124565b604082019050919050565b600060208201905081810360008301526131af81613173565b9050919050565b7f4e487b7100000000000000000000000000000000000000000000000000000000600052603160045260246000fd5b7f54686520726573706563746976652061646472657373206973206e6f7420612060008201527f636c69656e74206f662074686520486f6e65737420486f74656c210000000000602082015250565b6000613241603b83612bde565b915061324c826131e5565b604082019050919050565b6000602082019050818103600083015261327081613234565b905091905056fea2646970667358221220594aba0e9da259b43d0836ae0048b58ad5bb335bc544d4507eb226b337efdddd64736f6c63430008090033","opcodes":"PUSH1 0x80 PUSH1 0x40 MSTORE CALLVALUE DUP1 ISZERO PUSH3 0x11 JUMPI PUSH1 0x0 DUP1 REVERT JUMPDEST POP PUSH1 0x40 MLOAD PUSH3 0x374D CODESIZE SUB DUP1 PUSH3 0x374D DUP4 CODECOPY DUP2 DUP2 ADD PUSH1 0x40 MSTORE DUP2 ADD SWAP1 PUSH3 0x37 SWAP2 SWAP1 PUSH3 0x341 JUMP JUMPDEST PUSH3 0x53 PUSH8 0x96D6F6766204B603 PUSH1 0xC0 SHL PUSH3 0x22C PUSH1 0x20 SHL PUSH1 0x20 SHR JUMP JUMPDEST PUSH3 0x6F PUSH8 0xB002EA01E2288FC8 PUSH1 0xC0 SHL PUSH3 0x22C PUSH1 0x20 SHL PUSH1 0x20 SHR JUMP JUMPDEST PUSH3 0x8B PUSH8 0x7AB33A8CB6063076 PUSH1 0xC0 SHL PUSH3 0x22C PUSH1 0x20 SHL PUSH1 0x20 SHR JUMP JUMPDEST PUSH3 0xD7 PUSH1 0x40 MLOAD DUP1 PUSH1 0x40 ADD PUSH1 0x40 MSTORE DUP1 PUSH1 0x1B DUP2 MSTORE PUSH1 0x20 ADD PUSH32 0x4F776E657220636F6E7472616374206465706C6F7965642062793A0000000000 DUP2 MSTORE POP CALLER PUSH3 0x22F PUSH1 0x20 SHL PUSH3 0x1EC2 OR PUSH1 0x20 SHR JUMP JUMPDEST PUSH3 0xF3 PUSH8 0x282A066949985C98 PUSH1 0xC0 SHL PUSH3 0x22C PUSH1 0x20 SHL PUSH1 0x20 SHR JUMP JUMPDEST CALLER PUSH1 0x0 DUP1 PUSH2 0x100 EXP DUP2 SLOAD DUP2 PUSH20 0xFFFFFFFFFFFFFFFFFFFFFFFFFFFFFFFFFFFFFFFF MUL NOT AND SWAP1 DUP4 PUSH20 0xFFFFFFFFFFFFFFFFFFFFFFFFFFFFFFFFFFFFFFFF AND MUL OR SWAP1 SSTORE POP PUSH3 0x14F PUSH8 0xCD8342D149DB9C57 PUSH1 0xC0 SHL PUSH3 0x22C PUSH1 0x20 SHL PUSH1 0x20 SHR JUMP JUMPDEST PUSH3 0x16B PUSH8 0x5CFFB0BB3BF2A53A PUSH1 0xC0 SHL PUSH3 0x22C PUSH1 0x20 SHL PUSH1 0x20 SHR JUMP JUMPDEST PUSH1 0x0 DUP1 SLOAD SWAP1 PUSH2 0x100 EXP SWAP1 DIV PUSH20 0xFFFFFFFFFFFFFFFFFFFFFFFFFFFFFFFFFFFFFFFF AND PUSH20 0xFFFFFFFFFFFFFFFFFFFFFFFFFFFFFFFFFFFFFFFF AND PUSH1 0x0 PUSH20 0xFFFFFFFFFFFFFFFFFFFFFFFFFFFFFFFFFFFFFFFF AND PUSH32 0x342827C97908E5E2F71151C08502A66D44B6F758E3AC2F1DE95F02EB95F0A735 PUSH1 0x40 MLOAD PUSH1 0x40 MLOAD DUP1 SWAP2 SUB SWAP1 LOG3 PUSH3 0x202 PUSH8 0xA27135D46C88D75F PUSH1 0xC0 SHL PUSH3 0x2D5 PUSH1 0x20 SHL PUSH1 0x20 SHR JUMP JUMPDEST PUSH3 0x21E PUSH8 0x6CAD12AB6AC85806 PUSH1 0xC0 SHL PUSH3 0x2D5 PUSH1 0x20 SHL PUSH1 0x20 SHR JUMP JUMPDEST DUP1 PUSH1 0x4 DUP2 SWAP1 SSTORE POP POP PUSH3 0x490 JUMP JUMPDEST POP JUMP JUMPDEST PUSH3 0x2D1 DUP3 DUP3 PUSH1 0x40 MLOAD PUSH1 0x24 ADD PUSH3 0x248 SWAP3 SWAP2 SWAP1 PUSH3 0x45C JUMP JUMPDEST PUSH1 0x40 MLOAD PUSH1 0x20 DUP2 DUP4 SUB SUB DUP2 MSTORE SWAP1 PUSH1 0x40 MSTORE PUSH32 0x319AF33300000000000000000000000000000000000000000000000000000000 PUSH28 0xFFFFFFFFFFFFFFFFFFFFFFFFFFFFFFFFFFFFFFFFFFFFFFFFFFFFFFFF NOT AND PUSH1 0x20 DUP3 ADD DUP1 MLOAD PUSH28 0xFFFFFFFFFFFFFFFFFFFFFFFFFFFFFFFFFFFFFFFFFFFFFFFFFFFFFFFF DUP4 DUP2 DUP4 AND OR DUP4 MSTORE POP POP POP POP PUSH3 0x2D8 PUSH1 0x20 SHL PUSH1 0x20 SHR JUMP JUMPDEST POP POP JUMP JUMPDEST POP JUMP JUMPDEST PUSH1 0x0 DUP2 MLOAD SWAP1 POP PUSH1 0x0 PUSH11 0x636F6E736F6C652E6C6F67 SWAP1 POP PUSH1 0x20 DUP4 ADD PUSH1 0x0 DUP1 DUP5 DUP4 DUP6 GAS STATICCALL POP POP POP POP POP JUMP JUMPDEST PUSH1 0x0 DUP1 REVERT JUMPDEST PUSH1 0x0 DUP2 SWAP1 POP SWAP2 SWAP1 POP JUMP JUMPDEST PUSH3 0x31B DUP2 PUSH3 0x306 JUMP JUMPDEST DUP2 EQ PUSH3 0x327 JUMPI PUSH1 0x0 DUP1 REVERT JUMPDEST POP JUMP JUMPDEST PUSH1 0x0 DUP2 MLOAD SWAP1 POP PUSH3 0x33B DUP2 PUSH3 0x310 JUMP JUMPDEST SWAP3 SWAP2 POP POP JUMP JUMPDEST PUSH1 0x0 PUSH1 0x20 DUP3 DUP5 SUB SLT ISZERO PUSH3 0x35A JUMPI PUSH3 0x359 PUSH3 0x301 JUMP JUMPDEST JUMPDEST PUSH1 0x0 PUSH3 0x36A DUP5 DUP3 DUP6 ADD PUSH3 0x32A JUMP JUMPDEST SWAP2 POP POP SWAP3 SWAP2 POP POP JUMP JUMPDEST PUSH1 0x0 DUP2 MLOAD SWAP1 POP SWAP2 SWAP1 POP JUMP JUMPDEST PUSH1 0x0 DUP3 DUP3 MSTORE PUSH1 0x20 DUP3 ADD SWAP1 POP SWAP3 SWAP2 POP POP JUMP JUMPDEST PUSH1 0x0 JUMPDEST DUP4 DUP2 LT ISZERO PUSH3 0x3AF JUMPI DUP1 DUP3 ADD MLOAD DUP2 DUP5 ADD MSTORE PUSH1 0x20 DUP2 ADD SWAP1 POP PUSH3 0x392 JUMP JUMPDEST DUP4 DUP2 GT ISZERO PUSH3 0x3BF JUMPI PUSH1 0x0 DUP5 DUP5 ADD MSTORE JUMPDEST POP POP POP POP JUMP JUMPDEST PUSH1 0x0 PUSH1 0x1F NOT PUSH1 0x1F DUP4 ADD AND SWAP1 POP SWAP2 SWAP1 POP JUMP JUMPDEST PUSH1 0x0 PUSH3 0x3E3 DUP3 PUSH3 0x373 JUMP JUMPDEST PUSH3 0x3EF DUP2 DUP6 PUSH3 0x37E JUMP JUMPDEST SWAP4 POP PUSH3 0x401 DUP2 DUP6 PUSH1 0x20 DUP7 ADD PUSH3 0x38F JUMP JUMPDEST PUSH3 0x40C DUP2 PUSH3 0x3C5 JUMP JUMPDEST DUP5 ADD SWAP2 POP POP SWAP3 SWAP2 POP POP JUMP JUMPDEST PUSH1 0x0 PUSH20 0xFFFFFFFFFFFFFFFFFFFFFFFFFFFFFFFFFFFFFFFF DUP3 AND SWAP1 POP SWAP2 SWAP1 POP JUMP JUMPDEST PUSH1 0x0 PUSH3 0x444 DUP3 PUSH3 0x417 JUMP JUMPDEST SWAP1 POP SWAP2 SWAP1 POP JUMP JUMPDEST PUSH3 0x456 DUP2 PUSH3 0x437 JUMP JUMPDEST DUP3 MSTORE POP POP JUMP JUMPDEST PUSH1 0x0 PUSH1 0x40 DUP3 ADD SWAP1 POP DUP2 DUP2 SUB PUSH1 0x0 DUP4 ADD MSTORE PUSH3 0x478 DUP2 DUP6 PUSH3 0x3D6 JUMP JUMPDEST SWAP1 POP PUSH3 0x489 PUSH1 0x20 DUP4 ADD DUP5 PUSH3 0x44B JUMP JUMPDEST SWAP4 SWAP3 POP POP POP JUMP JUMPDEST PUSH2 0x32AD DUP1 PUSH3 0x4A0 PUSH1 0x0 CODECOPY PUSH1 0x0 RETURN INVALID PUSH1 0x80 PUSH1 0x40 MSTORE CALLVALUE DUP1 ISZERO PUSH2 0x10 JUMPI PUSH1 0x0 DUP1 REVERT JUMPDEST POP PUSH1 0x4 CALLDATASIZE LT PUSH2 0x9E JUMPI PUSH1 0x0 CALLDATALOAD PUSH1 0xE0 SHR DUP1 PUSH4 0xA6F9DAE1 GT PUSH2 0x66 JUMPI DUP1 PUSH4 0xA6F9DAE1 EQ PUSH2 0x135 JUMPI DUP1 PUSH4 0xD94955DF EQ PUSH2 0x151 JUMPI DUP1 PUSH4 0xE0E3738C EQ PUSH2 0x16D JUMPI DUP1 PUSH4 0xEADDDB3C EQ PUSH2 0x189 JUMPI DUP1 PUSH4 0xF68E5F60 EQ PUSH2 0x1A7 JUMPI PUSH2 0x9E JUMP JUMPDEST DUP1 PUSH4 0x18D7B320 EQ PUSH2 0xA3 JUMPI DUP1 PUSH4 0x43F96FE0 EQ PUSH2 0xC1 JUMPI DUP1 PUSH4 0x5B014401 EQ PUSH2 0xF1 JUMPI DUP1 PUSH4 0x893D20E8 EQ PUSH2 0xFB JUMPI DUP1 PUSH4 0x9B4E0EF5 EQ PUSH2 0x119 JUMPI JUMPDEST PUSH1 0x0 DUP1 REVERT JUMPDEST PUSH2 0xAB PUSH2 0x1C3 JUMP JUMPDEST PUSH1 0x40 MLOAD PUSH2 0xB8 SWAP2 SWAP1 PUSH2 0x2733 JUMP JUMPDEST PUSH1 0x40 MLOAD DUP1 SWAP2 SUB SWAP1 RETURN JUMPDEST PUSH2 0xDB PUSH1 0x4 DUP1 CALLDATASIZE SUB DUP2 ADD SWAP1 PUSH2 0xD6 SWAP2 SWAP1 PUSH2 0x28E7 JUMP JUMPDEST PUSH2 0x365 JUMP JUMPDEST PUSH1 0x40 MLOAD PUSH2 0xE8 SWAP2 SWAP1 PUSH2 0x295E JUMP JUMPDEST PUSH1 0x40 MLOAD DUP1 SWAP2 SUB SWAP1 RETURN JUMPDEST PUSH2 0xF9 PUSH2 0x4A5 JUMP JUMPDEST STOP JUMPDEST PUSH2 0x103 PUSH2 0x988 JUMP JUMPDEST PUSH1 0x40 MLOAD PUSH2 0x110 SWAP2 SWAP1 PUSH2 0x29BA JUMP JUMPDEST PUSH1 0x40 MLOAD DUP1 SWAP2 SUB SWAP1 RETURN JUMPDEST PUSH2 0x133 PUSH1 0x4 DUP1 CALLDATASIZE SUB DUP2 ADD SWAP1 PUSH2 0x12E SWAP2 SWAP1 PUSH2 0x2A30 JUMP JUMPDEST PUSH2 0x9EC JUMP JUMPDEST STOP JUMPDEST PUSH2 0x14F PUSH1 0x4 DUP1 CALLDATASIZE SUB DUP2 ADD SWAP1 PUSH2 0x14A SWAP2 SWAP1 PUSH2 0x2AA9 JUMP JUMPDEST PUSH2 0xEAB JUMP JUMPDEST STOP JUMPDEST PUSH2 0x16B PUSH1 0x4 DUP1 CALLDATASIZE SUB DUP2 ADD SWAP1 PUSH2 0x166 SWAP2 SWAP1 PUSH2 0x2A30 JUMP JUMPDEST PUSH2 0x10E6 JUMP JUMPDEST STOP JUMPDEST PUSH2 0x187 PUSH1 0x4 DUP1 CALLDATASIZE SUB DUP2 ADD SWAP1 PUSH2 0x182 SWAP2 SWAP1 PUSH2 0x2AD6 JUMP JUMPDEST PUSH2 0x1605 JUMP JUMPDEST STOP JUMPDEST PUSH2 0x191 PUSH2 0x1777 JUMP JUMPDEST PUSH1 0x40 MLOAD PUSH2 0x19E SWAP2 SWAP1 PUSH2 0x2733 JUMP JUMPDEST PUSH1 0x40 MLOAD DUP1 SWAP2 SUB SWAP1 RETURN JUMPDEST PUSH2 0x1C1 PUSH1 0x4 DUP1 CALLDATASIZE SUB DUP2 ADD SWAP1 PUSH2 0x1BC SWAP2 SWAP1 PUSH2 0x2A30 JUMP JUMPDEST PUSH2 0x17BD JUMP JUMPDEST STOP JUMPDEST PUSH1 0x0 PUSH2 0x1D9 PUSH8 0x24CB88086CAFE943 PUSH1 0xC0 SHL PUSH2 0x1F5E JUMP JUMPDEST PUSH2 0x1ED PUSH8 0xB46D451E17146F2D PUSH1 0xC0 SHL PUSH2 0x1F5E JUMP JUMPDEST PUSH2 0x201 PUSH8 0xF5602EB3E0DBABD1 PUSH1 0xC0 SHL PUSH2 0x1F5E JUMP JUMPDEST PUSH1 0x0 PUSH2 0x217 PUSH8 0x73F53794FB630D7A PUSH1 0xC0 SHL PUSH2 0x1F5E JUMP JUMPDEST PUSH2 0x22B PUSH8 0xCCE47783EC6CBCE6 PUSH1 0xC0 SHL PUSH2 0x1F5E JUMP JUMPDEST PUSH1 0x0 JUMPDEST PUSH1 0x1 PUSH1 0x4 SLOAD PUSH2 0x23D SWAP2 SWAP1 PUSH2 0x2B32 JUMP JUMPDEST DUP2 GT PUSH2 0x335 JUMPI PUSH2 0x257 PUSH8 0x47C7B43E98EAE890 PUSH1 0xC0 SHL PUSH2 0x1F5E JUMP JUMPDEST PUSH2 0x26B PUSH8 0x8AA2BCD54CB96F3D PUSH1 0xC0 SHL PUSH2 0x1F5E JUMP JUMPDEST PUSH1 0x0 PUSH20 0xFFFFFFFFFFFFFFFFFFFFFFFFFFFFFFFFFFFFFFFF AND PUSH1 0x2 PUSH1 0x0 DUP4 DUP2 MSTORE PUSH1 0x20 ADD SWAP1 DUP2 MSTORE PUSH1 0x20 ADD PUSH1 0x0 KECCAK256 PUSH1 0x0 SWAP1 SLOAD SWAP1 PUSH2 0x100 EXP SWAP1 DIV PUSH20 0xFFFFFFFFFFFFFFFFFFFFFFFFFFFFFFFFFFFFFFFF AND PUSH20 0xFFFFFFFFFFFFFFFFFFFFFFFFFFFFFFFFFFFFFFFF AND EQ PUSH2 0x30D JUMPI PUSH2 0x2E6 PUSH8 0x52415F04333C54D3 PUSH1 0xC0 SHL PUSH2 0x1F5E JUMP JUMPDEST PUSH2 0x2FA PUSH8 0x14ADDDC6C88609EB PUSH1 0xC0 SHL PUSH2 0x1F5E JUMP JUMPDEST DUP2 DUP1 PUSH2 0x305 SWAP1 PUSH2 0x2B66 JUMP JUMPDEST SWAP3 POP POP PUSH2 0x322 JUMP JUMPDEST PUSH2 0x321 PUSH8 0x4D22FA06AF38F523 PUSH1 0xC0 SHL PUSH2 0x1F5E JUMP JUMPDEST JUMPDEST DUP1 DUP1 PUSH2 0x32D SWAP1 PUSH2 0x2B66 JUMP JUMPDEST SWAP2 POP POP PUSH2 0x22E JUMP JUMPDEST POP PUSH2 0x34A PUSH8 0xAC06BBE68269807 PUSH1 0xC0 SHL PUSH2 0x1F5E JUMP JUMPDEST PUSH2 0x35E PUSH8 0x7BED1210507323BC PUSH1 0xC0 SHL PUSH2 0x1F5E JUMP JUMPDEST DUP1 SWAP2 POP POP SWAP1 JUMP JUMPDEST PUSH1 0x0 PUSH2 0x37B PUSH8 0xB7409D3A077A8139 PUSH1 0xC0 SHL PUSH2 0x1F5E JUMP JUMPDEST PUSH2 0x38F PUSH8 0x9BA12E610DC0AA29 PUSH1 0xC0 SHL PUSH2 0x1F5E JUMP JUMPDEST PUSH2 0x3A3 PUSH8 0x8D9D6850799AEAE PUSH1 0xC0 SHL PUSH2 0x1F5E JUMP JUMPDEST PUSH1 0x0 JUMPDEST PUSH1 0x1 DUP4 MLOAD PUSH2 0x3B4 SWAP2 SWAP1 PUSH2 0x2B32 JUMP JUMPDEST DUP2 GT PUSH2 0x471 JUMPI PUSH2 0x3CE PUSH8 0x4493F57A13E06EAE PUSH1 0xC0 SHL PUSH2 0x1F5E JUMP JUMPDEST PUSH2 0x3E2 PUSH8 0x54AE3BF779289C9E PUSH1 0xC0 SHL PUSH2 0x1F5E JUMP JUMPDEST DUP4 DUP4 DUP3 DUP2 MLOAD DUP2 LT PUSH2 0x3F6 JUMPI PUSH2 0x3F5 PUSH2 0x2BAF JUMP JUMPDEST JUMPDEST PUSH1 0x20 MUL PUSH1 0x20 ADD ADD MLOAD EQ ISZERO PUSH2 0x44A JUMPI PUSH2 0x418 PUSH8 0x2078FE6B712852E1 PUSH1 0xC0 SHL PUSH2 0x1F5E JUMP JUMPDEST PUSH2 0x42C PUSH8 0xD2CDD4B87252B3F4 PUSH1 0xC0 SHL PUSH2 0x1F5E JUMP JUMPDEST PUSH2 0x440 PUSH8 0x292D9CE1AC9508E7 PUSH1 0xC0 SHL PUSH2 0x1F5E JUMP JUMPDEST PUSH1 0x1 SWAP2 POP POP PUSH2 0x49F JUMP JUMPDEST PUSH2 0x45E PUSH8 0x3417AA66A8C53DE9 PUSH1 0xC0 SHL PUSH2 0x1F5E JUMP JUMPDEST DUP1 DUP1 PUSH2 0x469 SWAP1 PUSH2 0x2B66 JUMP JUMPDEST SWAP2 POP POP PUSH2 0x3A6 JUMP JUMPDEST POP PUSH2 0x486 PUSH8 0x27DAE45036A6E6EB PUSH1 0xC0 SHL PUSH2 0x1F5E JUMP JUMPDEST PUSH2 0x49A PUSH8 0xEF8AFE7BC8A33A83 PUSH1 0xC0 SHL PUSH2 0x1F5E JUMP JUMPDEST PUSH1 0x0 SWAP1 POP JUMPDEST SWAP3 SWAP2 POP POP JUMP JUMPDEST PUSH2 0x4B9 PUSH8 0xBDD7F2EE5DE7738A PUSH1 0xC0 SHL PUSH2 0x1F5E JUMP JUMPDEST PUSH2 0x4CD PUSH8 0xC8CBAC8358FC41E6 PUSH1 0xC0 SHL PUSH2 0x1F61 JUMP JUMPDEST PUSH2 0x4E1 PUSH8 0x7298E4FDE750DB0B PUSH1 0xC0 SHL PUSH2 0x1F61 JUMP JUMPDEST PUSH2 0x4F5 PUSH8 0xB452CBEB6AB17131 PUSH1 0xC0 SHL PUSH2 0x1F61 JUMP JUMPDEST PUSH2 0x509 PUSH8 0x6B92DED8E4619157 PUSH1 0xC0 SHL PUSH2 0x1F61 JUMP JUMPDEST PUSH1 0x0 DUP1 SLOAD SWAP1 PUSH2 0x100 EXP SWAP1 DIV PUSH20 0xFFFFFFFFFFFFFFFFFFFFFFFFFFFFFFFFFFFFFFFF AND PUSH20 0xFFFFFFFFFFFFFFFFFFFFFFFFFFFFFFFFFFFFFFFF AND CALLER PUSH20 0xFFFFFFFFFFFFFFFFFFFFFFFFFFFFFFFFFFFFFFFF AND EQ PUSH2 0x597 JUMPI PUSH1 0x40 MLOAD PUSH32 0x8C379A000000000000000000000000000000000000000000000000000000000 DUP2 MSTORE PUSH1 0x4 ADD PUSH2 0x58E SWAP1 PUSH2 0x2C3B JUMP JUMPDEST PUSH1 0x40 MLOAD DUP1 SWAP2 SUB SWAP1 REVERT JUMPDEST PUSH2 0x5AB PUSH8 0xA5A73C2F0610D4D2 PUSH1 0xC0 SHL PUSH2 0x1F61 JUMP JUMPDEST PUSH2 0x5BF PUSH8 0x922AC618D7AAAB82 PUSH1 0xC0 SHL PUSH2 0x1F61 JUMP JUMPDEST PUSH2 0x5D3 PUSH8 0x3177104F1E7330CD PUSH1 0xC0 SHL PUSH2 0x1F5E JUMP JUMPDEST PUSH2 0x5E7 PUSH8 0x382F189193ACD1D5 PUSH1 0xC0 SHL PUSH2 0x1F5E JUMP JUMPDEST PUSH2 0x5FB PUSH8 0x46BE9242211C3D0E PUSH1 0xC0 SHL PUSH2 0x1F5E JUMP JUMPDEST PUSH2 0x60F PUSH8 0x824E2E04D5CA1C63 PUSH1 0xC0 SHL PUSH2 0x1F5E JUMP JUMPDEST PUSH1 0x0 PUSH1 0x3 DUP1 SLOAD SWAP1 POP EQ ISZERO PUSH2 0x65E JUMPI PUSH2 0x631 PUSH8 0x1EEB7FE70F29B94B PUSH1 0xC0 SHL PUSH2 0x1F5E JUMP JUMPDEST PUSH2 0x645 PUSH8 0x87FB95F4A2F66691 PUSH1 0xC0 SHL PUSH2 0x1F5E JUMP JUMPDEST PUSH2 0x659 PUSH8 0xD86092EFC26640E0 PUSH1 0xC0 SHL PUSH2 0x1F5E JUMP JUMPDEST PUSH2 0x986 JUMP JUMPDEST PUSH2 0x672 PUSH8 0xFF6B6AE0B01B0F43 PUSH1 0xC0 SHL PUSH2 0x1F5E JUMP JUMPDEST PUSH2 0x686 PUSH8 0x69E6D006FF22D989 PUSH1 0xC0 SHL PUSH2 0x1F5E JUMP JUMPDEST PUSH2 0x69A PUSH8 0x6086AED0921974DD PUSH1 0xC0 SHL PUSH2 0x1F5E JUMP JUMPDEST PUSH1 0x0 JUMPDEST PUSH1 0x1 PUSH1 0x3 DUP1 SLOAD SWAP1 POP PUSH2 0x6AF SWAP2 SWAP1 PUSH2 0x2B32 JUMP JUMPDEST DUP2 GT PUSH2 0x765 JUMPI PUSH2 0x6C9 PUSH8 0x72F6F4652D91D09F PUSH1 0xC0 SHL PUSH2 0x1F5E JUMP JUMPDEST PUSH1 0x1 PUSH1 0x0 PUSH1 0x3 DUP4 DUP2 SLOAD DUP2 LT PUSH2 0x6E1 JUMPI PUSH2 0x6E0 PUSH2 0x2BAF JUMP JUMPDEST JUMPDEST SWAP1 PUSH1 0x0 MSTORE PUSH1 0x20 PUSH1 0x0 KECCAK256 ADD PUSH1 0x0 SWAP1 SLOAD SWAP1 PUSH2 0x100 EXP SWAP1 DIV PUSH20 0xFFFFFFFFFFFFFFFFFFFFFFFFFFFFFFFFFFFFFFFF AND PUSH20 0xFFFFFFFFFFFFFFFFFFFFFFFFFFFFFFFFFFFFFFFF AND PUSH20 0xFFFFFFFFFFFFFFFFFFFFFFFFFFFFFFFFFFFFFFFF AND DUP2 MSTORE PUSH1 0x20 ADD SWAP1 DUP2 MSTORE PUSH1 0x20 ADD PUSH1 0x0 KECCAK256 PUSH1 0x0 PUSH2 0x752 SWAP2 SWAP1 PUSH2 0x26BB JUMP JUMPDEST DUP1 DUP1 PUSH2 0x75D SWAP1 PUSH2 0x2B66 JUMP JUMPDEST SWAP2 POP POP PUSH2 0x69D JUMP JUMPDEST POP PUSH2 0x77A PUSH8 0xD96724D22D799ED0 PUSH1 0xC0 SHL PUSH2 0x1F5E JUMP JUMPDEST PUSH1 0x3 PUSH1 0x0 PUSH2 0x788 SWAP2 SWAP1 PUSH2 0x26DC JUMP JUMPDEST PUSH2 0x79C PUSH8 0x495C596544380AF4 PUSH1 0xC0 SHL PUSH2 0x1F5E JUMP JUMPDEST PUSH2 0x7B0 PUSH8 0xD458B9043CA21688 PUSH1 0xC0 SHL PUSH2 0x1F5E JUMP JUMPDEST PUSH1 0x0 JUMPDEST PUSH1 0x4 SLOAD DUP2 GT PUSH2 0x984 JUMPI PUSH2 0x7D0 PUSH8 0xD7A590A941C0704E PUSH1 0xC0 SHL PUSH2 0x1F5E JUMP JUMPDEST PUSH2 0x7E4 PUSH8 0x8B00961562058A9E PUSH1 0xC0 SHL PUSH2 0x1F5E JUMP JUMPDEST PUSH1 0x0 PUSH1 0x2 PUSH1 0x0 DUP4 DUP2 MSTORE PUSH1 0x20 ADD SWAP1 DUP2 MSTORE PUSH1 0x20 ADD PUSH1 0x0 KECCAK256 PUSH1 0x0 SWAP1 SLOAD SWAP1 PUSH2 0x100 EXP SWAP1 DIV PUSH20 0xFFFFFFFFFFFFFFFFFFFFFFFFFFFFFFFFFFFFFFFF AND SWAP1 POP PUSH2 0x830 PUSH8 0xED6198810F7CF754 PUSH1 0xC0 SHL PUSH2 0x1F5E JUMP JUMPDEST PUSH2 0x844 PUSH8 0x13905CD011371309 PUSH1 0xC0 SHL PUSH2 0x1F5E JUMP JUMPDEST PUSH1 0x0 PUSH20 0xFFFFFFFFFFFFFFFFFFFFFFFFFFFFFFFFFFFFFFFF AND DUP2 PUSH20 0xFFFFFFFFFFFFFFFFFFFFFFFFFFFFFFFFFFFFFFFF AND EQ PUSH2 0x95B JUMPI PUSH2 0x88C PUSH8 0x85005A789B974E9 PUSH1 0xC0 SHL PUSH2 0x1F5E JUMP JUMPDEST PUSH2 0x8A0 PUSH8 0xE236F8A20ED3F09 PUSH1 0xC0 SHL PUSH2 0x1F5E JUMP JUMPDEST PUSH1 0x0 PUSH1 0x2 PUSH1 0x0 DUP5 DUP2 MSTORE PUSH1 0x20 ADD SWAP1 DUP2 MSTORE PUSH1 0x20 ADD PUSH1 0x0 KECCAK256 PUSH1 0x0 PUSH2 0x100 EXP DUP2 SLOAD DUP2 PUSH20 0xFFFFFFFFFFFFFFFFFFFFFFFFFFFFFFFFFFFFFFFF MUL NOT AND SWAP1 DUP4 PUSH20 0xFFFFFFFFFFFFFFFFFFFFFFFFFFFFFFFFFFFFFFFF AND MUL OR SWAP1 SSTORE POP PUSH2 0x907 PUSH8 0x15293A6D12B5DE7F PUSH1 0xC0 SHL PUSH2 0x1F5E JUMP JUMPDEST PUSH2 0x91B PUSH8 0x60D16E9FF56E8EC5 PUSH1 0xC0 SHL PUSH2 0x1F5E JUMP JUMPDEST PUSH32 0xA3BE76334976C368B4726800022E50475912FA6A8DC117941A00E82E1FC50F25 DUP3 DUP3 CALLER PUSH1 0x40 MLOAD PUSH2 0x94E SWAP4 SWAP3 SWAP2 SWAP1 PUSH2 0x2C5B JUMP JUMPDEST PUSH1 0x40 MLOAD DUP1 SWAP2 SUB SWAP1 LOG1 PUSH2 0x970 JUMP JUMPDEST PUSH2 0x96F PUSH8 0x23AC5DB09CB0E270 PUSH1 0xC0 SHL PUSH2 0x1F5E JUMP JUMPDEST JUMPDEST POP DUP1 DUP1 PUSH2 0x97C SWAP1 PUSH2 0x2B66 JUMP JUMPDEST SWAP2 POP POP PUSH2 0x7B3 JUMP JUMPDEST POP JUMPDEST JUMP JUMPDEST PUSH1 0x0 PUSH2 0x99E PUSH8 0xB0E568373FAD74D6 PUSH1 0xC0 SHL PUSH2 0x1F61 JUMP JUMPDEST PUSH2 0x9B2 PUSH8 0xFB99474C7207F134 PUSH1 0xC0 SHL PUSH2 0x1F61 JUMP JUMPDEST PUSH2 0x9C6 PUSH8 0x12DD4788531A5390 PUSH1 0xC0 SHL PUSH2 0x1F61 JUMP JUMPDEST PUSH1 0x0 DUP1 SLOAD SWAP1 PUSH2 0x100 EXP SWAP1 DIV PUSH20 0xFFFFFFFFFFFFFFFFFFFFFFFFFFFFFFFFFFFFFFFF AND SWAP1 POP SWAP1 JUMP JUMPDEST PUSH2 0xA00 PUSH8 0x7F21BD12EB98F9C5 PUSH1 0xC0 SHL PUSH2 0x1F5E JUMP JUMPDEST PUSH2 0xA14 PUSH8 0x8D0FC171C0F45151 PUSH1 0xC0 SHL PUSH2 0x1F5E JUMP JUMPDEST PUSH2 0xA28 PUSH8 0xE64703FBA2BEAA85 PUSH1 0xC0 SHL PUSH2 0x1F5E JUMP JUMPDEST PUSH2 0xA3C PUSH8 0x10A6B4C0D6C8CEFA PUSH1 0xC0 SHL PUSH2 0x1F5E JUMP JUMPDEST PUSH1 0x4 SLOAD DUP3 DUP3 SWAP1 POP GT ISZERO PUSH2 0xA84 JUMPI PUSH1 0x40 MLOAD PUSH32 0x8C379A000000000000000000000000000000000000000000000000000000000 DUP2 MSTORE PUSH1 0x4 ADD PUSH2 0xA7B SWAP1 PUSH2 0x2D04 JUMP JUMPDEST PUSH1 0x40 MLOAD DUP1 SWAP2 SUB SWAP1 REVERT JUMPDEST PUSH2 0xA98 PUSH8 0x2752E34F0DF375DF PUSH1 0xC0 SHL PUSH2 0x1F5E JUMP JUMPDEST PUSH2 0xAAC PUSH8 0x1C8FFCF1825A856F PUSH1 0xC0 SHL PUSH2 0x1F5E JUMP JUMPDEST PUSH2 0xAC0 PUSH8 0x8B4BCE7C177E4ECA PUSH1 0xC0 SHL PUSH2 0x1F5E JUMP JUMPDEST PUSH1 0x0 JUMPDEST PUSH1 0x1 DUP4 DUP4 SWAP1 POP PUSH2 0xAD3 SWAP2 SWAP1 PUSH2 0x2B32 JUMP JUMPDEST DUP2 GT PUSH2 0xEA6 JUMPI PUSH2 0xAED PUSH8 0x6205B9B2ED160D62 PUSH1 0xC0 SHL PUSH2 0x1F5E JUMP JUMPDEST PUSH2 0xB01 PUSH8 0xE09271D7CBD3DCDB PUSH1 0xC0 SHL PUSH2 0x1F5E JUMP JUMPDEST PUSH1 0x0 DUP4 DUP4 DUP4 DUP2 DUP2 LT PUSH2 0xB16 JUMPI PUSH2 0xB15 PUSH2 0x2BAF JUMP JUMPDEST JUMPDEST SWAP1 POP PUSH1 0x20 MUL ADD CALLDATALOAD SWAP1 POP PUSH2 0xB33 PUSH8 0xD045D931595083A0 PUSH1 0xC0 SHL PUSH2 0x1F5E JUMP JUMPDEST PUSH2 0xB47 PUSH8 0xF6B8EF807BB87BF4 PUSH1 0xC0 SHL PUSH2 0x1F5E JUMP JUMPDEST PUSH2 0xB5B PUSH8 0x3B2FCE12BFF4B445 PUSH1 0xC0 SHL PUSH2 0x1F5E JUMP JUMPDEST PUSH1 0x1 PUSH1 0x4 SLOAD PUSH2 0xB6A SWAP2 SWAP1 PUSH2 0x2B32 JUMP JUMPDEST DUP2 GT ISZERO PUSH2 0xBAC JUMPI PUSH1 0x40 MLOAD PUSH32 0x8C379A000000000000000000000000000000000000000000000000000000000 DUP2 MSTORE PUSH1 0x4 ADD PUSH2 0xBA3 SWAP1 PUSH2 0x2D70 JUMP JUMPDEST PUSH1 0x40 MLOAD DUP1 SWAP2 SUB SWAP1 REVERT JUMPDEST PUSH2 0xBC0 PUSH8 0xDF4C78BCE94ABFEB PUSH1 0xC0 SHL PUSH2 0x1F5E JUMP JUMPDEST PUSH2 0xBD4 PUSH8 0xA7108E03FFB21A83 PUSH1 0xC0 SHL PUSH2 0x1F5E JUMP JUMPDEST PUSH2 0xBE8 PUSH8 0xFD1E783828A1E167 PUSH1 0xC0 SHL PUSH2 0x1F5E JUMP JUMPDEST PUSH2 0xBFC PUSH8 0xA8324968E76A9C4F PUSH1 0xC0 SHL PUSH2 0x1F5E JUMP JUMPDEST PUSH1 0x0 PUSH20 0xFFFFFFFFFFFFFFFFFFFFFFFFFFFFFFFFFFFFFFFF AND PUSH1 0x2 PUSH1 0x0 DUP4 DUP2 MSTORE PUSH1 0x20 ADD SWAP1 DUP2 MSTORE PUSH1 0x20 ADD PUSH1 0x0 KECCAK256 PUSH1 0x0 SWAP1 SLOAD SWAP1 PUSH2 0x100 EXP SWAP1 DIV PUSH20 0xFFFFFFFFFFFFFFFFFFFFFFFFFFFFFFFFFFFFFFFF AND PUSH20 0xFFFFFFFFFFFFFFFFFFFFFFFFFFFFFFFFFFFFFFFF AND EQ PUSH2 0xC9E JUMPI PUSH1 0x40 MLOAD PUSH32 0x8C379A000000000000000000000000000000000000000000000000000000000 DUP2 MSTORE PUSH1 0x4 ADD PUSH2 0xC95 SWAP1 PUSH2 0x2E28 JUMP JUMPDEST PUSH1 0x40 MLOAD DUP1 SWAP2 SUB SWAP1 REVERT JUMPDEST PUSH2 0xCB2 PUSH8 0x7BFF0D1839C345D9 PUSH1 0xC0 SHL PUSH2 0x1F5E JUMP JUMPDEST PUSH2 0xCC6 PUSH8 0x8A9CEA6C3F172A4D PUSH1 0xC0 SHL PUSH2 0x1F5E JUMP JUMPDEST PUSH2 0xCDA PUSH8 0x9E0D4784B12444A2 PUSH1 0xC0 SHL PUSH2 0x1F5E JUMP JUMPDEST PUSH1 0x3 CALLER SWAP1 DUP1 PUSH1 0x1 DUP2 SLOAD ADD DUP1 DUP3 SSTORE DUP1 SWAP2 POP POP PUSH1 0x1 SWAP1 SUB SWAP1 PUSH1 0x0 MSTORE PUSH1 0x20 PUSH1 0x0 KECCAK256 ADD PUSH1 0x0 SWAP1 SWAP2 SWAP1 SWAP2 SWAP1 SWAP2 PUSH2 0x100 EXP DUP2 SLOAD DUP2 PUSH20 0xFFFFFFFFFFFFFFFFFFFFFFFFFFFFFFFFFFFFFFFF MUL NOT AND SWAP1 DUP4 PUSH20 0xFFFFFFFFFFFFFFFFFFFFFFFFFFFFFFFFFFFFFFFF AND MUL OR SWAP1 SSTORE POP PUSH2 0xD51 PUSH8 0xF8638FD930B97247 PUSH1 0xC0 SHL PUSH2 0x1F5E JUMP JUMPDEST PUSH2 0xD65 PUSH8 0xAD7CBB557A0413C9 PUSH1 0xC0 SHL PUSH2 0x1F5E JUMP JUMPDEST PUSH1 0x1 PUSH1 0x0 CALLER PUSH20 0xFFFFFFFFFFFFFFFFFFFFFFFFFFFFFFFFFFFFFFFF AND PUSH20 0xFFFFFFFFFFFFFFFFFFFFFFFFFFFFFFFFFFFFFFFF AND DUP2 MSTORE PUSH1 0x20 ADD SWAP1 DUP2 MSTORE PUSH1 0x20 ADD PUSH1 0x0 KECCAK256 DUP2 SWAP1 DUP1 PUSH1 0x1 DUP2 SLOAD ADD DUP1 DUP3 SSTORE DUP1 SWAP2 POP POP PUSH1 0x1 SWAP1 SUB SWAP1 PUSH1 0x0 MSTORE PUSH1 0x20 PUSH1 0x0 KECCAK256 ADD PUSH1 0x0 SWAP1 SWAP2 SWAP1 SWAP2 SWAP1 SWAP2 POP SSTORE PUSH2 0xDDF PUSH8 0xD97D25AB6915A258 PUSH1 0xC0 SHL PUSH2 0x1F5E JUMP JUMPDEST CALLER PUSH1 0x2 PUSH1 0x0 DUP4 DUP2 MSTORE PUSH1 0x20 ADD SWAP1 DUP2 MSTORE PUSH1 0x20 ADD PUSH1 0x0 KECCAK256 PUSH1 0x0 PUSH2 0x100 EXP DUP2 SLOAD DUP2 PUSH20 0xFFFFFFFFFFFFFFFFFFFFFFFFFFFFFFFFFFFFFFFF MUL NOT AND SWAP1 DUP4 PUSH20 0xFFFFFFFFFFFFFFFFFFFFFFFFFFFFFFFFFFFFFFFF AND MUL OR SWAP1 SSTORE POP PUSH2 0xE45 PUSH8 0x5B530154C667DDE1 PUSH1 0xC0 SHL PUSH2 0x1F5E JUMP JUMPDEST PUSH2 0xE59 PUSH8 0xF8D3D383AF68888A PUSH1 0xC0 SHL PUSH2 0x1F5E JUMP JUMPDEST PUSH32 0x672B59F7AE6F9CE32310639926243C8A7B423F2C4BE780B7F555215A737AF776 DUP2 CALLER PUSH1 0x40 MLOAD PUSH2 0xE8A SWAP3 SWAP2 SWAP1 PUSH2 0x2E48 JUMP JUMPDEST PUSH1 0x40 MLOAD DUP1 SWAP2 SUB SWAP1 LOG1 POP DUP1 DUP1 PUSH2 0xE9E SWAP1 PUSH2 0x2B66 JUMP JUMPDEST SWAP2 POP POP PUSH2 0xAC3 JUMP JUMPDEST POP POP POP JUMP JUMPDEST PUSH2 0xEBF PUSH8 0x6139B28D292D6723 PUSH1 0xC0 SHL PUSH2 0x1F61 JUMP JUMPDEST PUSH2 0xED3 PUSH8 0xC8CBAC8358FC41E6 PUSH1 0xC0 SHL PUSH2 0x1F61 JUMP JUMPDEST PUSH2 0xEE7 PUSH8 0x7298E4FDE750DB0B PUSH1 0xC0 SHL PUSH2 0x1F61 JUMP JUMPDEST PUSH2 0xEFB PUSH8 0xB452CBEB6AB17131 PUSH1 0xC0 SHL PUSH2 0x1F61 JUMP JUMPDEST PUSH2 0xF0F PUSH8 0x6B92DED8E4619157 PUSH1 0xC0 SHL PUSH2 0x1F61 JUMP JUMPDEST PUSH1 0x0 DUP1 SLOAD SWAP1 PUSH2 0x100 EXP SWAP1 DIV PUSH20 0xFFFFFFFFFFFFFFFFFFFFFFFFFFFFFFFFFFFFFFFF AND PUSH20 0xFFFFFFFFFFFFFFFFFFFFFFFFFFFFFFFFFFFFFFFF AND CALLER PUSH20 0xFFFFFFFFFFFFFFFFFFFFFFFFFFFFFFFFFFFFFFFF AND EQ PUSH2 0xF9D JUMPI PUSH1 0x40 MLOAD PUSH32 0x8C379A000000000000000000000000000000000000000000000000000000000 DUP2 MSTORE PUSH1 0x4 ADD PUSH2 0xF94 SWAP1 PUSH2 0x2C3B JUMP JUMPDEST PUSH1 0x40 MLOAD DUP1 SWAP2 SUB SWAP1 REVERT JUMPDEST PUSH2 0xFB1 PUSH8 0xA5A73C2F0610D4D2 PUSH1 0xC0 SHL PUSH2 0x1F61 JUMP JUMPDEST PUSH2 0xFC5 PUSH8 0x922AC618D7AAAB82 PUSH1 0xC0 SHL PUSH2 0x1F61 JUMP JUMPDEST PUSH2 0xFD9 PUSH8 0x5F8B028F9EDD7DB6 PUSH1 0xC0 SHL PUSH2 0x1F61 JUMP JUMPDEST PUSH2 0xFED PUSH8 0x8B11FB289D56593C PUSH1 0xC0 SHL PUSH2 0x1F61 JUMP JUMPDEST PUSH2 0x1001 PUSH8 0x445F245CB1BCA281 PUSH1 0xC0 SHL PUSH2 0x1F61 JUMP JUMPDEST PUSH2 0x1015 PUSH8 0xB7BFF48B7C2C06AB PUSH1 0xC0 SHL PUSH2 0x1F61 JUMP JUMPDEST DUP1 PUSH20 0xFFFFFFFFFFFFFFFFFFFFFFFFFFFFFFFFFFFFFFFF AND PUSH1 0x0 DUP1 SLOAD SWAP1 PUSH2 0x100 EXP SWAP1 DIV PUSH20 0xFFFFFFFFFFFFFFFFFFFFFFFFFFFFFFFFFFFFFFFF AND PUSH20 0xFFFFFFFFFFFFFFFFFFFFFFFFFFFFFFFFFFFFFFFF AND PUSH32 0x342827C97908E5E2F71151C08502A66D44B6F758E3AC2F1DE95F02EB95F0A735 PUSH1 0x40 MLOAD PUSH1 0x40 MLOAD DUP1 SWAP2 SUB SWAP1 LOG3 PUSH2 0x10A3 PUSH8 0x6AA84991B9856E9E PUSH1 0xC0 SHL PUSH2 0x1F61 JUMP JUMPDEST DUP1 PUSH1 0x0 DUP1 PUSH2 0x100 EXP DUP2 SLOAD DUP2 PUSH20 0xFFFFFFFFFFFFFFFFFFFFFFFFFFFFFFFFFFFFFFFF MUL NOT AND SWAP1 DUP4 PUSH20 0xFFFFFFFFFFFFFFFFFFFFFFFFFFFFFFFFFFFFFFFF AND MUL OR SWAP1 SSTORE POP POP JUMP JUMPDEST PUSH2 0x10FA PUSH8 0xAC874EB266406D50 PUSH1 0xC0 SHL PUSH2 0x1F5E JUMP JUMPDEST PUSH2 0x110E PUSH8 0xC7430DFE22612ED8 PUSH1 0xC0 SHL PUSH2 0x1F5E JUMP JUMPDEST PUSH2 0x1122 PUSH8 0x58A2CC956D4188D5 PUSH1 0xC0 SHL PUSH2 0x1F5E JUMP JUMPDEST PUSH2 0x1136 PUSH8 0x5DBC908389702679 PUSH1 0xC0 SHL PUSH2 0x1F5E JUMP JUMPDEST PUSH1 0x4 SLOAD DUP3 DUP3 SWAP1 POP GT ISZERO PUSH2 0x117E JUMPI PUSH1 0x40 MLOAD PUSH32 0x8C379A000000000000000000000000000000000000000000000000000000000 DUP2 MSTORE PUSH1 0x4 ADD PUSH2 0x1175 SWAP1 PUSH2 0x2EE3 JUMP JUMPDEST PUSH1 0x40 MLOAD DUP1 SWAP2 SUB SWAP1 REVERT JUMPDEST PUSH2 0x1192 PUSH8 0x201DD51417D9A8EE PUSH1 0xC0 SHL PUSH2 0x1F5E JUMP JUMPDEST PUSH2 0x11A6 PUSH8 0x9CE1782F2FD6B47C PUSH1 0xC0 SHL PUSH2 0x1F5E JUMP JUMPDEST PUSH2 0x11BA PUSH8 0xE9C88B0BFE71DB2 PUSH1 0xC0 SHL PUSH2 0x1F5E JUMP JUMPDEST PUSH1 0x0 JUMPDEST PUSH1 0x1 DUP4 DUP4 SWAP1 POP PUSH2 0x11CD SWAP2 SWAP1 PUSH2 0x2B32 JUMP JUMPDEST DUP2 GT PUSH2 0x1600 JUMPI PUSH2 0x11E7 PUSH8 0x25F8F541E4D6D270 PUSH1 0xC0 SHL PUSH2 0x1F5E JUMP JUMPDEST PUSH2 0x11FB PUSH8 0xADC8E639D9B37766 PUSH1 0xC0 SHL PUSH2 0x1F5E JUMP JUMPDEST PUSH1 0x0 DUP4 DUP4 DUP4 DUP2 DUP2 LT PUSH2 0x1210 JUMPI PUSH2 0x120F PUSH2 0x2BAF JUMP JUMPDEST JUMPDEST SWAP1 POP PUSH1 0x20 MUL ADD CALLDATALOAD SWAP1 POP PUSH2 0x122D PUSH8 0xCD022ACC83107689 PUSH1 0xC0 SHL PUSH2 0x1F5E JUMP JUMPDEST PUSH2 0x1241 PUSH8 0xC47C462227FDD454 PUSH1 0xC0 SHL PUSH2 0x1F5E JUMP JUMPDEST PUSH2 0x1255 PUSH8 0xB64F1B67871EA335 PUSH1 0xC0 SHL PUSH2 0x1F5E JUMP JUMPDEST PUSH1 0x1 PUSH1 0x4 SLOAD PUSH2 0x1264 SWAP2 SWAP1 PUSH2 0x2B32 JUMP JUMPDEST DUP2 GT ISZERO PUSH2 0x12A6 JUMPI PUSH1 0x40 MLOAD PUSH32 0x8C379A000000000000000000000000000000000000000000000000000000000 DUP2 MSTORE PUSH1 0x4 ADD PUSH2 0x129D SWAP1 PUSH2 0x2D70 JUMP JUMPDEST PUSH1 0x40 MLOAD DUP1 SWAP2 SUB SWAP1 REVERT JUMPDEST PUSH2 0x12BA PUSH8 0xA014A8457C742FE3 PUSH1 0xC0 SHL PUSH2 0x1F5E JUMP JUMPDEST PUSH2 0x12CE PUSH8 0xA9C63FD99B7CE433 PUSH1 0xC0 SHL PUSH2 0x1F5E JUMP JUMPDEST PUSH2 0x12E2 PUSH8 0xF6D998785915D3DF PUSH1 0xC0 SHL PUSH2 0x1F5E JUMP JUMPDEST PUSH2 0x12F6 PUSH8 0x222927A0445B0A6D PUSH1 0xC0 SHL PUSH2 0x1F5E JUMP JUMPDEST PUSH2 0x138D DUP2 PUSH1 0x1 PUSH1 0x0 CALLER PUSH20 0xFFFFFFFFFFFFFFFFFFFFFFFFFFFFFFFFFFFFFFFF AND PUSH20 0xFFFFFFFFFFFFFFFFFFFFFFFFFFFFFFFFFFFFFFFF AND DUP2 MSTORE PUSH1 0x20 ADD SWAP1 DUP2 MSTORE PUSH1 0x20 ADD PUSH1 0x0 KECCAK256 DUP1 SLOAD DUP1 PUSH1 0x20 MUL PUSH1 0x20 ADD PUSH1 0x40 MLOAD SWAP1 DUP2 ADD PUSH1 0x40 MSTORE DUP1 SWAP3 SWAP2 SWAP1 DUP2 DUP2 MSTORE PUSH1 0x20 ADD DUP3 DUP1 SLOAD DUP1 ISZERO PUSH2 0x1383 JUMPI PUSH1 0x20 MUL DUP3 ADD SWAP2 SWAP1 PUSH1 0x0 MSTORE PUSH1 0x20 PUSH1 0x0 KECCAK256 SWAP1 JUMPDEST DUP2 SLOAD DUP2 MSTORE PUSH1 0x20 ADD SWAP1 PUSH1 0x1 ADD SWAP1 DUP1 DUP4 GT PUSH2 0x136F JUMPI JUMPDEST POP POP POP POP POP PUSH2 0x365 JUMP JUMPDEST PUSH2 0x13CC JUMPI PUSH1 0x40 MLOAD PUSH32 0x8C379A000000000000000000000000000000000000000000000000000000000 DUP2 MSTORE PUSH1 0x4 ADD PUSH2 0x13C3 SWAP1 PUSH2 0x2F75 JUMP JUMPDEST PUSH1 0x40 MLOAD DUP1 SWAP2 SUB SWAP1 REVERT JUMPDEST PUSH2 0x13E0 PUSH8 0xA68899188C4A2E38 PUSH1 0xC0 SHL PUSH2 0x1F5E JUMP JUMPDEST PUSH2 0x13F4 PUSH8 0x593887961F737EB9 PUSH1 0xC0 SHL PUSH2 0x1F5E JUMP JUMPDEST PUSH2 0x1408 PUSH8 0x298931136FDDE24 PUSH1 0xC0 SHL PUSH2 0x1F5E JUMP JUMPDEST PUSH2 0x1450 PUSH1 0x1 PUSH1 0x0 CALLER PUSH20 0xFFFFFFFFFFFFFFFFFFFFFFFFFFFFFFFFFFFFFFFF AND PUSH20 0xFFFFFFFFFFFFFFFFFFFFFFFFFFFFFFFFFFFFFFFF AND DUP2 MSTORE PUSH1 0x20 ADD SWAP1 DUP2 MSTORE PUSH1 0x20 ADD PUSH1 0x0 KECCAK256 DUP3 PUSH2 0x1F64 JUMP JUMPDEST PUSH2 0x1464 PUSH8 0xB43CF6C237D12323 PUSH1 0xC0 SHL PUSH2 0x1F5E JUMP JUMPDEST PUSH2 0x1478 PUSH8 0xD999BA80551E01FA PUSH1 0xC0 SHL PUSH2 0x1F5E JUMP JUMPDEST PUSH1 0x0 PUSH1 0x1 PUSH1 0x0 CALLER PUSH20 0xFFFFFFFFFFFFFFFFFFFFFFFFFFFFFFFFFFFFFFFF AND PUSH20 0xFFFFFFFFFFFFFFFFFFFFFFFFFFFFFFFFFFFFFFFF AND DUP2 MSTORE PUSH1 0x20 ADD SWAP1 DUP2 MSTORE PUSH1 0x20 ADD PUSH1 0x0 KECCAK256 DUP1 SLOAD SWAP1 POP EQ ISZERO PUSH2 0x150D JUMPI PUSH2 0x14D7 PUSH8 0xA25DF037120A8B2D PUSH1 0xC0 SHL PUSH2 0x1F5E JUMP JUMPDEST PUSH2 0x14EB PUSH8 0x166E7E6921840C2 PUSH1 0xC0 SHL PUSH2 0x1F5E JUMP JUMPDEST PUSH2 0x14FF PUSH8 0x93283D8049CF7CCA PUSH1 0xC0 SHL PUSH2 0x1F5E JUMP JUMPDEST PUSH2 0x1508 CALLER PUSH2 0x1FE5 JUMP JUMPDEST PUSH2 0x1522 JUMP JUMPDEST PUSH2 0x1521 PUSH8 0x4D52DCA9B48DF435 PUSH1 0xC0 SHL PUSH2 0x1F5E JUMP JUMPDEST JUMPDEST PUSH2 0x1536 PUSH8 0x44A2AE20ACAE0A5B PUSH1 0xC0 SHL PUSH2 0x1F5E JUMP JUMPDEST PUSH1 0x0 PUSH1 0x2 PUSH1 0x0 DUP4 DUP2 MSTORE PUSH1 0x20 ADD SWAP1 DUP2 MSTORE PUSH1 0x20 ADD PUSH1 0x0 KECCAK256 PUSH1 0x0 PUSH2 0x100 EXP DUP2 SLOAD DUP2 PUSH20 0xFFFFFFFFFFFFFFFFFFFFFFFFFFFFFFFFFFFFFFFF MUL NOT AND SWAP1 DUP4 PUSH20 0xFFFFFFFFFFFFFFFFFFFFFFFFFFFFFFFFFFFFFFFF AND MUL OR SWAP1 SSTORE POP PUSH2 0x159D PUSH8 0xCC90F1C62C6098AE PUSH1 0xC0 SHL PUSH2 0x1F5E JUMP JUMPDEST PUSH2 0x15B1 PUSH8 0xB3D39D4C7DBB6690 PUSH1 0xC0 SHL PUSH2 0x1F5E JUMP JUMPDEST PUSH32 0xA3BE76334976C368B4726800022E50475912FA6A8DC117941A00E82E1FC50F25 DUP2 CALLER CALLER PUSH1 0x40 MLOAD PUSH2 0x15E4 SWAP4 SWAP3 SWAP2 SWAP1 PUSH2 0x2C5B JUMP JUMPDEST PUSH1 0x40 MLOAD DUP1 SWAP2 SUB SWAP1 LOG1 POP DUP1 DUP1 PUSH2 0x15F8 SWAP1 PUSH2 0x2B66 JUMP JUMPDEST SWAP2 POP POP PUSH2 0x11BD JUMP JUMPDEST POP POP POP JUMP JUMPDEST PUSH2 0x1619 PUSH8 0x20DF01D1CB2BBB87 PUSH1 0xC0 SHL PUSH2 0x1F5E JUMP JUMPDEST PUSH2 0x162D PUSH8 0xC8CBAC8358FC41E6 PUSH1 0xC0 SHL PUSH2 0x1F61 JUMP JUMPDEST PUSH2 0x1641 PUSH8 0x7298E4FDE750DB0B PUSH1 0xC0 SHL PUSH2 0x1F61 JUMP JUMPDEST PUSH2 0x1655 PUSH8 0xB452CBEB6AB17131 PUSH1 0xC0 SHL PUSH2 0x1F61 JUMP JUMPDEST PUSH2 0x1669 PUSH8 0x6B92DED8E4619157 PUSH1 0xC0 SHL PUSH2 0x1F61 JUMP JUMPDEST PUSH1 0x0 DUP1 SLOAD SWAP1 PUSH2 0x100 EXP SWAP1 DIV PUSH20 0xFFFFFFFFFFFFFFFFFFFFFFFFFFFFFFFFFFFFFFFF AND PUSH20 0xFFFFFFFFFFFFFFFFFFFFFFFFFFFFFFFFFFFFFFFF AND CALLER PUSH20 0xFFFFFFFFFFFFFFFFFFFFFFFFFFFFFFFFFFFFFFFF AND EQ PUSH2 0x16F7 JUMPI PUSH1 0x40 MLOAD PUSH32 0x8C379A000000000000000000000000000000000000000000000000000000000 DUP2 MSTORE PUSH1 0x4 ADD PUSH2 0x16EE SWAP1 PUSH2 0x2C3B JUMP JUMPDEST PUSH1 0x40 MLOAD DUP1 SWAP2 SUB SWAP1 REVERT JUMPDEST PUSH2 0x170B PUSH8 0xA5A73C2F0610D4D2 PUSH1 0xC0 SHL PUSH2 0x1F61 JUMP JUMPDEST PUSH2 0x171F PUSH8 0x922AC618D7AAAB82 PUSH1 0xC0 SHL PUSH2 0x1F61 JUMP JUMPDEST PUSH2 0x1733 PUSH8 0xADD8D51958860DB7 PUSH1 0xC0 SHL PUSH2 0x1F5E JUMP JUMPDEST PUSH2 0x1747 PUSH8 0x1039D637FD936BCE PUSH1 0xC0 SHL PUSH2 0x1F5E JUMP JUMPDEST PUSH2 0x175B PUSH8 0xA3B427CB3584E538 PUSH1 0xC0 SHL PUSH2 0x1F5E JUMP JUMPDEST DUP1 PUSH1 0x4 PUSH1 0x0 DUP3 DUP3 SLOAD PUSH2 0x176D SWAP2 SWAP1 PUSH2 0x2F95 JUMP JUMPDEST SWAP3 POP POP DUP2 SWAP1 SSTORE POP POP JUMP JUMPDEST PUSH1 0x0 PUSH2 0x178D PUSH8 0x1742B36344E28E71 PUSH1 0xC0 SHL PUSH2 0x1F5E JUMP JUMPDEST PUSH2 0x17A1 PUSH8 0x4F427722FA72C72B PUSH1 0xC0 SHL PUSH2 0x1F5E JUMP JUMPDEST PUSH2 0x17B5 PUSH8 0x8DFCA3526F4FDD9D PUSH1 0xC0 SHL PUSH2 0x1F5E JUMP JUMPDEST PUSH1 0x4 SLOAD SWAP1 POP SWAP1 JUMP JUMPDEST PUSH2 0x17D1 PUSH8 0xD857AF5D0665FE8B PUSH1 0xC0 SHL PUSH2 0x1F5E JUMP JUMPDEST PUSH2 0x17E5 PUSH8 0xC8CBAC8358FC41E6 PUSH1 0xC0 SHL PUSH2 0x1F61 JUMP JUMPDEST PUSH2 0x17F9 PUSH8 0x7298E4FDE750DB0B PUSH1 0xC0 SHL PUSH2 0x1F61 JUMP JUMPDEST PUSH2 0x180D PUSH8 0xB452CBEB6AB17131 PUSH1 0xC0 SHL PUSH2 0x1F61 JUMP JUMPDEST PUSH2 0x1821 PUSH8 0x6B92DED8E4619157 PUSH1 0xC0 SHL PUSH2 0x1F61 JUMP JUMPDEST PUSH1 0x0 DUP1 SLOAD SWAP1 PUSH2 0x100 EXP SWAP1 DIV PUSH20 0xFFFFFFFFFFFFFFFFFFFFFFFFFFFFFFFFFFFFFFFF AND PUSH20 0xFFFFFFFFFFFFFFFFFFFFFFFFFFFFFFFFFFFFFFFF AND CALLER PUSH20 0xFFFFFFFFFFFFFFFFFFFFFFFFFFFFFFFFFFFFFFFF AND EQ PUSH2 0x18AF JUMPI PUSH1 0x40 MLOAD PUSH32 0x8C379A000000000000000000000000000000000000000000000000000000000 DUP2 MSTORE PUSH1 0x4 ADD PUSH2 0x18A6 SWAP1 PUSH2 0x2C3B JUMP JUMPDEST PUSH1 0x40 MLOAD DUP1 SWAP2 SUB SWAP1 REVERT JUMPDEST PUSH2 0x18C3 PUSH8 0xA5A73C2F0610D4D2 PUSH1 0xC0 SHL PUSH2 0x1F61 JUMP JUMPDEST PUSH2 0x18D7 PUSH8 0x922AC618D7AAAB82 PUSH1 0xC0 SHL PUSH2 0x1F61 JUMP JUMPDEST PUSH2 0x18EB PUSH8 0xA273AB0DFF6CE425 PUSH1 0xC0 SHL PUSH2 0x1F5E JUMP JUMPDEST PUSH2 0x18FF PUSH8 0x393C2661C1202DC4 PUSH1 0xC0 SHL PUSH2 0x1F5E JUMP JUMPDEST PUSH2 0x1913 PUSH8 0x44DA4F2DA19FA3C PUSH1 0xC0 SHL PUSH2 0x1F5E JUMP JUMPDEST PUSH2 0x1927 PUSH8 0x4479BB0BCA16D6B9 PUSH1 0xC0 SHL PUSH2 0x1F5E JUMP JUMPDEST PUSH2 0x193B PUSH8 0x42D4BCE50D85E3CE PUSH1 0xC0 SHL PUSH2 0x1F5E JUMP JUMPDEST PUSH1 0x4 SLOAD DUP3 DUP3 SWAP1 POP GT ISZERO PUSH2 0x1983 JUMPI PUSH1 0x40 MLOAD PUSH32 0x8C379A000000000000000000000000000000000000000000000000000000000 DUP2 MSTORE PUSH1 0x4 ADD PUSH2 0x197A SWAP1 PUSH2 0x2EE3 JUMP JUMPDEST PUSH1 0x40 MLOAD DUP1 SWAP2 SUB SWAP1 REVERT JUMPDEST PUSH2 0x1997 PUSH8 0xA67D19EAC5577DD9 PUSH1 0xC0 SHL PUSH2 0x1F5E JUMP JUMPDEST PUSH2 0x19AB PUSH8 0x487B9F6DD542FF86 PUSH1 0xC0 SHL PUSH2 0x1F5E JUMP JUMPDEST PUSH2 0x19BF PUSH8 0x27632C41D1E94B70 PUSH1 0xC0 SHL PUSH2 0x1F5E JUMP JUMPDEST PUSH1 0x0 JUMPDEST PUSH1 0x1 DUP4 DUP4 SWAP1 POP PUSH2 0x19D2 SWAP2 SWAP1 PUSH2 0x2B32 JUMP JUMPDEST DUP2 GT PUSH2 0x1EBD JUMPI PUSH2 0x19EC PUSH8 0x6358452CBAF9C332 PUSH1 0xC0 SHL PUSH2 0x1F5E JUMP JUMPDEST PUSH2 0x1A00 PUSH8 0xE0D39A026699F294 PUSH1 0xC0 SHL PUSH2 0x1F5E JUMP JUMPDEST PUSH1 0x0 DUP4 DUP4 DUP4 DUP2 DUP2 LT PUSH2 0x1A15 JUMPI PUSH2 0x1A14 PUSH2 0x2BAF JUMP JUMPDEST JUMPDEST SWAP1 POP PUSH1 0x20 MUL ADD CALLDATALOAD SWAP1 POP PUSH2 0x1A32 PUSH8 0x1945C86C0900CED9 PUSH1 0xC0 SHL PUSH2 0x1F5E JUMP JUMPDEST PUSH2 0x1A46 PUSH8 0x11776DFC22014E8D PUSH1 0xC0 SHL PUSH2 0x1F5E JUMP JUMPDEST PUSH2 0x1A5A PUSH8 0x1208368CCE6933B9 PUSH1 0xC0 SHL PUSH2 0x1F5E JUMP JUMPDEST PUSH1 0x1 PUSH1 0x4 SLOAD PUSH2 0x1A69 SWAP2 SWAP1 PUSH2 0x2B32 JUMP JUMPDEST DUP2 GT ISZERO PUSH2 0x1AAB JUMPI PUSH1 0x40 MLOAD PUSH32 0x8C379A000000000000000000000000000000000000000000000000000000000 DUP2 MSTORE PUSH1 0x4 ADD PUSH2 0x1AA2 SWAP1 PUSH2 0x2D70 JUMP JUMPDEST PUSH1 0x40 MLOAD DUP1 SWAP2 SUB SWAP1 REVERT JUMPDEST PUSH2 0x1ABF PUSH8 0xF5E1D8B7612C7FDE PUSH1 0xC0 SHL PUSH2 0x1F5E JUMP JUMPDEST PUSH2 0x1AD3 PUSH8 0x12CD701B683B652C PUSH1 0xC0 SHL PUSH2 0x1F5E JUMP JUMPDEST PUSH2 0x1AE7 PUSH8 0xA27ABD6E3CD66621 PUSH1 0xC0 SHL PUSH2 0x1F5E JUMP JUMPDEST PUSH2 0x1AFB PUSH8 0xCCF2FAEE914F3FF5 PUSH1 0xC0 SHL PUSH2 0x1F5E JUMP JUMPDEST PUSH1 0x0 PUSH20 0xFFFFFFFFFFFFFFFFFFFFFFFFFFFFFFFFFFFFFFFF AND PUSH1 0x2 PUSH1 0x0 DUP4 DUP2 MSTORE PUSH1 0x20 ADD SWAP1 DUP2 MSTORE PUSH1 0x20 ADD PUSH1 0x0 KECCAK256 PUSH1 0x0 SWAP1 SLOAD SWAP1 PUSH2 0x100 EXP SWAP1 DIV PUSH20 0xFFFFFFFFFFFFFFFFFFFFFFFFFFFFFFFFFFFFFFFF AND PUSH20 0xFFFFFFFFFFFFFFFFFFFFFFFFFFFFFFFFFFFFFFFF AND EQ ISZERO PUSH2 0x1B9E JUMPI PUSH1 0x40 MLOAD PUSH32 0x8C379A000000000000000000000000000000000000000000000000000000000 DUP2 MSTORE PUSH1 0x4 ADD PUSH2 0x1B95 SWAP1 PUSH2 0x305D JUMP JUMPDEST PUSH1 0x40 MLOAD DUP1 SWAP2 SUB SWAP1 REVERT JUMPDEST PUSH2 0x1BB2 PUSH8 0xC86D343B519419A2 PUSH1 0xC0 SHL PUSH2 0x1F5E JUMP JUMPDEST PUSH2 0x1BC6 PUSH8 0xCDB1AA871DC2F268 PUSH1 0xC0 SHL PUSH2 0x1F5E JUMP JUMPDEST PUSH2 0x1BDA PUSH8 0x233FBAFC82BA6E7D PUSH1 0xC0 SHL PUSH2 0x1F5E JUMP JUMPDEST PUSH1 0x0 PUSH1 0x2 PUSH1 0x0 DUP4 DUP2 MSTORE PUSH1 0x20 ADD SWAP1 DUP2 MSTORE PUSH1 0x20 ADD PUSH1 0x0 KECCAK256 PUSH1 0x0 SWAP1 SLOAD SWAP1 PUSH2 0x100 EXP SWAP1 DIV PUSH20 0xFFFFFFFFFFFFFFFFFFFFFFFFFFFFFFFFFFFFFFFF AND SWAP1 POP PUSH2 0x1C26 PUSH8 0x8BE0E07A4A79367E PUSH1 0xC0 SHL PUSH2 0x1F5E JUMP JUMPDEST PUSH2 0x1C3A PUSH8 0xB6E104EA78C55B12 PUSH1 0xC0 SHL PUSH2 0x1F5E JUMP JUMPDEST PUSH2 0x1C82 PUSH1 0x1 PUSH1 0x0 DUP4 PUSH20 0xFFFFFFFFFFFFFFFFFFFFFFFFFFFFFFFFFFFFFFFF AND PUSH20 0xFFFFFFFFFFFFFFFFFFFFFFFFFFFFFFFFFFFFFFFF AND DUP2 MSTORE PUSH1 0x20 ADD SWAP1 DUP2 MSTORE PUSH1 0x20 ADD PUSH1 0x0 KECCAK256 DUP4 PUSH2 0x1F64 JUMP JUMPDEST PUSH2 0x1C96 PUSH8 0x35E7503A0F5542D8 PUSH1 0xC0 SHL PUSH2 0x1F5E JUMP JUMPDEST PUSH2 0x1CAA PUSH8 0xBC4ED8BEF775ACAC PUSH1 0xC0 SHL PUSH2 0x1F5E JUMP JUMPDEST PUSH1 0x0 PUSH1 0x1 PUSH1 0x0 DUP4 PUSH20 0xFFFFFFFFFFFFFFFFFFFFFFFFFFFFFFFFFFFFFFFF AND PUSH20 0xFFFFFFFFFFFFFFFFFFFFFFFFFFFFFFFFFFFFFFFF AND DUP2 MSTORE PUSH1 0x20 ADD SWAP1 DUP2 MSTORE PUSH1 0x20 ADD PUSH1 0x0 KECCAK256 DUP1 SLOAD SWAP1 POP EQ ISZERO PUSH2 0x1D3F JUMPI PUSH2 0x1D09 PUSH8 0xB4C63D3D894B0737 PUSH1 0xC0 SHL PUSH2 0x1F5E JUMP JUMPDEST PUSH2 0x1D1D PUSH8 0xD1C76F9A1854DF96 PUSH1 0xC0 SHL PUSH2 0x1F5E JUMP JUMPDEST PUSH2 0x1D31 PUSH8 0x6D02A8E29E035F94 PUSH1 0xC0 SHL PUSH2 0x1F5E JUMP JUMPDEST PUSH2 0x1D3A DUP2 PUSH2 0x1FE5 JUMP JUMPDEST PUSH2 0x1D54 JUMP JUMPDEST PUSH2 0x1D53 PUSH8 0xFA91D1699799C0DC PUSH1 0xC0 SHL PUSH2 0x1F5E JUMP JUMPDEST JUMPDEST PUSH2 0x1D68 PUSH8 0xE08E5B071C33CA68 PUSH1 0xC0 SHL PUSH2 0x1F5E JUMP JUMPDEST PUSH2 0x1D7C PUSH8 0x7FAE012AA989A30B PUSH1 0xC0 SHL PUSH2 0x1F5E JUMP JUMPDEST PUSH1 0x0 PUSH20 0xFFFFFFFFFFFFFFFFFFFFFFFFFFFFFFFFFFFFFFFF AND DUP2 PUSH20 0xFFFFFFFFFFFFFFFFFFFFFFFFFFFFFFFFFFFFFFFF AND EQ PUSH2 0x1E93 JUMPI PUSH2 0x1DC4 PUSH8 0x44BEC608331D5729 PUSH1 0xC0 SHL PUSH2 0x1F5E JUMP JUMPDEST PUSH2 0x1DD8 PUSH8 0x4DA98387350F4746 PUSH1 0xC0 SHL PUSH2 0x1F5E JUMP JUMPDEST PUSH1 0x0 PUSH1 0x2 PUSH1 0x0 DUP5 DUP2 MSTORE PUSH1 0x20 ADD SWAP1 DUP2 MSTORE PUSH1 0x20 ADD PUSH1 0x0 KECCAK256 PUSH1 0x0 PUSH2 0x100 EXP DUP2 SLOAD DUP2 PUSH20 0xFFFFFFFFFFFFFFFFFFFFFFFFFFFFFFFFFFFFFFFF MUL NOT AND SWAP1 DUP4 PUSH20 0xFFFFFFFFFFFFFFFFFFFFFFFFFFFFFFFFFFFFFFFF AND MUL OR SWAP1 SSTORE POP PUSH2 0x1E3F PUSH8 0xED50029C7481FDEA PUSH1 0xC0 SHL PUSH2 0x1F5E JUMP JUMPDEST PUSH2 0x1E53 PUSH8 0x9AD5F6B9C611BBAC PUSH1 0xC0 SHL PUSH2 0x1F5E JUMP JUMPDEST PUSH32 0xA3BE76334976C368B4726800022E50475912FA6A8DC117941A00E82E1FC50F25 DUP3 DUP3 CALLER PUSH1 0x40 MLOAD PUSH2 0x1E86 SWAP4 SWAP3 SWAP2 SWAP1 PUSH2 0x2C5B JUMP JUMPDEST PUSH1 0x40 MLOAD DUP1 SWAP2 SUB SWAP1 LOG1 PUSH2 0x1EA8 JUMP JUMPDEST PUSH2 0x1EA7 PUSH8 0x3989D42118390F41 PUSH1 0xC0 SHL PUSH2 0x1F5E JUMP JUMPDEST JUMPDEST POP POP DUP1 DUP1 PUSH2 0x1EB5 SWAP1 PUSH2 0x2B66 JUMP JUMPDEST SWAP2 POP POP PUSH2 0x19C2 JUMP JUMPDEST POP POP POP JUMP JUMPDEST PUSH2 0x1F5A DUP3 DUP3 PUSH1 0x40 MLOAD PUSH1 0x24 ADD PUSH2 0x1ED8 SWAP3 SWAP2 SWAP1 PUSH2 0x30F4 JUMP JUMPDEST PUSH1 0x40 MLOAD PUSH1 0x20 DUP2 DUP4 SUB SUB DUP2 MSTORE SWAP1 PUSH1 0x40 MSTORE PUSH32 0x319AF33300000000000000000000000000000000000000000000000000000000 PUSH28 0xFFFFFFFFFFFFFFFFFFFFFFFFFFFFFFFFFFFFFFFFFFFFFFFFFFFFFFFF NOT AND PUSH1 0x20 DUP3 ADD DUP1 MLOAD PUSH28 0xFFFFFFFFFFFFFFFFFFFFFFFFFFFFFFFFFFFFFFFFFFFFFFFFFFFFFFFF DUP4 DUP2 DUP4 AND OR DUP4 MSTORE POP POP POP POP PUSH2 0x2063 JUMP JUMPDEST POP POP JUMP JUMPDEST POP JUMP JUMPDEST POP JUMP JUMPDEST PUSH2 0x1F78 PUSH8 0x499BB9FFAAE84D95 PUSH1 0xC0 SHL PUSH2 0x1F5E JUMP JUMPDEST PUSH2 0x1F8C PUSH8 0xE123DC2F20358CEA PUSH1 0xC0 SHL PUSH2 0x1F5E JUMP JUMPDEST PUSH2 0x1FA0 PUSH8 0x50CD023CCFF87E21 PUSH1 0xC0 SHL PUSH2 0x1F5E JUMP JUMPDEST PUSH1 0x0 PUSH2 0x1FAC DUP4 DUP4 PUSH2 0x208C JUMP JUMPDEST SWAP1 POP PUSH2 0x1FC2 PUSH8 0xE7AADF62F954B100 PUSH1 0xC0 SHL PUSH2 0x1F5E JUMP JUMPDEST PUSH2 0x1FD6 PUSH8 0x8482B32130098002 PUSH1 0xC0 SHL PUSH2 0x1F5E JUMP JUMPDEST PUSH2 0x1FE0 DUP4 DUP3 PUSH2 0x2207 JUMP JUMPDEST POP POP POP JUMP JUMPDEST PUSH2 0x1FF9 PUSH8 0x29C1CB78719D3315 PUSH1 0xC0 SHL PUSH2 0x1F5E JUMP JUMPDEST PUSH2 0x200D PUSH8 0xA15C41C0BB9B47D7 PUSH1 0xC0 SHL PUSH2 0x1F5E JUMP JUMPDEST PUSH2 0x2021 PUSH8 0xD172DC1E91CA12FF PUSH1 0xC0 SHL PUSH2 0x1F5E JUMP JUMPDEST PUSH1 0x0 PUSH2 0x202C DUP3 PUSH2 0x23A2 JUMP JUMPDEST SWAP1 POP PUSH2 0x2042 PUSH8 0xED3971981253E80E PUSH1 0xC0 SHL PUSH2 0x1F5E JUMP JUMPDEST PUSH2 0x2056 PUSH8 0xE7D15BD37E6E96AF PUSH1 0xC0 SHL PUSH2 0x1F5E JUMP JUMPDEST PUSH2 0x205F DUP2 PUSH2 0x256A JUMP JUMPDEST POP POP JUMP JUMPDEST PUSH1 0x0 DUP2 MLOAD SWAP1 POP PUSH1 0x0 PUSH11 0x636F6E736F6C652E6C6F67 SWAP1 POP PUSH1 0x20 DUP4 ADD PUSH1 0x0 DUP1 DUP5 DUP4 DUP6 GAS STATICCALL POP POP POP POP POP JUMP JUMPDEST PUSH1 0x0 PUSH2 0x20A2 PUSH8 0xBFB8C58298D0644D PUSH1 0xC0 SHL PUSH2 0x1F5E JUMP JUMPDEST PUSH2 0x20B6 PUSH8 0x113A266CFDB3A071 PUSH1 0xC0 SHL PUSH2 0x1F5E JUMP JUMPDEST PUSH2 0x20CA PUSH8 0x6BFB4C9DD4676A56 PUSH1 0xC0 SHL PUSH2 0x1F5E JUMP JUMPDEST PUSH1 0x0 JUMPDEST PUSH1 0x1 DUP5 DUP1 SLOAD SWAP1 POP PUSH2 0x20DE SWAP2 SWAP1 PUSH2 0x2B32 JUMP JUMPDEST DUP2 GT PUSH2 0x219D JUMPI PUSH2 0x20F8 PUSH8 0x91346372C69B404A PUSH1 0xC0 SHL PUSH2 0x1F5E JUMP JUMPDEST PUSH2 0x210C PUSH8 0x921B6C37FA79CC7A PUSH1 0xC0 SHL PUSH2 0x1F5E JUMP JUMPDEST DUP3 DUP5 DUP3 DUP2 SLOAD DUP2 LT PUSH2 0x2120 JUMPI PUSH2 0x211F PUSH2 0x2BAF JUMP JUMPDEST JUMPDEST SWAP1 PUSH1 0x0 MSTORE PUSH1 0x20 PUSH1 0x0 KECCAK256 ADD SLOAD EQ ISZERO PUSH2 0x2176 JUMPI PUSH2 0x2145 PUSH8 0x6ED817CCAA72B806 PUSH1 0xC0 SHL PUSH2 0x1F5E JUMP JUMPDEST PUSH2 0x2159 PUSH8 0x3D73D7C1F446AAD2 PUSH1 0xC0 SHL PUSH2 0x1F5E JUMP JUMPDEST PUSH2 0x216D PUSH8 0xCB7470977E159DBE PUSH1 0xC0 SHL PUSH2 0x1F5E JUMP JUMPDEST DUP1 SWAP2 POP POP PUSH2 0x2201 JUMP JUMPDEST PUSH2 0x218A PUSH8 0x93201A8F80CE5A0A PUSH1 0xC0 SHL PUSH2 0x1F5E JUMP JUMPDEST DUP1 DUP1 PUSH2 0x2195 SWAP1 PUSH2 0x2B66 JUMP JUMPDEST SWAP2 POP POP PUSH2 0x20CD JUMP JUMPDEST POP PUSH2 0x21B2 PUSH8 0xC7AAC0ECDBBD152 PUSH1 0xC0 SHL PUSH2 0x1F5E JUMP JUMPDEST PUSH2 0x21C6 PUSH8 0x92F1B569184CF73E PUSH1 0xC0 SHL PUSH2 0x1F5E JUMP JUMPDEST PUSH1 0x40 MLOAD PUSH32 0x8C379A000000000000000000000000000000000000000000000000000000000 DUP2 MSTORE PUSH1 0x4 ADD PUSH2 0x21F8 SWAP1 PUSH2 0x3196 JUMP JUMPDEST PUSH1 0x40 MLOAD DUP1 SWAP2 SUB SWAP1 REVERT JUMPDEST SWAP3 SWAP2 POP POP JUMP JUMPDEST PUSH2 0x221B PUSH8 0x9AC8DBE8D71C91EF PUSH1 0xC0 SHL PUSH2 0x1F5E JUMP JUMPDEST PUSH2 0x222F PUSH8 0x62862A731F8E6EC5 PUSH1 0xC0 SHL PUSH2 0x1F5E JUMP JUMPDEST PUSH2 0x2243 PUSH8 0x8EAC1FFEF1C865EA PUSH1 0xC0 SHL PUSH2 0x1F5E JUMP JUMPDEST PUSH1 0x0 DUP3 DUP1 SLOAD SWAP1 POP EQ DUP1 ISZERO PUSH2 0x2267 JUMPI POP PUSH2 0x2266 PUSH8 0xA53248240483F816 PUSH1 0xC0 SHL PUSH2 0x26B0 JUMP JUMPDEST JUMPDEST DUP1 PUSH2 0x2292 JUMPI POP DUP2 DUP1 SLOAD SWAP1 POP DUP2 LT ISZERO DUP1 ISZERO PUSH2 0x2291 JUMPI POP PUSH2 0x2290 PUSH8 0x35BEC3025870C5D2 PUSH1 0xC0 SHL PUSH2 0x26B0 JUMP JUMPDEST JUMPDEST JUMPDEST ISZERO PUSH2 0x22D8 JUMPI PUSH2 0x22AB PUSH8 0x49DD58DC116824E3 PUSH1 0xC0 SHL PUSH2 0x1F5E JUMP JUMPDEST PUSH2 0x22BF PUSH8 0x241AC41168CA93D5 PUSH1 0xC0 SHL PUSH2 0x1F5E JUMP JUMPDEST PUSH2 0x22D3 PUSH8 0x908607946A8B4C8F PUSH1 0xC0 SHL PUSH2 0x1F5E JUMP JUMPDEST PUSH1 0x0 DUP1 REVERT JUMPDEST PUSH2 0x22EC PUSH8 0x83C9954A4080B444 PUSH1 0xC0 SHL PUSH2 0x1F5E JUMP JUMPDEST PUSH2 0x2300 PUSH8 0xB2A6E24DD27C4174 PUSH1 0xC0 SHL PUSH2 0x1F5E JUMP JUMPDEST DUP2 PUSH1 0x1 DUP4 DUP1 SLOAD SWAP1 POP PUSH2 0x2312 SWAP2 SWAP1 PUSH2 0x2B32 JUMP JUMPDEST DUP2 SLOAD DUP2 LT PUSH2 0x2323 JUMPI PUSH2 0x2322 PUSH2 0x2BAF JUMP JUMPDEST JUMPDEST SWAP1 PUSH1 0x0 MSTORE PUSH1 0x20 PUSH1 0x0 KECCAK256 ADD SLOAD DUP3 DUP3 DUP2 SLOAD DUP2 LT PUSH2 0x2341 JUMPI PUSH2 0x2340 PUSH2 0x2BAF JUMP JUMPDEST JUMPDEST SWAP1 PUSH1 0x0 MSTORE PUSH1 0x20 PUSH1 0x0 KECCAK256 ADD DUP2 SWAP1 SSTORE POP PUSH2 0x2363 PUSH8 0x430017887DC2B418 PUSH1 0xC0 SHL PUSH2 0x1F5E JUMP JUMPDEST PUSH2 0x2377 PUSH8 0xDEDA8AEF8764A129 PUSH1 0xC0 SHL PUSH2 0x1F5E JUMP JUMPDEST DUP2 DUP1 SLOAD DUP1 PUSH2 0x2388 JUMPI PUSH2 0x2387 PUSH2 0x31B6 JUMP JUMPDEST JUMPDEST PUSH1 0x1 SWAP1 SUB DUP2 DUP2 SWAP1 PUSH1 0x0 MSTORE PUSH1 0x20 PUSH1 0x0 KECCAK256 ADD PUSH1 0x0 SWAP1 SSTORE SWAP1 SSTORE POP POP JUMP JUMPDEST PUSH1 0x0 PUSH2 0x23B8 PUSH8 0x30DA624578DD70FB PUSH1 0xC0 SHL PUSH2 0x1F5E JUMP JUMPDEST PUSH2 0x23CC PUSH8 0xF7C301FF0C3FAAB8 PUSH1 0xC0 SHL PUSH2 0x1F5E JUMP JUMPDEST PUSH2 0x23E0 PUSH8 0x9C775C45EB63E2B PUSH1 0xC0 SHL PUSH2 0x1F5E JUMP JUMPDEST PUSH1 0x0 JUMPDEST PUSH1 0x1 PUSH1 0x3 DUP1 SLOAD SWAP1 POP PUSH2 0x23F5 SWAP2 SWAP1 PUSH2 0x2B32 JUMP JUMPDEST DUP2 GT PUSH2 0x2501 JUMPI PUSH2 0x240F PUSH8 0x552EE50D6453DCF PUSH1 0xC0 SHL PUSH2 0x1F5E JUMP JUMPDEST PUSH2 0x2423 PUSH8 0x2F967B6379E01689 PUSH1 0xC0 SHL PUSH2 0x1F5E JUMP JUMPDEST DUP3 PUSH20 0xFFFFFFFFFFFFFFFFFFFFFFFFFFFFFFFFFFFFFFFF AND PUSH1 0x3 DUP3 DUP2 SLOAD DUP2 LT PUSH2 0x244E JUMPI PUSH2 0x244D PUSH2 0x2BAF JUMP JUMPDEST JUMPDEST SWAP1 PUSH1 0x0 MSTORE PUSH1 0x20 PUSH1 0x0 KECCAK256 ADD PUSH1 0x0 SWAP1 SLOAD SWAP1 PUSH2 0x100 EXP SWAP1 DIV PUSH20 0xFFFFFFFFFFFFFFFFFFFFFFFFFFFFFFFFFFFFFFFF AND PUSH20 0xFFFFFFFFFFFFFFFFFFFFFFFFFFFFFFFFFFFFFFFF AND EQ ISZERO PUSH2 0x24DA JUMPI PUSH2 0x24A9 PUSH8 0xDDF9430CFAB1F57D PUSH1 0xC0 SHL PUSH2 0x1F5E JUMP JUMPDEST PUSH2 0x24BD PUSH8 0x7D9460F6C9DD018C PUSH1 0xC0 SHL PUSH2 0x1F5E JUMP JUMPDEST PUSH2 0x24D1 PUSH8 0x470CF6419EEF98D7 PUSH1 0xC0 SHL PUSH2 0x1F5E JUMP JUMPDEST DUP1 SWAP2 POP POP PUSH2 0x2565 JUMP JUMPDEST PUSH2 0x24EE PUSH8 0xEF01CE1A36A5D476 PUSH1 0xC0 SHL PUSH2 0x1F5E JUMP JUMPDEST DUP1 DUP1 PUSH2 0x24F9 SWAP1 PUSH2 0x2B66 JUMP JUMPDEST SWAP2 POP POP PUSH2 0x23E3 JUMP JUMPDEST POP PUSH2 0x2516 PUSH8 0xFD59C8152FC472BA PUSH1 0xC0 SHL PUSH2 0x1F5E JUMP JUMPDEST PUSH2 0x252A PUSH8 0xFAC5ABCC585C584A PUSH1 0xC0 SHL PUSH2 0x1F5E JUMP JUMPDEST PUSH1 0x40 MLOAD PUSH32 0x8C379A000000000000000000000000000000000000000000000000000000000 DUP2 MSTORE PUSH1 0x4 ADD PUSH2 0x255C SWAP1 PUSH2 0x3257 JUMP JUMPDEST PUSH1 0x40 MLOAD DUP1 SWAP2 SUB SWAP1 REVERT JUMPDEST SWAP2 SWAP1 POP JUMP JUMPDEST PUSH2 0x257E PUSH8 0x3D4A7529E29448FC PUSH1 0xC0 SHL PUSH2 0x1F5E JUMP JUMPDEST PUSH2 0x2592 PUSH8 0x120B99F019A453EC PUSH1 0xC0 SHL PUSH2 0x1F5E JUMP JUMPDEST PUSH1 0x3 PUSH1 0x1 PUSH1 0x3 DUP1 SLOAD SWAP1 POP PUSH2 0x25A6 SWAP2 SWAP1 PUSH2 0x2B32 JUMP JUMPDEST DUP2 SLOAD DUP2 LT PUSH2 0x25B7 JUMPI PUSH2 0x25B6 PUSH2 0x2BAF JUMP JUMPDEST JUMPDEST SWAP1 PUSH1 0x0 MSTORE PUSH1 0x20 PUSH1 0x0 KECCAK256 ADD PUSH1 0x0 SWAP1 SLOAD SWAP1 PUSH2 0x100 EXP SWAP1 DIV PUSH20 0xFFFFFFFFFFFFFFFFFFFFFFFFFFFFFFFFFFFFFFFF AND PUSH1 0x3 DUP3 DUP2 SLOAD DUP2 LT PUSH2 0x25F6 JUMPI PUSH2 0x25F5 PUSH2 0x2BAF JUMP JUMPDEST JUMPDEST SWAP1 PUSH1 0x0 MSTORE PUSH1 0x20 PUSH1 0x0 KECCAK256 ADD PUSH1 0x0 PUSH2 0x100 EXP DUP2 SLOAD DUP2 PUSH20 0xFFFFFFFFFFFFFFFFFFFFFFFFFFFFFFFFFFFFFFFF MUL NOT AND SWAP1 DUP4 PUSH20 0xFFFFFFFFFFFFFFFFFFFFFFFFFFFFFFFFFFFFFFFF AND MUL OR SWAP1 SSTORE POP PUSH2 0x2652 PUSH8 0x141038852AE6C36E PUSH1 0xC0 SHL PUSH2 0x1F5E JUMP JUMPDEST PUSH2 0x2666 PUSH8 0xA19D6AD0B11C80BA PUSH1 0xC0 SHL PUSH2 0x1F5E JUMP JUMPDEST PUSH1 0x3 DUP1 SLOAD DUP1 PUSH2 0x2678 JUMPI PUSH2 0x2677 PUSH2 0x31B6 JUMP JUMPDEST JUMPDEST PUSH1 0x1 SWAP1 SUB DUP2 DUP2 SWAP1 PUSH1 0x0 MSTORE PUSH1 0x20 PUSH1 0x0 KECCAK256 ADD PUSH1 0x0 PUSH2 0x100 EXP DUP2 SLOAD SWAP1 PUSH20 0xFFFFFFFFFFFFFFFFFFFFFFFFFFFFFFFFFFFFFFFF MUL NOT AND SWAP1 SSTORE SWAP1 SSTORE POP JUMP JUMPDEST PUSH1 0x0 PUSH1 0x1 SWAP1 POP SWAP2 SWAP1 POP JUMP JUMPDEST POP DUP1 SLOAD PUSH1 0x0 DUP3 SSTORE SWAP1 PUSH1 0x0 MSTORE PUSH1 0x20 PUSH1 0x0 KECCAK256 SWAP1 DUP2 ADD SWAP1 PUSH2 0x26D9 SWAP2 SWAP1 PUSH2 0x26FD JUMP JUMPDEST POP JUMP JUMPDEST POP DUP1 SLOAD PUSH1 0x0 DUP3 SSTORE SWAP1 PUSH1 0x0 MSTORE PUSH1 0x20 PUSH1 0x0 KECCAK256 SWAP1 DUP2 ADD SWAP1 PUSH2 0x26FA SWAP2 SWAP1 PUSH2 0x26FD JUMP JUMPDEST POP JUMP JUMPDEST JUMPDEST DUP1 DUP3 GT ISZERO PUSH2 0x2716 JUMPI PUSH1 0x0 DUP2 PUSH1 0x0 SWAP1 SSTORE POP PUSH1 0x1 ADD PUSH2 0x26FE JUMP JUMPDEST POP SWAP1 JUMP JUMPDEST PUSH1 0x0 DUP2 SWAP1 POP SWAP2 SWAP1 POP JUMP JUMPDEST PUSH2 0x272D DUP2 PUSH2 0x271A JUMP JUMPDEST DUP3 MSTORE POP POP JUMP JUMPDEST PUSH1 0x0 PUSH1 0x20 DUP3 ADD SWAP1 POP PUSH2 0x2748 PUSH1 0x0 DUP4 ADD DUP5 PUSH2 0x2724 JUMP JUMPDEST SWAP3 SWAP2 POP POP JUMP JUMPDEST PUSH1 0x0 PUSH1 0x40 MLOAD SWAP1 POP SWAP1 JUMP JUMPDEST PUSH1 0x0 DUP1 REVERT JUMPDEST PUSH1 0x0 DUP1 REVERT JUMPDEST PUSH2 0x276B DUP2 PUSH2 0x271A JUMP JUMPDEST DUP2 EQ PUSH2 0x2776 JUMPI PUSH1 0x0 DUP1 REVERT JUMPDEST POP JUMP JUMPDEST PUSH1 0x0 DUP2 CALLDATALOAD SWAP1 POP PUSH2 0x2788 DUP2 PUSH2 0x2762 JUMP JUMPDEST SWAP3 SWAP2 POP POP JUMP JUMPDEST PUSH1 0x0 DUP1 REVERT JUMPDEST PUSH1 0x0 PUSH1 0x1F NOT PUSH1 0x1F DUP4 ADD AND SWAP1 POP SWAP2 SWAP1 POP JUMP JUMPDEST PUSH32 0x4E487B7100000000000000000000000000000000000000000000000000000000 PUSH1 0x0 MSTORE PUSH1 0x41 PUSH1 0x4 MSTORE PUSH1 0x24 PUSH1 0x0 REVERT JUMPDEST PUSH2 0x27DC DUP3 PUSH2 0x2793 JUMP JUMPDEST DUP2 ADD DUP2 DUP2 LT PUSH8 0xFFFFFFFFFFFFFFFF DUP3 GT OR ISZERO PUSH2 0x27FB JUMPI PUSH2 0x27FA PUSH2 0x27A4 JUMP JUMPDEST JUMPDEST DUP1 PUSH1 0x40 MSTORE POP POP POP JUMP JUMPDEST PUSH1 0x0 PUSH2 0x280E PUSH2 0x274E JUMP JUMPDEST SWAP1 POP PUSH2 0x281A DUP3 DUP3 PUSH2 0x27D3 JUMP JUMPDEST SWAP2 SWAP1 POP JUMP JUMPDEST PUSH1 0x0 PUSH8 0xFFFFFFFFFFFFFFFF DUP3 GT ISZERO PUSH2 0x283A JUMPI PUSH2 0x2839 PUSH2 0x27A4 JUMP JUMPDEST JUMPDEST PUSH1 0x20 DUP3 MUL SWAP1 POP PUSH1 0x20 DUP2 ADD SWAP1 POP SWAP2 SWAP1 POP JUMP JUMPDEST PUSH1 0x0 DUP1 REVERT JUMPDEST PUSH1 0x0 PUSH2 0x2863 PUSH2 0x285E DUP5 PUSH2 0x281F JUMP JUMPDEST PUSH2 0x2804 JUMP JUMPDEST SWAP1 POP DUP1 DUP4 DUP3 MSTORE PUSH1 0x20 DUP3 ADD SWAP1 POP PUSH1 0x20 DUP5 MUL DUP4 ADD DUP6 DUP2 GT ISZERO PUSH2 0x2886 JUMPI PUSH2 0x2885 PUSH2 0x284B JUMP JUMPDEST JUMPDEST DUP4 JUMPDEST DUP2 DUP2 LT ISZERO PUSH2 0x28AF JUMPI DUP1 PUSH2 0x289B DUP9 DUP3 PUSH2 0x2779 JUMP JUMPDEST DUP5 MSTORE PUSH1 0x20 DUP5 ADD SWAP4 POP POP PUSH1 0x20 DUP2 ADD SWAP1 POP PUSH2 0x2888 JUMP JUMPDEST POP POP POP SWAP4 SWAP3 POP POP POP JUMP JUMPDEST PUSH1 0x0 DUP3 PUSH1 0x1F DUP4 ADD SLT PUSH2 0x28CE JUMPI PUSH2 0x28CD PUSH2 0x278E JUMP JUMPDEST JUMPDEST DUP2 CALLDATALOAD PUSH2 0x28DE DUP5 DUP3 PUSH1 0x20 DUP7 ADD PUSH2 0x2850 JUMP JUMPDEST SWAP2 POP POP SWAP3 SWAP2 POP POP JUMP JUMPDEST PUSH1 0x0 DUP1 PUSH1 0x40 DUP4 DUP6 SUB SLT ISZERO PUSH2 0x28FE JUMPI PUSH2 0x28FD PUSH2 0x2758 JUMP JUMPDEST JUMPDEST PUSH1 0x0 PUSH2 0x290C DUP6 DUP3 DUP7 ADD PUSH2 0x2779 JUMP JUMPDEST SWAP3 POP POP PUSH1 0x20 DUP4 ADD CALLDATALOAD PUSH8 0xFFFFFFFFFFFFFFFF DUP2 GT ISZERO PUSH2 0x292D JUMPI PUSH2 0x292C PUSH2 0x275D JUMP JUMPDEST JUMPDEST PUSH2 0x2939 DUP6 DUP3 DUP7 ADD PUSH2 0x28B9 JUMP JUMPDEST SWAP2 POP POP SWAP3 POP SWAP3 SWAP1 POP JUMP JUMPDEST PUSH1 0x0 DUP2 ISZERO ISZERO SWAP1 POP SWAP2 SWAP1 POP JUMP JUMPDEST PUSH2 0x2958 DUP2 PUSH2 0x2943 JUMP JUMPDEST DUP3 MSTORE POP POP JUMP JUMPDEST PUSH1 0x0 PUSH1 0x20 DUP3 ADD SWAP1 POP PUSH2 0x2973 PUSH1 0x0 DUP4 ADD DUP5 PUSH2 0x294F JUMP JUMPDEST SWAP3 SWAP2 POP POP JUMP JUMPDEST PUSH1 0x0 PUSH20 0xFFFFFFFFFFFFFFFFFFFFFFFFFFFFFFFFFFFFFFFF DUP3 AND SWAP1 POP SWAP2 SWAP1 POP JUMP JUMPDEST PUSH1 0x0 PUSH2 0x29A4 DUP3 PUSH2 0x2979 JUMP JUMPDEST SWAP1 POP SWAP2 SWAP1 POP JUMP JUMPDEST PUSH2 0x29B4 DUP2 PUSH2 0x2999 JUMP JUMPDEST DUP3 MSTORE POP POP JUMP JUMPDEST PUSH1 0x0 PUSH1 0x20 DUP3 ADD SWAP1 POP PUSH2 0x29CF PUSH1 0x0 DUP4 ADD DUP5 PUSH2 0x29AB JUMP JUMPDEST SWAP3 SWAP2 POP POP JUMP JUMPDEST PUSH1 0x0 DUP1 REVERT JUMPDEST PUSH1 0x0 DUP1 DUP4 PUSH1 0x1F DUP5 ADD SLT PUSH2 0x29F0 JUMPI PUSH2 0x29EF PUSH2 0x278E JUMP JUMPDEST JUMPDEST DUP3 CALLDATALOAD SWAP1 POP PUSH8 0xFFFFFFFFFFFFFFFF DUP2 GT ISZERO PUSH2 0x2A0D JUMPI PUSH2 0x2A0C PUSH2 0x29D5 JUMP JUMPDEST JUMPDEST PUSH1 0x20 DUP4 ADD SWAP2 POP DUP4 PUSH1 0x20 DUP3 MUL DUP4 ADD GT ISZERO PUSH2 0x2A29 JUMPI PUSH2 0x2A28 PUSH2 0x284B JUMP JUMPDEST JUMPDEST SWAP3 POP SWAP3 SWAP1 POP JUMP JUMPDEST PUSH1 0x0 DUP1 PUSH1 0x20 DUP4 DUP6 SUB SLT ISZERO PUSH2 0x2A47 JUMPI PUSH2 0x2A46 PUSH2 0x2758 JUMP JUMPDEST JUMPDEST PUSH1 0x0 DUP4 ADD CALLDATALOAD PUSH8 0xFFFFFFFFFFFFFFFF DUP2 GT ISZERO PUSH2 0x2A65 JUMPI PUSH2 0x2A64 PUSH2 0x275D JUMP JUMPDEST JUMPDEST PUSH2 0x2A71 DUP6 DUP3 DUP7 ADD PUSH2 0x29DA JUMP JUMPDEST SWAP3 POP SWAP3 POP POP SWAP3 POP SWAP3 SWAP1 POP JUMP JUMPDEST PUSH2 0x2A86 DUP2 PUSH2 0x2999 JUMP JUMPDEST DUP2 EQ PUSH2 0x2A91 JUMPI PUSH1 0x0 DUP1 REVERT JUMPDEST POP JUMP JUMPDEST PUSH1 0x0 DUP2 CALLDATALOAD SWAP1 POP PUSH2 0x2AA3 DUP2 PUSH2 0x2A7D JUMP JUMPDEST SWAP3 SWAP2 POP POP JUMP JUMPDEST PUSH1 0x0 PUSH1 0x20 DUP3 DUP5 SUB SLT ISZERO PUSH2 0x2ABF JUMPI PUSH2 0x2ABE PUSH2 0x2758 JUMP JUMPDEST JUMPDEST PUSH1 0x0 PUSH2 0x2ACD DUP5 DUP3 DUP6 ADD PUSH2 0x2A94 JUMP JUMPDEST SWAP2 POP POP SWAP3 SWAP2 POP POP JUMP JUMPDEST PUSH1 0x0 PUSH1 0x20 DUP3 DUP5 SUB SLT ISZERO PUSH2 0x2AEC JUMPI PUSH2 0x2AEB PUSH2 0x2758 JUMP JUMPDEST JUMPDEST PUSH1 0x0 PUSH2 0x2AFA DUP5 DUP3 DUP6 ADD PUSH2 0x2779 JUMP JUMPDEST SWAP2 POP POP SWAP3 SWAP2 POP POP JUMP JUMPDEST PUSH32 0x4E487B7100000000000000000000000000000000000000000000000000000000 PUSH1 0x0 MSTORE PUSH1 0x11 PUSH1 0x4 MSTORE PUSH1 0x24 PUSH1 0x0 REVERT JUMPDEST PUSH1 0x0 PUSH2 0x2B3D DUP3 PUSH2 0x271A JUMP JUMPDEST SWAP2 POP PUSH2 0x2B48 DUP4 PUSH2 0x271A JUMP JUMPDEST SWAP3 POP DUP3 DUP3 LT ISZERO PUSH2 0x2B5B JUMPI PUSH2 0x2B5A PUSH2 0x2B03 JUMP JUMPDEST JUMPDEST DUP3 DUP3 SUB SWAP1 POP SWAP3 SWAP2 POP POP JUMP JUMPDEST PUSH1 0x0 PUSH2 0x2B71 DUP3 PUSH2 0x271A JUMP JUMPDEST SWAP2 POP PUSH32 0xFFFFFFFFFFFFFFFFFFFFFFFFFFFFFFFFFFFFFFFFFFFFFFFFFFFFFFFFFFFFFFFF DUP3 EQ ISZERO PUSH2 0x2BA4 JUMPI PUSH2 0x2BA3 PUSH2 0x2B03 JUMP JUMPDEST JUMPDEST PUSH1 0x1 DUP3 ADD SWAP1 POP SWAP2 SWAP1 POP JUMP JUMPDEST PUSH32 0x4E487B7100000000000000000000000000000000000000000000000000000000 PUSH1 0x0 MSTORE PUSH1 0x32 PUSH1 0x4 MSTORE PUSH1 0x24 PUSH1 0x0 REVERT JUMPDEST PUSH1 0x0 DUP3 DUP3 MSTORE PUSH1 0x20 DUP3 ADD SWAP1 POP SWAP3 SWAP2 POP POP JUMP JUMPDEST PUSH32 0x43616C6C6572206973206E6F74206F776E657200000000000000000000000000 PUSH1 0x0 DUP3 ADD MSTORE POP JUMP JUMPDEST PUSH1 0x0 PUSH2 0x2C25 PUSH1 0x13 DUP4 PUSH2 0x2BDE JUMP JUMPDEST SWAP2 POP PUSH2 0x2C30 DUP3 PUSH2 0x2BEF JUMP JUMPDEST PUSH1 0x20 DUP3 ADD SWAP1 POP SWAP2 SWAP1 POP JUMP JUMPDEST PUSH1 0x0 PUSH1 0x20 DUP3 ADD SWAP1 POP DUP2 DUP2 SUB PUSH1 0x0 DUP4 ADD MSTORE PUSH2 0x2C54 DUP2 PUSH2 0x2C18 JUMP JUMPDEST SWAP1 POP SWAP2 SWAP1 POP JUMP JUMPDEST PUSH1 0x0 PUSH1 0x60 DUP3 ADD SWAP1 POP PUSH2 0x2C70 PUSH1 0x0 DUP4 ADD DUP7 PUSH2 0x2724 JUMP JUMPDEST PUSH2 0x2C7D PUSH1 0x20 DUP4 ADD DUP6 PUSH2 0x29AB JUMP JUMPDEST PUSH2 0x2C8A PUSH1 0x40 DUP4 ADD DUP5 PUSH2 0x29AB JUMP JUMPDEST SWAP5 SWAP4 POP POP POP POP JUMP JUMPDEST PUSH32 0x546865206E756D626572206F6620726F6F6D7320796F75206172652074727969 PUSH1 0x0 DUP3 ADD MSTORE PUSH32 0x6E6720746F207265736572766520697320746F6F206269670000000000000000 PUSH1 0x20 DUP3 ADD MSTORE POP JUMP JUMPDEST PUSH1 0x0 PUSH2 0x2CEE PUSH1 0x38 DUP4 PUSH2 0x2BDE JUMP JUMPDEST SWAP2 POP PUSH2 0x2CF9 DUP3 PUSH2 0x2C92 JUMP JUMPDEST PUSH1 0x40 DUP3 ADD SWAP1 POP SWAP2 SWAP1 POP JUMP JUMPDEST PUSH1 0x0 PUSH1 0x20 DUP3 ADD SWAP1 POP DUP2 DUP2 SUB PUSH1 0x0 DUP4 ADD MSTORE PUSH2 0x2D1D DUP2 PUSH2 0x2CE1 JUMP JUMPDEST SWAP1 POP SWAP2 SWAP1 POP JUMP JUMPDEST PUSH32 0x54686520726F6F6D206E756D626572206973206F7574206F662072616E676500 PUSH1 0x0 DUP3 ADD MSTORE POP JUMP JUMPDEST PUSH1 0x0 PUSH2 0x2D5A PUSH1 0x1F DUP4 PUSH2 0x2BDE JUMP JUMPDEST SWAP2 POP PUSH2 0x2D65 DUP3 PUSH2 0x2D24 JUMP JUMPDEST PUSH1 0x20 DUP3 ADD SWAP1 POP SWAP2 SWAP1 POP JUMP JUMPDEST PUSH1 0x0 PUSH1 0x20 DUP3 ADD SWAP1 POP DUP2 DUP2 SUB PUSH1 0x0 DUP4 ADD MSTORE PUSH2 0x2D89 DUP2 PUSH2 0x2D4D JUMP JUMPDEST SWAP1 POP SWAP2 SWAP1 POP JUMP JUMPDEST PUSH32 0x596F7572207265736572766174696F6E2063616E6E6F7420626520636F6D706C PUSH1 0x0 DUP3 ADD MSTORE PUSH32 0x657465642C2062656361757365206120726F6F6D20796F752077616E74206973 PUSH1 0x20 DUP3 ADD MSTORE PUSH32 0x20616C7265616479206F63637570696564000000000000000000000000000000 PUSH1 0x40 DUP3 ADD MSTORE POP JUMP JUMPDEST PUSH1 0x0 PUSH2 0x2E12 PUSH1 0x51 DUP4 PUSH2 0x2BDE JUMP JUMPDEST SWAP2 POP PUSH2 0x2E1D DUP3 PUSH2 0x2D90 JUMP JUMPDEST PUSH1 0x60 DUP3 ADD SWAP1 POP SWAP2 SWAP1 POP JUMP JUMPDEST PUSH1 0x0 PUSH1 0x20 DUP3 ADD SWAP1 POP DUP2 DUP2 SUB PUSH1 0x0 DUP4 ADD MSTORE PUSH2 0x2E41 DUP2 PUSH2 0x2E05 JUMP JUMPDEST SWAP1 POP SWAP2 SWAP1 POP JUMP JUMPDEST PUSH1 0x0 PUSH1 0x40 DUP3 ADD SWAP1 POP PUSH2 0x2E5D PUSH1 0x0 DUP4 ADD DUP6 PUSH2 0x2724 JUMP JUMPDEST PUSH2 0x2E6A PUSH1 0x20 DUP4 ADD DUP5 PUSH2 0x29AB JUMP JUMPDEST SWAP4 SWAP3 POP POP POP JUMP JUMPDEST PUSH32 0x546865206E756D626572206F6620726F6F6D7320796F75206172652074727969 PUSH1 0x0 DUP3 ADD MSTORE PUSH32 0x6E6720746F206672656520697320746F6F206269670000000000000000000000 PUSH1 0x20 DUP3 ADD MSTORE POP JUMP JUMPDEST PUSH1 0x0 PUSH2 0x2ECD PUSH1 0x35 DUP4 PUSH2 0x2BDE JUMP JUMPDEST SWAP2 POP PUSH2 0x2ED8 DUP3 PUSH2 0x2E71 JUMP JUMPDEST PUSH1 0x40 DUP3 ADD SWAP1 POP SWAP2 SWAP1 POP JUMP JUMPDEST PUSH1 0x0 PUSH1 0x20 DUP3 ADD SWAP1 POP DUP2 DUP2 SUB PUSH1 0x0 DUP4 ADD MSTORE PUSH2 0x2EFC DUP2 PUSH2 0x2EC0 JUMP JUMPDEST SWAP1 POP SWAP2 SWAP1 POP JUMP JUMPDEST PUSH32 0x596F7520617265206E6F7420616C6C6F77656420746F2066726565206120726F PUSH1 0x0 DUP3 ADD MSTORE PUSH32 0x6F6D20796F7520646F6E2774206F636375707900000000000000000000000000 PUSH1 0x20 DUP3 ADD MSTORE POP JUMP JUMPDEST PUSH1 0x0 PUSH2 0x2F5F PUSH1 0x33 DUP4 PUSH2 0x2BDE JUMP JUMPDEST SWAP2 POP PUSH2 0x2F6A DUP3 PUSH2 0x2F03 JUMP JUMPDEST PUSH1 0x40 DUP3 ADD SWAP1 POP SWAP2 SWAP1 POP JUMP JUMPDEST PUSH1 0x0 PUSH1 0x20 DUP3 ADD SWAP1 POP DUP2 DUP2 SUB PUSH1 0x0 DUP4 ADD MSTORE PUSH2 0x2F8E DUP2 PUSH2 0x2F52 JUMP JUMPDEST SWAP1 POP SWAP2 SWAP1 POP JUMP JUMPDEST PUSH1 0x0 PUSH2 0x2FA0 DUP3 PUSH2 0x271A JUMP JUMPDEST SWAP2 POP PUSH2 0x2FAB DUP4 PUSH2 0x271A JUMP JUMPDEST SWAP3 POP DUP3 PUSH32 0xFFFFFFFFFFFFFFFFFFFFFFFFFFFFFFFFFFFFFFFFFFFFFFFFFFFFFFFFFFFFFFFF SUB DUP3 GT ISZERO PUSH2 0x2FE0 JUMPI PUSH2 0x2FDF PUSH2 0x2B03 JUMP JUMPDEST JUMPDEST DUP3 DUP3 ADD SWAP1 POP SWAP3 SWAP2 POP POP JUMP JUMPDEST PUSH32 0x54686520726F6F6D2063616E6E6F742062652066726565642C20626563617573 PUSH1 0x0 DUP3 ADD MSTORE PUSH32 0x65206974206973206E6F74206F63637570696564000000000000000000000000 PUSH1 0x20 DUP3 ADD MSTORE POP JUMP JUMPDEST PUSH1 0x0 PUSH2 0x3047 PUSH1 0x34 DUP4 PUSH2 0x2BDE JUMP JUMPDEST SWAP2 POP PUSH2 0x3052 DUP3 PUSH2 0x2FEB JUMP JUMPDEST PUSH1 0x40 DUP3 ADD SWAP1 POP SWAP2 SWAP1 POP JUMP JUMPDEST PUSH1 0x0 PUSH1 0x20 DUP3 ADD SWAP1 POP DUP2 DUP2 SUB PUSH1 0x0 DUP4 ADD MSTORE PUSH2 0x3076 DUP2 PUSH2 0x303A JUMP JUMPDEST SWAP1 POP SWAP2 SWAP1 POP JUMP JUMPDEST PUSH1 0x0 DUP2 MLOAD SWAP1 POP SWAP2 SWAP1 POP JUMP JUMPDEST PUSH1 0x0 JUMPDEST DUP4 DUP2 LT ISZERO PUSH2 0x30A6 JUMPI DUP1 DUP3 ADD MLOAD DUP2 DUP5 ADD MSTORE PUSH1 0x20 DUP2 ADD SWAP1 POP PUSH2 0x308B JUMP JUMPDEST DUP4 DUP2 GT ISZERO PUSH2 0x30B5 JUMPI PUSH1 0x0 DUP5 DUP5 ADD MSTORE JUMPDEST POP POP POP POP JUMP JUMPDEST PUSH1 0x0 PUSH2 0x30C6 DUP3 PUSH2 0x307D JUMP JUMPDEST PUSH2 0x30D0 DUP2 DUP6 PUSH2 0x2BDE JUMP JUMPDEST SWAP4 POP PUSH2 0x30E0 DUP2 DUP6 PUSH1 0x20 DUP7 ADD PUSH2 0x3088 JUMP JUMPDEST PUSH2 0x30E9 DUP2 PUSH2 0x2793 JUMP JUMPDEST DUP5 ADD SWAP2 POP POP SWAP3 SWAP2 POP POP JUMP JUMPDEST PUSH1 0x0 PUSH1 0x40 DUP3 ADD SWAP1 POP DUP2 DUP2 SUB PUSH1 0x0 DUP4 ADD MSTORE PUSH2 0x310E DUP2 DUP6 PUSH2 0x30BB JUMP JUMPDEST SWAP1 POP PUSH2 0x311D PUSH1 0x20 DUP4 ADD DUP5 PUSH2 0x29AB JUMP JUMPDEST SWAP4 SWAP3 POP POP POP JUMP JUMPDEST PUSH32 0x546865207375626D69747465642076616C756520636F756C646E277420626520 PUSH1 0x0 DUP3 ADD MSTORE PUSH32 0x666F756E6420696E207468652072657370656374697665206172726179210000 PUSH1 0x20 DUP3 ADD MSTORE POP JUMP JUMPDEST PUSH1 0x0 PUSH2 0x3180 PUSH1 0x3E DUP4 PUSH2 0x2BDE JUMP JUMPDEST SWAP2 POP PUSH2 0x318B DUP3 PUSH2 0x3124 JUMP JUMPDEST PUSH1 0x40 DUP3 ADD SWAP1 POP SWAP2 SWAP1 POP JUMP JUMPDEST PUSH1 0x0 PUSH1 0x20 DUP3 ADD SWAP1 POP DUP2 DUP2 SUB PUSH1 0x0 DUP4 ADD MSTORE PUSH2 0x31AF DUP2 PUSH2 0x3173 JUMP JUMPDEST SWAP1 POP SWAP2 SWAP1 POP JUMP JUMPDEST PUSH32 0x4E487B7100000000000000000000000000000000000000000000000000000000 PUSH1 0x0 MSTORE PUSH1 0x31 PUSH1 0x4 MSTORE PUSH1 0x24 PUSH1 0x0 REVERT JUMPDEST PUSH32 0x54686520726573706563746976652061646472657373206973206E6F74206120 PUSH1 0x0 DUP3 ADD MSTORE PUSH32 0x636C69656E74206F662074686520486F6E65737420486F74656C210000000000 PUSH1 0x20 DUP3 ADD MSTORE POP JUMP JUMPDEST PUSH1 0x0 PUSH2 0x3241 PUSH1 0x3B DUP4 PUSH2 0x2BDE JUMP JUMPDEST SWAP2 POP PUSH2 0x324C DUP3 PUSH2 0x31E5 JUMP JUMPDEST PUSH1 0x40 DUP3 ADD SWAP1 POP SWAP2 SWAP1 POP JUMP JUMPDEST PUSH1 0x0 PUSH1 0x20 DUP3 ADD SWAP1 POP DUP2 DUP2 SUB PUSH1 0x0 DUP4 ADD MSTORE PUSH2 0x3270 DUP2 PUSH2 0x3234 JUMP JUMPDEST SWAP1 POP SWAP2 SWAP1 POP JUMP INVALID LOG2 PUSH5 0x6970667358 0x22 SLT KECCAK256 MSIZE 0x4A 0xBA 0xE SWAP14 LOG2 MSIZE 0xB4 RETURNDATASIZE ADDMOD CALLDATASIZE 0xAE STOP BASEFEE 0xB5 DUP11 0xD5 0xBB CALLER JUMPDEST 0xC5 DIFFICULTY 0xD4 POP PUSH31 0xB226B337EFDDDD64736F6C6343000809003300000000000000000000000000 "},"methodIdentifiers":{"changeOwner(address)":"a6f9dae1","forceFreeAllRooms()":"5b014401","forceFreeRooms(uint256[])":"f68e5f60","freeRooms(uint256[])":"d94955df","getOccupiedRoomsNr()":"18d7b320","getOwner()":"893d20e8","getRoomCount()":"eadddb3c","increaseRoomCountBy(uint256)":"e0e3738c","isUintInList(uint256,uint256[])":"43f96fe0","occupyRooms(uint256[])":"9b4e0ef5"}}}}}