{"contracts/HonestHotel.sol":{"HonestHotel":{"abi":[{"inputs":[{"internalType":"uint256","name":"_roomCount","type":"uint256"}],"stateMutability":"nonpayable","type":"constructor"},{"anonymous":false,"inputs":[{"indexed":true,"internalType":"address","name":"oldOwner","type":"address"},{"indexed":true,"internalType":"address","name":"newOwner","type":"address"}],"name":"OwnerSet","type":"event"},{"anonymous":false,"inputs":[{"indexed":false,"internalType":"uint256","name":"roomNr","type":"uint256"},{"indexed":false,"internalType":"address","name":"lastTenant","type":"address"},{"indexed":false,"internalType":"address","name":"freedBy","type":"address"}],"name":"RoomFreed","type":"event"},{"anonymous":false,"inputs":[{"indexed":false,"internalType":"uint256","name":"roomNr","type":"uint256"},{"indexed":false,"internalType":"address","name":"client","type":"address"}],"name":"RoomOccupied","type":"event"},{"inputs":[{"internalType":"address","name":"newOwner","type":"address"}],"name":"changeOwner","outputs":[],"stateMutability":"nonpayable","type":"function"},{"inputs":[],"name":"forceFreeAllRooms","outputs":[],"stateMutability":"nonpayable","type":"function"},{"inputs":[{"internalType":"uint256[]","name":"roomNumbers","type":"uint256[]"}],"name":"forceFreeRooms","outputs":[],"stateMutability":"nonpayable","type":"function"},{"inputs":[{"internalType":"uint256[]","name":"roomNumbers","type":"uint256[]"}],"name":"freeRooms","outputs":[],"stateMutability":"nonpayable","type":"function"},{"inputs":[],"name":"getOccupiedRoomsNr","outputs":[{"internalType":"uint256","name":"","type":"uint256"}],"stateMutability":"view","type":"function"},{"inputs":[],"name":"getOwner","outputs":[{"internalType":"address","name":"","type":"address"}],"stateMutability":"view","type":"function"},{"inputs":[],"name":"getRoomCount","outputs":[{"internalType":"uint256","name":"","type":"uint256"}],"stateMutability":"view","type":"function"},{"inputs":[{"internalType":"uint256","name":"roomsToAdd","type":"uint256"}],"name":"increaseRoomCountBy","outputs":[],"stateMutability":"nonpayable","type":"function"},{"inputs":[{"internalType":"uint256","name":"searchedNr","type":"uint256"},{"internalType":"uint256[]","name":"nrArray","type":"uint256[]"}],"name":"isUintInList","outputs":[{"internalType":"bool","name":"","type":"bool"}],"stateMutability":"pure","type":"function"},{"inputs":[{"internalType":"uint256[]","name":"roomNumbers","type":"uint256[]"}],"name":"occupyRooms","outputs":[],"stateMutability":"nonpayable","type":"function"}],"evm":{"bytecode":{"linkReferences":{},"object":"60806040523480156200001157600080fd5b506040516200363938038062003639833981810160405281019062000037919062000341565b62000053678b11fb289d56593c60c01b6200022c60201b60201c565b6200006f67445f245cb1bca28160c01b6200022c60201b60201c565b6200008b67b7bff48b7c2c06ab60c01b6200022c60201b60201c565b620000d76040518060400160405280601b81526020017f4f776e657220636f6e7472616374206465706c6f7965642062793a0000000000815250336200022f60201b62001dae1760201c565b620000f3676aa84991b9856e9e60c01b6200022c60201b60201c565b336000806101000a81548173ffffffffffffffffffffffffffffffffffffffff021916908373ffffffffffffffffffffffffffffffffffffffff1602179055506200014f67b0e568373fad74d660c01b6200022c60201b60201c565b6200016b67fb99474c7207f13460c01b6200022c60201b60201c565b60008054906101000a900473ffffffffffffffffffffffffffffffffffffffff1673ffffffffffffffffffffffffffffffffffffffff16600073ffffffffffffffffffffffffffffffffffffffff167f342827c97908e5e2f71151c08502a66d44b6f758e3ac2f1de95f02eb95f0a73560405160405180910390a3620002026773f53794fb630d7a60c01b620002d560201b60201c565b6200021e67cce47783ec6cbce660c01b620002d560201b60201c565b806004819055505062000490565b50565b620002d18282604051602401620002489291906200045c565b6040516020818303038152906040527f319af333000000000000000000000000000000000000000000000000000000007bffffffffffffffffffffffffffffffffffffffffffffffffffffffff19166020820180517bffffffffffffffffffffffffffffffffffffffffffffffffffffffff8381831617835250505050620002d860201b60201c565b5050565b50565b60008151905060006a636f6e736f6c652e6c6f679050602083016000808483855afa5050505050565b600080fd5b6000819050919050565b6200031b8162000306565b81146200032757600080fd5b50565b6000815190506200033b8162000310565b92915050565b6000602082840312156200035a576200035962000301565b5b60006200036a848285016200032a565b91505092915050565b600081519050919050565b600082825260208201905092915050565b60005b83811015620003af57808201518184015260208101905062000392565b83811115620003bf576000848401525b50505050565b6000601f19601f8301169050919050565b6000620003e38262000373565b620003ef81856200037e565b9350620004018185602086016200038f565b6200040c81620003c5565b840191505092915050565b600073ffffffffffffffffffffffffffffffffffffffff82169050919050565b6000620004448262000417565b9050919050565b620004568162000437565b82525050565b60006040820190508181036000830152620004788185620003d6565b90506200048960208301846200044b565b9392505050565b61319980620004a06000396000f3fe608060405234801561001057600080fd5b506004361061009e5760003560e01c8063a6f9dae111610066578063a6f9dae114610135578063d94955df14610151578063e0e3738c1461016d578063eadddb3c14610189578063f68e5f60146101a75761009e565b806318d7b320146100a357806343f96fe0146100c15780635b014401146100f1578063893d20e8146100fb5780639b4e0ef514610119575b600080fd5b6100ab6101c3565b6040516100b8919061261f565b60405180910390f35b6100db60048036038101906100d691906127d3565b610365565b6040516100e8919061284a565b60405180910390f35b6100f96104a5565b005b6101036108fe565b60405161011091906128a6565b60405180910390f35b610133600480360381019061012e919061291c565b610962565b005b61014f600480360381019061014a9190612995565b610e21565b005b61016b6004803603810190610166919061291c565b61105c565b005b610187600480360381019061018291906129c2565b61157b565b005b6101916116ed565b60405161019e919061261f565b60405180910390f35b6101c160048036038101906101bc919061291c565b611733565b005b60006101d96714adddc6c88609eb60c01b611e4a565b6101ed674d22fa06af38f52360c01b611e4a565b610201670ac06bbe6826980760c01b611e4a565b6000610217677bed1210507323bc60c01b611e4a565b61022b677f21bd12eb98f9c560c01b611e4a565b60005b600160045461023d9190612a1e565b811161033557610257678d0fc171c0f4515160c01b611e4a565b61026b67e64703fba2beaa8560c01b611e4a565b600073ffffffffffffffffffffffffffffffffffffffff166002600083815260200190815260200160002060009054906101000a900473ffffffffffffffffffffffffffffffffffffffff1673ffffffffffffffffffffffffffffffffffffffff161461030d576102e66710a6b4c0d6c8cefa60c01b611e4a565b6102fa672752e34f0df375df60c01b611e4a565b818061030590612a52565b925050610322565b610321671c8ffcf1825a856f60c01b611e4a565b5b808061032d90612a52565b91505061022e565b5061034a678b4bce7c177e4eca60c01b611e4a565b61035e676205b9b2ed160d6260c01b611e4a565b8091505090565b600061037b67b7409d3a077a813960c01b611e4a565b61038f679ba12e610dc0aa2960c01b611e4a565b6103a36708d9d6850799aeae60c01b611e4a565b60005b600183516103b49190612a1e565b8111610471576103ce674493f57a13e06eae60c01b611e4a565b6103e26754ae3bf779289c9e60c01b611e4a565b838382815181106103f6576103f5612a9b565b5b6020026020010151141561044a57610418672078fe6b712852e160c01b611e4a565b61042c67d2cdd4b87252b3f460c01b611e4a565b61044067292d9ce1ac9508e760c01b611e4a565b600191505061049f565b61045e673417aa66a8c53de960c01b611e4a565b808061046990612a52565b9150506103a6565b506104866727dae45036a6e6eb60c01b611e4a565b61049a67ef8afe7bc8a33a8360c01b611e4a565b600090505b92915050565b6104b967103c1b189f9e0fb360c01b611e4a565b6104cd677ab33a8cb606307660c01b611e4d565b6104e167282a066949985c9860c01b611e4d565b6104f567cd8342d149db9c5760c01b611e4d565b610509675cffb0bb3bf2a53a60c01b611e4d565b60008054906101000a900473ffffffffffffffffffffffffffffffffffffffff1673ffffffffffffffffffffffffffffffffffffffff163373ffffffffffffffffffffffffffffffffffffffff1614610597576040517f08c379a000000000000000000000000000000000000000000000000000000000815260040161058e90612b27565b60405180910390fd5b6105ab6714158f152cad051d60c01b611e4d565b6105bf671cdc2f83909290e160c01b611e4d565b6105d3675c730a4f807fe17c60c01b611e4a565b6105e76787fb95f4a2f6669160c01b611e4a565b6105fb67d86092efc26640e060c01b611e4a565b61060f67ff6b6ae0b01b0f4360c01b611e4a565b6000600380549050141561065e576106316769e6d006ff22d98960c01b611e4a565b610645676086aed0921974dd60c01b611e4a565b6106596772f6f4652d91d09f60c01b611e4a565b6108fc565b61067267d96724d22d799ed060c01b611e4a565b61068667495c596544380af460c01b611e4a565b61069a67d458b9043ca2168860c01b611e4a565b60005b60016003805490506106af9190612a1e565b8111610765576106c967d7a590a941c0704e60c01b611e4a565b60016000600383815481106106e1576106e0612a9b565b5b9060005260206000200160009054906101000a900473ffffffffffffffffffffffffffffffffffffffff1673ffffffffffffffffffffffffffffffffffffffff1673ffffffffffffffffffffffffffffffffffffffff168152602001908152602001600020600061075291906125a7565b808061075d90612a52565b91505061069d565b5061077a678b00961562058a9e60c01b611e4a565b6003600061078891906125c8565b61079c67ed6198810f7cf75460c01b611e4a565b6107b06713905cd01137130960c01b611e4a565b60005b60045481116108fa576107d067085005a789b974e960c01b611e4a565b6107e4670e236f8a20ed3f0960c01b611e4a565b60006002600083815260200190815260200160002060009054906101000a900473ffffffffffffffffffffffffffffffffffffffff1690506108306715293a6d12b5de7f60c01b611e4a565b60006002600084815260200190815260200160002060006101000a81548173ffffffffffffffffffffffffffffffffffffffff021916908373ffffffffffffffffffffffffffffffffffffffff1602179055506108976760d16e9ff56e8ec560c01b611e4a565b6108ab6723ac5db09cb0e27060c01b611e4a565b7fa3be76334976c368b4726800022e50475912fa6a8dc117941a00e82e1fc50f258282336040516108de93929190612b47565b60405180910390a15080806108f290612a52565b9150506107b3565b505b565b6000610914672730085322c887d960c01b611e4d565b6109286777f9b46e1a2e8f4b60c01b611e4d565b61093c67b9824fc0f9b8967660c01b611e4d565b60008054906101000a900473ffffffffffffffffffffffffffffffffffffffff16905090565b61097667e09271d7cbd3dcdb60c01b611e4a565b61098a67d045d931595083a060c01b611e4a565b61099e67f6b8ef807bb87bf460c01b611e4a565b6109b2673b2fce12bff4b44560c01b611e4a565b6004548282905011156109fa576040517f08c379a00000000000000000000000000000000000000000000000000000000081526004016109f190612bf0565b60405180910390fd5b610a0e67df4c78bce94abfeb60c01b611e4a565b610a2267a7108e03ffb21a8360c01b611e4a565b610a3667fd1e783828a1e16760c01b611e4a565b60005b600183839050610a499190612a1e565b8111610e1c57610a6367a8324968e76a9c4f60c01b611e4a565b610a77677bff0d1839c345d960c01b611e4a565b6000838383818110610a8c57610a8b612a9b565b5b905060200201359050610aa9678a9cea6c3f172a4d60c01b611e4a565b610abd679e0d4784b12444a260c01b611e4a565b610ad167f8638fd930b9724760c01b611e4a565b6001600454610ae09190612a1e565b811115610b22576040517f08c379a0000000000000000000000000000000000000000000000000000000008152600401610b1990612c5c565b60405180910390fd5b610b3667ad7cbb557a0413c960c01b611e4a565b610b4a67d97d25ab6915a25860c01b611e4a565b610b5e675b530154c667dde160c01b611e4a565b610b7267f8d3d383af68888a60c01b611e4a565b600073ffffffffffffffffffffffffffffffffffffffff166002600083815260200190815260200160002060009054906101000a900473ffffffffffffffffffffffffffffffffffffffff1673ffffffffffffffffffffffffffffffffffffffff1614610c14576040517f08c379a0000000000000000000000000000000000000000000000000000000008152600401610c0b90612d14565b60405180910390fd5b610c2867ac874eb266406d5060c01b611e4a565b610c3c67c7430dfe22612ed860c01b611e4a565b610c506758a2cc956d4188d560c01b611e4a565b6003339080600181540180825580915050600190039060005260206000200160009091909190916101000a81548173ffffffffffffffffffffffffffffffffffffffff021916908373ffffffffffffffffffffffffffffffffffffffff160217905550610cc7675dbc90838970267960c01b611e4a565b610cdb67201dd51417d9a8ee60c01b611e4a565b600160003373ffffffffffffffffffffffffffffffffffffffff1673ffffffffffffffffffffffffffffffffffffffff168152602001908152602001600020819080600181540180825580915050600190039060005260206000200160009091909190915055610d55679ce1782f2fd6b47c60c01b611e4a565b336002600083815260200190815260200160002060006101000a81548173ffffffffffffffffffffffffffffffffffffffff021916908373ffffffffffffffffffffffffffffffffffffffff160217905550610dbb670e9c88b0bfe71db260c01b611e4a565b610dcf6725f8f541e4d6d27060c01b611e4a565b7f672b59f7ae6f9ce32310639926243c8a7b423f2c4be780b7f555215a737af7768133604051610e00929190612d34565b60405180910390a1508080610e1490612a52565b915050610a39565b505050565b610e3567b3b2f3441ac190da60c01b611e4d565b610e49677ab33a8cb606307660c01b611e4d565b610e5d67282a066949985c9860c01b611e4d565b610e7167cd8342d149db9c5760c01b611e4d565b610e85675cffb0bb3bf2a53a60c01b611e4d565b60008054906101000a900473ffffffffffffffffffffffffffffffffffffffff1673ffffffffffffffffffffffffffffffffffffffff163373ffffffffffffffffffffffffffffffffffffffff1614610f13576040517f08c379a0000000000000000000000000000000000000000000000000000000008152600401610f0a90612b27565b60405180910390fd5b610f276714158f152cad051d60c01b611e4d565b610f3b671cdc2f83909290e160c01b611e4d565b610f4f67b5410b4a1734a85a60c01b611e4d565b610f6367c7127eeb719dddda60c01b611e4d565b610f7767f009a8dec4a04c8260c01b611e4d565b610f8b6713dbdd1926ad67a360c01b611e4d565b8073ffffffffffffffffffffffffffffffffffffffff1660008054906101000a900473ffffffffffffffffffffffffffffffffffffffff1673ffffffffffffffffffffffffffffffffffffffff167f342827c97908e5e2f71151c08502a66d44b6f758e3ac2f1de95f02eb95f0a73560405160405180910390a361101967f86179900778769860c01b611e4d565b806000806101000a81548173ffffffffffffffffffffffffffffffffffffffff021916908373ffffffffffffffffffffffffffffffffffffffff16021790555050565b61107067adc8e639d9b3776660c01b611e4a565b61108467cd022acc8310768960c01b611e4a565b61109867c47c462227fdd45460c01b611e4a565b6110ac67b64f1b67871ea33560c01b611e4a565b6004548282905011156110f4576040517f08c379a00000000000000000000000000000000000000000000000000000000081526004016110eb90612dcf565b60405180910390fd5b61110867a014a8457c742fe360c01b611e4a565b61111c67a9c63fd99b7ce43360c01b611e4a565b61113067f6d998785915d3df60c01b611e4a565b60005b6001838390506111439190612a1e565b81116115765761115d67222927a0445b0a6d60c01b611e4a565b61117167a68899188c4a2e3860c01b611e4a565b600083838381811061118657611185612a9b565b5b9050602002013590506111a367593887961f737eb960c01b611e4a565b6111b7670298931136fdde2460c01b611e4a565b6111cb67b43cf6c237d1232360c01b611e4a565b60016004546111da9190612a1e565b81111561121c576040517f08c379a000000000000000000000000000000000000000000000000000000000815260040161121390612c5c565b60405180910390fd5b61123067d999ba80551e01fa60c01b611e4a565b61124467a25df037120a8b2d60c01b611e4a565b611258670166e7e6921840c260c01b611e4a565b61126c6793283d8049cf7cca60c01b611e4a565b61130381600160003373ffffffffffffffffffffffffffffffffffffffff1673ffffffffffffffffffffffffffffffffffffffff1681526020019081526020016000208054806020026020016040519081016040528092919081815260200182805480156112f957602002820191906000526020600020905b8154815260200190600101908083116112e5575b5050505050610365565b611342576040517f08c379a000000000000000000000000000000000000000000000000000000000815260040161133990612e61565b60405180910390fd5b611356674d52dca9b48df43560c01b611e4a565b61136a6744a2ae20acae0a5b60c01b611e4a565b61137e67cc90f1c62c6098ae60c01b611e4a565b6113c6600160003373ffffffffffffffffffffffffffffffffffffffff1673ffffffffffffffffffffffffffffffffffffffff16815260200190815260200160002082611e50565b6113da67b3d39d4c7dbb669060c01b611e4a565b6113ee67ccefc2c9c9de92f660c01b611e4a565b6000600160003373ffffffffffffffffffffffffffffffffffffffff1673ffffffffffffffffffffffffffffffffffffffff1681526020019081526020016000208054905014156114835761144d67f486d08b0c32c05360c01b611e4a565b61146167393c2661c1202dc460c01b611e4a565b61147567044da4f2da19fa3c60c01b611e4a565b61147e33611ed1565b611498565b611497674479bb0bca16d6b960c01b611e4a565b5b6114ac6742d4bce50d85e3ce60c01b611e4a565b60006002600083815260200190815260200160002060006101000a81548173ffffffffffffffffffffffffffffffffffffffff021916908373ffffffffffffffffffffffffffffffffffffffff16021790555061151367a67d19eac5577dd960c01b611e4a565b61152767487b9f6dd542ff8660c01b611e4a565b7fa3be76334976c368b4726800022e50475912fa6a8dc117941a00e82e1fc50f2581333360405161155a93929190612b47565b60405180910390a150808061156e90612a52565b915050611133565b505050565b61158f67d7b72fef54d62f7760c01b611e4a565b6115a3677ab33a8cb606307660c01b611e4d565b6115b767282a066949985c9860c01b611e4d565b6115cb67cd8342d149db9c5760c01b611e4d565b6115df675cffb0bb3bf2a53a60c01b611e4d565b60008054906101000a900473ffffffffffffffffffffffffffffffffffffffff1673ffffffffffffffffffffffffffffffffffffffff163373ffffffffffffffffffffffffffffffffffffffff161461166d576040517f08c379a000000000000000000000000000000000000000000000000000000000815260040161166490612b27565b60405180910390fd5b6116816714158f152cad051d60c01b611e4d565b611695671cdc2f83909290e160c01b611e4d565b6116a967c1ce1ca5dca03cea60c01b611e4a565b6116bd671039d637fd936bce60c01b611e4a565b6116d167a3b427cb3584e53860c01b611e4a565b80600460008282546116e39190612e81565b9250508190555050565b60006117036747c7b43e98eae89060c01b611e4a565b611717678aa2bcd54cb96f3d60c01b611e4a565b61172b6752415f04333c54d360c01b611e4a565b600454905090565b611747676ea253dc2a22abde60c01b611e4a565b61175b677ab33a8cb606307660c01b611e4d565b61176f67282a066949985c9860c01b611e4d565b61178367cd8342d149db9c5760c01b611e4d565b611797675cffb0bb3bf2a53a60c01b611e4d565b60008054906101000a900473ffffffffffffffffffffffffffffffffffffffff1673ffffffffffffffffffffffffffffffffffffffff163373ffffffffffffffffffffffffffffffffffffffff1614611825576040517f08c379a000000000000000000000000000000000000000000000000000000000815260040161181c90612b27565b60405180910390fd5b6118396714158f152cad051d60c01b611e4d565b61184d671cdc2f83909290e160c01b611e4d565b611861675222ca343791d25860c01b611e4a565b61187567e0d39a026699f29460c01b611e4a565b611889671945c86c0900ced960c01b611e4a565b61189d6711776dfc22014e8d60c01b611e4a565b6118b1671208368cce6933b960c01b611e4a565b6004548282905011156118f9576040517f08c379a00000000000000000000000000000000000000000000000000000000081526004016118f090612dcf565b60405180910390fd5b61190d67f5e1d8b7612c7fde60c01b611e4a565b6119216712cd701b683b652c60c01b611e4a565b61193567a27abd6e3cd6662160c01b611e4a565b60005b6001838390506119489190612a1e565b8111611da95761196267ccf2faee914f3ff560c01b611e4a565b61197667c86d343b519419a260c01b611e4a565b600083838381811061198b5761198a612a9b565b5b9050602002013590506119a867cdb1aa871dc2f26860c01b611e4a565b6119bc67233fbafc82ba6e7d60c01b611e4a565b6119d0678be0e07a4a79367e60c01b611e4a565b60016004546119df9190612a1e565b811115611a21576040517f08c379a0000000000000000000000000000000000000000000000000000000008152600401611a1890612c5c565b60405180910390fd5b611a3567b6e104ea78c55b1260c01b611e4a565b611a496735e7503a0f5542d860c01b611e4a565b611a5d67bc4ed8bef775acac60c01b611e4a565b611a7167b4c63d3d894b073760c01b611e4a565b600073ffffffffffffffffffffffffffffffffffffffff166002600083815260200190815260200160002060009054906101000a900473ffffffffffffffffffffffffffffffffffffffff1673ffffffffffffffffffffffffffffffffffffffff161415611b14576040517f08c379a0000000000000000000000000000000000000000000000000000000008152600401611b0b90612f49565b60405180910390fd5b611b2867d1c76f9a1854df9660c01b611e4a565b611b3c676d02a8e29e035f9460c01b611e4a565b611b5067fa91d1699799c0dc60c01b611e4a565b60006002600083815260200190815260200160002060009054906101000a900473ffffffffffffffffffffffffffffffffffffffff169050611b9c67e08e5b071c33ca6860c01b611e4a565b611bb0677fae012aa989a30b60c01b611e4a565b611bf8600160008373ffffffffffffffffffffffffffffffffffffffff1673ffffffffffffffffffffffffffffffffffffffff16815260200190815260200160002083611e50565b611c0c6744bec608331d572960c01b611e4a565b611c20674da98387350f474660c01b611e4a565b6000600160008373ffffffffffffffffffffffffffffffffffffffff1673ffffffffffffffffffffffffffffffffffffffff168152602001908152602001600020805490501415611cb557611c7f67ed50029c7481fdea60c01b611e4a565b611c93679ad5f6b9c611bbac60c01b611e4a565b611ca7673989d42118390f4160c01b611e4a565b611cb081611ed1565b611cca565b611cc967c31d81fbe05a804360c01b611e4a565b5b611cde67b6324cdc1170667d60c01b611e4a565b60006002600084815260200190815260200160002060006101000a81548173ffffffffffffffffffffffffffffffffffffffff021916908373ffffffffffffffffffffffffffffffffffffffff160217905550611d4567382f189193acd1d560c01b611e4a565b611d596746be9242211c3d0e60c01b611e4a565b7fa3be76334976c368b4726800022e50475912fa6a8dc117941a00e82e1fc50f25828233604051611d8c93929190612b47565b60405180910390a150508080611da190612a52565b915050611938565b505050565b611e468282604051602401611dc4929190612fe0565b6040516020818303038152906040527f319af333000000000000000000000000000000000000000000000000000000007bffffffffffffffffffffffffffffffffffffffffffffffffffffffff19166020820180517bffffffffffffffffffffffffffffffffffffffffffffffffffffffff8381831617835250505050611f4f565b5050565b50565b50565b611e6467499bb9ffaae84d9560c01b611e4a565b611e7867e123dc2f20358cea60c01b611e4a565b611e8c6750cd023ccff87e2160c01b611e4a565b6000611e988383611f78565b9050611eae67e7aadf62f954b10060c01b611e4a565b611ec2678482b3213009800260c01b611e4a565b611ecc83826120f3565b505050565b611ee56729c1cb78719d331560c01b611e4a565b611ef967a15c41c0bb9b47d760c01b611e4a565b611f0d67d172dc1e91ca12ff60c01b611e4a565b6000611f188261228e565b9050611f2e67ed3971981253e80e60c01b611e4a565b611f4267e7d15bd37e6e96af60c01b611e4a565b611f4b81612456565b5050565b60008151905060006a636f6e736f6c652e6c6f679050602083016000808483855afa5050505050565b6000611f8e67bfb8c58298d0644d60c01b611e4a565b611fa267113a266cfdb3a07160c01b611e4a565b611fb6676bfb4c9dd4676a5660c01b611e4a565b60005b60018480549050611fca9190612a1e565b811161208957611fe46791346372c69b404a60c01b611e4a565b611ff867921b6c37fa79cc7a60c01b611e4a565b8284828154811061200c5761200b612a9b565b5b9060005260206000200154141561206257612031676ed817ccaa72b80660c01b611e4a565b612045673d73d7c1f446aad260c01b611e4a565b61205967cb7470977e159dbe60c01b611e4a565b809150506120ed565b6120766793201a8f80ce5a0a60c01b611e4a565b808061208190612a52565b915050611fb9565b5061209e670c7aac0ecdbbd15260c01b611e4a565b6120b26792f1b569184cf73e60c01b611e4a565b6040517f08c379a00000000000000000000000000000000000000000000000000000000081526004016120e490613082565b60405180910390fd5b92915050565b612107679ac8dbe8d71c91ef60c01b611e4a565b61211b6762862a731f8e6ec560c01b611e4a565b61212f678eac1ffef1c865ea60c01b611e4a565b60008280549050148015612153575061215267a53248240483f81660c01b61259c565b5b8061217e57508180549050811015801561217d575061217c6735bec3025870c5d260c01b61259c565b5b5b156121c4576121976749dd58dc116824e360c01b611e4a565b6121ab67241ac41168ca93d560c01b611e4a565b6121bf67908607946a8b4c8f60c01b611e4a565b600080fd5b6121d86783c9954a4080b44460c01b611e4a565b6121ec67b2a6e24dd27c417460c01b611e4a565b81600183805490506121fe9190612a1e565b8154811061220f5761220e612a9b565b5b906000526020600020015482828154811061222d5761222c612a9b565b5b906000526020600020018190555061224f67430017887dc2b41860c01b611e4a565b61226367deda8aef8764a12960c01b611e4a565b81805480612274576122736130a2565b5b600190038181906000526020600020016000905590555050565b60006122a46730da624578dd70fb60c01b611e4a565b6122b867f7c301ff0c3faab860c01b611e4a565b6122cc6709c775c45eb63e2b60c01b611e4a565b60005b60016003805490506122e19190612a1e565b81116123ed576122fb670552ee50d6453dcf60c01b611e4a565b61230f672f967b6379e0168960c01b611e4a565b8273ffffffffffffffffffffffffffffffffffffffff166003828154811061233a57612339612a9b565b5b9060005260206000200160009054906101000a900473ffffffffffffffffffffffffffffffffffffffff1673ffffffffffffffffffffffffffffffffffffffff1614156123c65761239567ddf9430cfab1f57d60c01b611e4a565b6123a9677d9460f6c9dd018c60c01b611e4a565b6123bd67470cf6419eef98d760c01b611e4a565b80915050612451565b6123da67ef01ce1a36a5d47660c01b611e4a565b80806123e590612a52565b9150506122cf565b5061240267fd59c8152fc472ba60c01b611e4a565b61241667fac5abcc585c584a60c01b611e4a565b6040517f08c379a000000000000000000000000000000000000000000000000000000000815260040161244890613143565b60405180910390fd5b919050565b61246a673d4a7529e29448fc60c01b611e4a565b61247e67120b99f019a453ec60c01b611e4a565b600360016003805490506124929190612a1e565b815481106124a3576124a2612a9b565b5b9060005260206000200160009054906101000a900473ffffffffffffffffffffffffffffffffffffffff16600382815481106124e2576124e1612a9b565b5b9060005260206000200160006101000a81548173ffffffffffffffffffffffffffffffffffffffff021916908373ffffffffffffffffffffffffffffffffffffffff16021790555061253e67141038852ae6c36e60c01b611e4a565b61255267a19d6ad0b11c80ba60c01b611e4a565b6003805480612564576125636130a2565b5b6001900381819060005260206000200160006101000a81549073ffffffffffffffffffffffffffffffffffffffff0219169055905550565b600060019050919050565b50805460008255906000526020600020908101906125c591906125e9565b50565b50805460008255906000526020600020908101906125e691906125e9565b50565b5b808211156126025760008160009055506001016125ea565b5090565b6000819050919050565b61261981612606565b82525050565b60006020820190506126346000830184612610565b92915050565b6000604051905090565b600080fd5b600080fd5b61265781612606565b811461266257600080fd5b50565b6000813590506126748161264e565b92915050565b600080fd5b6000601f19601f8301169050919050565b7f4e487b7100000000000000000000000000000000000000000000000000000000600052604160045260246000fd5b6126c88261267f565b810181811067ffffffffffffffff821117156126e7576126e6612690565b5b80604052505050565b60006126fa61263a565b905061270682826126bf565b919050565b600067ffffffffffffffff82111561272657612725612690565b5b602082029050602081019050919050565b600080fd5b600061274f61274a8461270b565b6126f0565b9050808382526020820190506020840283018581111561277257612771612737565b5b835b8181101561279b57806127878882612665565b845260208401935050602081019050612774565b5050509392505050565b600082601f8301126127ba576127b961267a565b5b81356127ca84826020860161273c565b91505092915050565b600080604083850312156127ea576127e9612644565b5b60006127f885828601612665565b925050602083013567ffffffffffffffff81111561281957612818612649565b5b612825858286016127a5565b9150509250929050565b60008115159050919050565b6128448161282f565b82525050565b600060208201905061285f600083018461283b565b92915050565b600073ffffffffffffffffffffffffffffffffffffffff82169050919050565b600061289082612865565b9050919050565b6128a081612885565b82525050565b60006020820190506128bb6000830184612897565b92915050565b600080fd5b60008083601f8401126128dc576128db61267a565b5b8235905067ffffffffffffffff8111156128f9576128f86128c1565b5b60208301915083602082028301111561291557612914612737565b5b9250929050565b6000806020838503121561293357612932612644565b5b600083013567ffffffffffffffff81111561295157612950612649565b5b61295d858286016128c6565b92509250509250929050565b61297281612885565b811461297d57600080fd5b50565b60008135905061298f81612969565b92915050565b6000602082840312156129ab576129aa612644565b5b60006129b984828501612980565b91505092915050565b6000602082840312156129d8576129d7612644565b5b60006129e684828501612665565b91505092915050565b7f4e487b7100000000000000000000000000000000000000000000000000000000600052601160045260246000fd5b6000612a2982612606565b9150612a3483612606565b925082821015612a4757612a466129ef565b5b828203905092915050565b6000612a5d82612606565b91507fffffffffffffffffffffffffffffffffffffffffffffffffffffffffffffffff821415612a9057612a8f6129ef565b5b600182019050919050565b7f4e487b7100000000000000000000000000000000000000000000000000000000600052603260045260246000fd5b600082825260208201905092915050565b7f43616c6c6572206973206e6f74206f776e657200000000000000000000000000600082015250565b6000612b11601383612aca565b9150612b1c82612adb565b602082019050919050565b60006020820190508181036000830152612b4081612b04565b9050919050565b6000606082019050612b5c6000830186612610565b612b696020830185612897565b612b766040830184612897565b949350505050565b7f546865206e756d626572206f6620726f6f6d7320796f7520617265207472796960008201527f6e6720746f207265736572766520697320746f6f206269670000000000000000602082015250565b6000612bda603883612aca565b9150612be582612b7e565b604082019050919050565b60006020820190508181036000830152612c0981612bcd565b9050919050565b7f54686520726f6f6d206e756d626572206973206f7574206f662072616e676500600082015250565b6000612c46601f83612aca565b9150612c5182612c10565b602082019050919050565b60006020820190508181036000830152612c7581612c39565b9050919050565b7f596f7572207265736572766174696f6e2063616e6e6f7420626520636f6d706c60008201527f657465642c2062656361757365206120726f6f6d20796f752077616e7420697360208201527f20616c7265616479206f63637570696564000000000000000000000000000000604082015250565b6000612cfe605183612aca565b9150612d0982612c7c565b606082019050919050565b60006020820190508181036000830152612d2d81612cf1565b9050919050565b6000604082019050612d496000830185612610565b612d566020830184612897565b9392505050565b7f546865206e756d626572206f6620726f6f6d7320796f7520617265207472796960008201527f6e6720746f206672656520697320746f6f206269670000000000000000000000602082015250565b6000612db9603583612aca565b9150612dc482612d5d565b604082019050919050565b60006020820190508181036000830152612de881612dac565b9050919050565b7f596f7520617265206e6f7420616c6c6f77656420746f2066726565206120726f60008201527f6f6d20796f7520646f6e2774206f636375707900000000000000000000000000602082015250565b6000612e4b603383612aca565b9150612e5682612def565b604082019050919050565b60006020820190508181036000830152612e7a81612e3e565b9050919050565b6000612e8c82612606565b9150612e9783612606565b9250827fffffffffffffffffffffffffffffffffffffffffffffffffffffffffffffffff03821115612ecc57612ecb6129ef565b5b828201905092915050565b7f54686520726f6f6d2063616e6e6f742062652066726565642c2062656361757360008201527f65206974206973206e6f74206f63637570696564000000000000000000000000602082015250565b6000612f33603483612aca565b9150612f3e82612ed7565b604082019050919050565b60006020820190508181036000830152612f6281612f26565b9050919050565b600081519050919050565b60005b83811015612f92578082015181840152602081019050612f77565b83811115612fa1576000848401525b50505050565b6000612fb282612f69565b612fbc8185612aca565b9350612fcc818560208601612f74565b612fd58161267f565b840191505092915050565b60006040820190508181036000830152612ffa8185612fa7565b90506130096020830184612897565b9392505050565b7f546865207375626d69747465642076616c756520636f756c646e27742062652060008201527f666f756e6420696e207468652072657370656374697665206172726179210000602082015250565b600061306c603e83612aca565b915061307782613010565b604082019050919050565b6000602082019050818103600083015261309b8161305f565b9050919050565b7f4e487b7100000000000000000000000000000000000000000000000000000000600052603160045260246000fd5b7f54686520726573706563746976652061646472657373206973206e6f7420612060008201527f636c69656e74206f662074686520486f6e65737420486f74656c210000000000602082015250565b600061312d603b83612aca565b9150613138826130d1565b604082019050919050565b6000602082019050818103600083015261315c81613120565b905091905056fea264697066735822122016309895e8b0dd6a01d8864bdbb13c75e859d77208cc751f2e5c45ba0c44939564736f6c63430008090033","opcodes":"PUSH1 0x80 PUSH1 0x40 MSTORE CALLVALUE DUP1 ISZERO PUSH3 0x11 JUMPI PUSH1 0x0 DUP1 REVERT JUMPDEST POP PUSH1 0x40 MLOAD PUSH3 0x3639 CODESIZE SUB DUP1 PUSH3 0x3639 DUP4 CODECOPY DUP2 DUP2 ADD PUSH1 0x40 MSTORE DUP2 ADD SWAP1 PUSH3 0x37 SWAP2 SWAP1 PUSH3 0x341 JUMP JUMPDEST PUSH3 0x53 PUSH8 0x8B11FB289D56593C PUSH1 0xC0 SHL PUSH3 0x22C PUSH1 0x20 SHL PUSH1 0x20 SHR JUMP JUMPDEST PUSH3 0x6F PUSH8 0x445F245CB1BCA281 PUSH1 0xC0 SHL PUSH3 0x22C PUSH1 0x20 SHL PUSH1 0x20 SHR JUMP JUMPDEST PUSH3 0x8B PUSH8 0xB7BFF48B7C2C06AB PUSH1 0xC0 SHL PUSH3 0x22C PUSH1 0x20 SHL PUSH1 0x20 SHR JUMP JUMPDEST PUSH3 0xD7 PUSH1 0x40 MLOAD DUP1 PUSH1 0x40 ADD PUSH1 0x40 MSTORE DUP1 PUSH1 0x1B DUP2 MSTORE PUSH1 0x20 ADD PUSH32 0x4F776E657220636F6E7472616374206465706C6F7965642062793A0000000000 DUP2 MSTORE POP CALLER PUSH3 0x22F PUSH1 0x20 SHL PUSH3 0x1DAE OR PUSH1 0x20 SHR JUMP JUMPDEST PUSH3 0xF3 PUSH8 0x6AA84991B9856E9E PUSH1 0xC0 SHL PUSH3 0x22C PUSH1 0x20 SHL PUSH1 0x20 SHR JUMP JUMPDEST CALLER PUSH1 0x0 DUP1 PUSH2 0x100 EXP DUP2 SLOAD DUP2 PUSH20 0xFFFFFFFFFFFFFFFFFFFFFFFFFFFFFFFFFFFFFFFF MUL NOT AND SWAP1 DUP4 PUSH20 0xFFFFFFFFFFFFFFFFFFFFFFFFFFFFFFFFFFFFFFFF AND MUL OR SWAP1 SSTORE POP PUSH3 0x14F PUSH8 0xB0E568373FAD74D6 PUSH1 0xC0 SHL PUSH3 0x22C PUSH1 0x20 SHL PUSH1 0x20 SHR JUMP JUMPDEST PUSH3 0x16B PUSH8 0xFB99474C7207F134 PUSH1 0xC0 SHL PUSH3 0x22C PUSH1 0x20 SHL PUSH1 0x20 SHR JUMP JUMPDEST PUSH1 0x0 DUP1 SLOAD SWAP1 PUSH2 0x100 EXP SWAP1 DIV PUSH20 0xFFFFFFFFFFFFFFFFFFFFFFFFFFFFFFFFFFFFFFFF AND PUSH20 0xFFFFFFFFFFFFFFFFFFFFFFFFFFFFFFFFFFFFFFFF AND PUSH1 0x0 PUSH20 0xFFFFFFFFFFFFFFFFFFFFFFFFFFFFFFFFFFFFFFFF AND PUSH32 0x342827C97908E5E2F71151C08502A66D44B6F758E3AC2F1DE95F02EB95F0A735 PUSH1 0x40 MLOAD PUSH1 0x40 MLOAD DUP1 SWAP2 SUB SWAP1 LOG3 PUSH3 0x202 PUSH8 0x73F53794FB630D7A PUSH1 0xC0 SHL PUSH3 0x2D5 PUSH1 0x20 SHL PUSH1 0x20 SHR JUMP JUMPDEST PUSH3 0x21E PUSH8 0xCCE47783EC6CBCE6 PUSH1 0xC0 SHL PUSH3 0x2D5 PUSH1 0x20 SHL PUSH1 0x20 SHR JUMP JUMPDEST DUP1 PUSH1 0x4 DUP2 SWAP1 SSTORE POP POP PUSH3 0x490 JUMP JUMPDEST POP JUMP JUMPDEST PUSH3 0x2D1 DUP3 DUP3 PUSH1 0x40 MLOAD PUSH1 0x24 ADD PUSH3 0x248 SWAP3 SWAP2 SWAP1 PUSH3 0x45C JUMP JUMPDEST PUSH1 0x40 MLOAD PUSH1 0x20 DUP2 DUP4 SUB SUB DUP2 MSTORE SWAP1 PUSH1 0x40 MSTORE PUSH32 0x319AF33300000000000000000000000000000000000000000000000000000000 PUSH28 0xFFFFFFFFFFFFFFFFFFFFFFFFFFFFFFFFFFFFFFFFFFFFFFFFFFFFFFFF NOT AND PUSH1 0x20 DUP3 ADD DUP1 MLOAD PUSH28 0xFFFFFFFFFFFFFFFFFFFFFFFFFFFFFFFFFFFFFFFFFFFFFFFFFFFFFFFF DUP4 DUP2 DUP4 AND OR DUP4 MSTORE POP POP POP POP PUSH3 0x2D8 PUSH1 0x20 SHL PUSH1 0x20 SHR JUMP JUMPDEST POP POP JUMP JUMPDEST POP JUMP JUMPDEST PUSH1 0x0 DUP2 MLOAD SWAP1 POP PUSH1 0x0 PUSH11 0x636F6E736F6C652E6C6F67 SWAP1 POP PUSH1 0x20 DUP4 ADD PUSH1 0x0 DUP1 DUP5 DUP4 DUP6 GAS STATICCALL POP POP POP POP POP JUMP JUMPDEST PUSH1 0x0 DUP1 REVERT JUMPDEST PUSH1 0x0 DUP2 SWAP1 POP SWAP2 SWAP1 POP JUMP JUMPDEST PUSH3 0x31B DUP2 PUSH3 0x306 JUMP JUMPDEST DUP2 EQ PUSH3 0x327 JUMPI PUSH1 0x0 DUP1 REVERT JUMPDEST POP JUMP JUMPDEST PUSH1 0x0 DUP2 MLOAD SWAP1 POP PUSH3 0x33B DUP2 PUSH3 0x310 JUMP JUMPDEST SWAP3 SWAP2 POP POP JUMP JUMPDEST PUSH1 0x0 PUSH1 0x20 DUP3 DUP5 SUB SLT ISZERO PUSH3 0x35A JUMPI PUSH3 0x359 PUSH3 0x301 JUMP JUMPDEST JUMPDEST PUSH1 0x0 PUSH3 0x36A DUP5 DUP3 DUP6 ADD PUSH3 0x32A JUMP JUMPDEST SWAP2 POP POP SWAP3 SWAP2 POP POP JUMP JUMPDEST PUSH1 0x0 DUP2 MLOAD SWAP1 POP SWAP2 SWAP1 POP JUMP JUMPDEST PUSH1 0x0 DUP3 DUP3 MSTORE PUSH1 0x20 DUP3 ADD SWAP1 POP SWAP3 SWAP2 POP POP JUMP JUMPDEST PUSH1 0x0 JUMPDEST DUP4 DUP2 LT ISZERO PUSH3 0x3AF JUMPI DUP1 DUP3 ADD MLOAD DUP2 DUP5 ADD MSTORE PUSH1 0x20 DUP2 ADD SWAP1 POP PUSH3 0x392 JUMP JUMPDEST DUP4 DUP2 GT ISZERO PUSH3 0x3BF JUMPI PUSH1 0x0 DUP5 DUP5 ADD MSTORE JUMPDEST POP POP POP POP JUMP JUMPDEST PUSH1 0x0 PUSH1 0x1F NOT PUSH1 0x1F DUP4 ADD AND SWAP1 POP SWAP2 SWAP1 POP JUMP JUMPDEST PUSH1 0x0 PUSH3 0x3E3 DUP3 PUSH3 0x373 JUMP JUMPDEST PUSH3 0x3EF DUP2 DUP6 PUSH3 0x37E JUMP JUMPDEST SWAP4 POP PUSH3 0x401 DUP2 DUP6 PUSH1 0x20 DUP7 ADD PUSH3 0x38F JUMP JUMPDEST PUSH3 0x40C DUP2 PUSH3 0x3C5 JUMP JUMPDEST DUP5 ADD SWAP2 POP POP SWAP3 SWAP2 POP POP JUMP JUMPDEST PUSH1 0x0 PUSH20 0xFFFFFFFFFFFFFFFFFFFFFFFFFFFFFFFFFFFFFFFF DUP3 AND SWAP1 POP SWAP2 SWAP1 POP JUMP JUMPDEST PUSH1 0x0 PUSH3 0x444 DUP3 PUSH3 0x417 JUMP JUMPDEST SWAP1 POP SWAP2 SWAP1 POP JUMP JUMPDEST PUSH3 0x456 DUP2 PUSH3 0x437 JUMP JUMPDEST DUP3 MSTORE POP POP JUMP JUMPDEST PUSH1 0x0 PUSH1 0x40 DUP3 ADD SWAP1 POP DUP2 DUP2 SUB PUSH1 0x0 DUP4 ADD MSTORE PUSH3 0x478 DUP2 DUP6 PUSH3 0x3D6 JUMP JUMPDEST SWAP1 POP PUSH3 0x489 PUSH1 0x20 DUP4 ADD DUP5 PUSH3 0x44B JUMP JUMPDEST SWAP4 SWAP3 POP POP POP JUMP JUMPDEST PUSH2 0x3199 DUP1 PUSH3 0x4A0 PUSH1 0x0 CODECOPY PUSH1 0x0 RETURN INVALID PUSH1 0x80 PUSH1 0x40 MSTORE CALLVALUE DUP1 ISZERO PUSH2 0x10 JUMPI PUSH1 0x0 DUP1 REVERT JUMPDEST POP PUSH1 0x4 CALLDATASIZE LT PUSH2 0x9E JUMPI PUSH1 0x0 CALLDATALOAD PUSH1 0xE0 SHR DUP1 PUSH4 0xA6F9DAE1 GT PUSH2 0x66 JUMPI DUP1 PUSH4 0xA6F9DAE1 EQ PUSH2 0x135 JUMPI DUP1 PUSH4 0xD94955DF EQ PUSH2 0x151 JUMPI DUP1 PUSH4 0xE0E3738C EQ PUSH2 0x16D JUMPI DUP1 PUSH4 0xEADDDB3C EQ PUSH2 0x189 JUMPI DUP1 PUSH4 0xF68E5F60 EQ PUSH2 0x1A7 JUMPI PUSH2 0x9E JUMP JUMPDEST DUP1 PUSH4 0x18D7B320 EQ PUSH2 0xA3 JUMPI DUP1 PUSH4 0x43F96FE0 EQ PUSH2 0xC1 JUMPI DUP1 PUSH4 0x5B014401 EQ PUSH2 0xF1 JUMPI DUP1 PUSH4 0x893D20E8 EQ PUSH2 0xFB JUMPI DUP1 PUSH4 0x9B4E0EF5 EQ PUSH2 0x119 JUMPI JUMPDEST PUSH1 0x0 DUP1 REVERT JUMPDEST PUSH2 0xAB PUSH2 0x1C3 JUMP JUMPDEST PUSH1 0x40 MLOAD PUSH2 0xB8 SWAP2 SWAP1 PUSH2 0x261F JUMP JUMPDEST PUSH1 0x40 MLOAD DUP1 SWAP2 SUB SWAP1 RETURN JUMPDEST PUSH2 0xDB PUSH1 0x4 DUP1 CALLDATASIZE SUB DUP2 ADD SWAP1 PUSH2 0xD6 SWAP2 SWAP1 PUSH2 0x27D3 JUMP JUMPDEST PUSH2 0x365 JUMP JUMPDEST PUSH1 0x40 MLOAD PUSH2 0xE8 SWAP2 SWAP1 PUSH2 0x284A JUMP JUMPDEST PUSH1 0x40 MLOAD DUP1 SWAP2 SUB SWAP1 RETURN JUMPDEST PUSH2 0xF9 PUSH2 0x4A5 JUMP JUMPDEST STOP JUMPDEST PUSH2 0x103 PUSH2 0x8FE JUMP JUMPDEST PUSH1 0x40 MLOAD PUSH2 0x110 SWAP2 SWAP1 PUSH2 0x28A6 JUMP JUMPDEST PUSH1 0x40 MLOAD DUP1 SWAP2 SUB SWAP1 RETURN JUMPDEST PUSH2 0x133 PUSH1 0x4 DUP1 CALLDATASIZE SUB DUP2 ADD SWAP1 PUSH2 0x12E SWAP2 SWAP1 PUSH2 0x291C JUMP JUMPDEST PUSH2 0x962 JUMP JUMPDEST STOP JUMPDEST PUSH2 0x14F PUSH1 0x4 DUP1 CALLDATASIZE SUB DUP2 ADD SWAP1 PUSH2 0x14A SWAP2 SWAP1 PUSH2 0x2995 JUMP JUMPDEST PUSH2 0xE21 JUMP JUMPDEST STOP JUMPDEST PUSH2 0x16B PUSH1 0x4 DUP1 CALLDATASIZE SUB DUP2 ADD SWAP1 PUSH2 0x166 SWAP2 SWAP1 PUSH2 0x291C JUMP JUMPDEST PUSH2 0x105C JUMP JUMPDEST STOP JUMPDEST PUSH2 0x187 PUSH1 0x4 DUP1 CALLDATASIZE SUB DUP2 ADD SWAP1 PUSH2 0x182 SWAP2 SWAP1 PUSH2 0x29C2 JUMP JUMPDEST PUSH2 0x157B JUMP JUMPDEST STOP JUMPDEST PUSH2 0x191 PUSH2 0x16ED JUMP JUMPDEST PUSH1 0x40 MLOAD PUSH2 0x19E SWAP2 SWAP1 PUSH2 0x261F JUMP JUMPDEST PUSH1 0x40 MLOAD DUP1 SWAP2 SUB SWAP1 RETURN JUMPDEST PUSH2 0x1C1 PUSH1 0x4 DUP1 CALLDATASIZE SUB DUP2 ADD SWAP1 PUSH2 0x1BC SWAP2 SWAP1 PUSH2 0x291C JUMP JUMPDEST PUSH2 0x1733 JUMP JUMPDEST STOP JUMPDEST PUSH1 0x0 PUSH2 0x1D9 PUSH8 0x14ADDDC6C88609EB PUSH1 0xC0 SHL PUSH2 0x1E4A JUMP JUMPDEST PUSH2 0x1ED PUSH8 0x4D22FA06AF38F523 PUSH1 0xC0 SHL PUSH2 0x1E4A JUMP JUMPDEST PUSH2 0x201 PUSH8 0xAC06BBE68269807 PUSH1 0xC0 SHL PUSH2 0x1E4A JUMP JUMPDEST PUSH1 0x0 PUSH2 0x217 PUSH8 0x7BED1210507323BC PUSH1 0xC0 SHL PUSH2 0x1E4A JUMP JUMPDEST PUSH2 0x22B PUSH8 0x7F21BD12EB98F9C5 PUSH1 0xC0 SHL PUSH2 0x1E4A JUMP JUMPDEST PUSH1 0x0 JUMPDEST PUSH1 0x1 PUSH1 0x4 SLOAD PUSH2 0x23D SWAP2 SWAP1 PUSH2 0x2A1E JUMP JUMPDEST DUP2 GT PUSH2 0x335 JUMPI PUSH2 0x257 PUSH8 0x8D0FC171C0F45151 PUSH1 0xC0 SHL PUSH2 0x1E4A JUMP JUMPDEST PUSH2 0x26B PUSH8 0xE64703FBA2BEAA85 PUSH1 0xC0 SHL PUSH2 0x1E4A JUMP JUMPDEST PUSH1 0x0 PUSH20 0xFFFFFFFFFFFFFFFFFFFFFFFFFFFFFFFFFFFFFFFF AND PUSH1 0x2 PUSH1 0x0 DUP4 DUP2 MSTORE PUSH1 0x20 ADD SWAP1 DUP2 MSTORE PUSH1 0x20 ADD PUSH1 0x0 KECCAK256 PUSH1 0x0 SWAP1 SLOAD SWAP1 PUSH2 0x100 EXP SWAP1 DIV PUSH20 0xFFFFFFFFFFFFFFFFFFFFFFFFFFFFFFFFFFFFFFFF AND PUSH20 0xFFFFFFFFFFFFFFFFFFFFFFFFFFFFFFFFFFFFFFFF AND EQ PUSH2 0x30D JUMPI PUSH2 0x2E6 PUSH8 0x10A6B4C0D6C8CEFA PUSH1 0xC0 SHL PUSH2 0x1E4A JUMP JUMPDEST PUSH2 0x2FA PUSH8 0x2752E34F0DF375DF PUSH1 0xC0 SHL PUSH2 0x1E4A JUMP JUMPDEST DUP2 DUP1 PUSH2 0x305 SWAP1 PUSH2 0x2A52 JUMP JUMPDEST SWAP3 POP POP PUSH2 0x322 JUMP JUMPDEST PUSH2 0x321 PUSH8 0x1C8FFCF1825A856F PUSH1 0xC0 SHL PUSH2 0x1E4A JUMP JUMPDEST JUMPDEST DUP1 DUP1 PUSH2 0x32D SWAP1 PUSH2 0x2A52 JUMP JUMPDEST SWAP2 POP POP PUSH2 0x22E JUMP JUMPDEST POP PUSH2 0x34A PUSH8 0x8B4BCE7C177E4ECA PUSH1 0xC0 SHL PUSH2 0x1E4A JUMP JUMPDEST PUSH2 0x35E PUSH8 0x6205B9B2ED160D62 PUSH1 0xC0 SHL PUSH2 0x1E4A JUMP JUMPDEST DUP1 SWAP2 POP POP SWAP1 JUMP JUMPDEST PUSH1 0x0 PUSH2 0x37B PUSH8 0xB7409D3A077A8139 PUSH1 0xC0 SHL PUSH2 0x1E4A JUMP JUMPDEST PUSH2 0x38F PUSH8 0x9BA12E610DC0AA29 PUSH1 0xC0 SHL PUSH2 0x1E4A JUMP JUMPDEST PUSH2 0x3A3 PUSH8 0x8D9D6850799AEAE PUSH1 0xC0 SHL PUSH2 0x1E4A JUMP JUMPDEST PUSH1 0x0 JUMPDEST PUSH1 0x1 DUP4 MLOAD PUSH2 0x3B4 SWAP2 SWAP1 PUSH2 0x2A1E JUMP JUMPDEST DUP2 GT PUSH2 0x471 JUMPI PUSH2 0x3CE PUSH8 0x4493F57A13E06EAE PUSH1 0xC0 SHL PUSH2 0x1E4A JUMP JUMPDEST PUSH2 0x3E2 PUSH8 0x54AE3BF779289C9E PUSH1 0xC0 SHL PUSH2 0x1E4A JUMP JUMPDEST DUP4 DUP4 DUP3 DUP2 MLOAD DUP2 LT PUSH2 0x3F6 JUMPI PUSH2 0x3F5 PUSH2 0x2A9B JUMP JUMPDEST JUMPDEST PUSH1 0x20 MUL PUSH1 0x20 ADD ADD MLOAD EQ ISZERO PUSH2 0x44A JUMPI PUSH2 0x418 PUSH8 0x2078FE6B712852E1 PUSH1 0xC0 SHL PUSH2 0x1E4A JUMP JUMPDEST PUSH2 0x42C PUSH8 0xD2CDD4B87252B3F4 PUSH1 0xC0 SHL PUSH2 0x1E4A JUMP JUMPDEST PUSH2 0x440 PUSH8 0x292D9CE1AC9508E7 PUSH1 0xC0 SHL PUSH2 0x1E4A JUMP JUMPDEST PUSH1 0x1 SWAP2 POP POP PUSH2 0x49F JUMP JUMPDEST PUSH2 0x45E PUSH8 0x3417AA66A8C53DE9 PUSH1 0xC0 SHL PUSH2 0x1E4A JUMP JUMPDEST DUP1 DUP1 PUSH2 0x469 SWAP1 PUSH2 0x2A52 JUMP JUMPDEST SWAP2 POP POP PUSH2 0x3A6 JUMP JUMPDEST POP PUSH2 0x486 PUSH8 0x27DAE45036A6E6EB PUSH1 0xC0 SHL PUSH2 0x1E4A JUMP JUMPDEST PUSH2 0x49A PUSH8 0xEF8AFE7BC8A33A83 PUSH1 0xC0 SHL PUSH2 0x1E4A JUMP JUMPDEST PUSH1 0x0 SWAP1 POP JUMPDEST SWAP3 SWAP2 POP POP JUMP JUMPDEST PUSH2 0x4B9 PUSH8 0x103C1B189F9E0FB3 PUSH1 0xC0 SHL PUSH2 0x1E4A JUMP JUMPDEST PUSH2 0x4CD PUSH8 0x7AB33A8CB6063076 PUSH1 0xC0 SHL PUSH2 0x1E4D JUMP JUMPDEST PUSH2 0x4E1 PUSH8 0x282A066949985C98 PUSH1 0xC0 SHL PUSH2 0x1E4D JUMP JUMPDEST PUSH2 0x4F5 PUSH8 0xCD8342D149DB9C57 PUSH1 0xC0 SHL PUSH2 0x1E4D JUMP JUMPDEST PUSH2 0x509 PUSH8 0x5CFFB0BB3BF2A53A PUSH1 0xC0 SHL PUSH2 0x1E4D JUMP JUMPDEST PUSH1 0x0 DUP1 SLOAD SWAP1 PUSH2 0x100 EXP SWAP1 DIV PUSH20 0xFFFFFFFFFFFFFFFFFFFFFFFFFFFFFFFFFFFFFFFF AND PUSH20 0xFFFFFFFFFFFFFFFFFFFFFFFFFFFFFFFFFFFFFFFF AND CALLER PUSH20 0xFFFFFFFFFFFFFFFFFFFFFFFFFFFFFFFFFFFFFFFF AND EQ PUSH2 0x597 JUMPI PUSH1 0x40 MLOAD PUSH32 0x8C379A000000000000000000000000000000000000000000000000000000000 DUP2 MSTORE PUSH1 0x4 ADD PUSH2 0x58E SWAP1 PUSH2 0x2B27 JUMP JUMPDEST PUSH1 0x40 MLOAD DUP1 SWAP2 SUB SWAP1 REVERT JUMPDEST PUSH2 0x5AB PUSH8 0x14158F152CAD051D PUSH1 0xC0 SHL PUSH2 0x1E4D JUMP JUMPDEST PUSH2 0x5BF PUSH8 0x1CDC2F83909290E1 PUSH1 0xC0 SHL PUSH2 0x1E4D JUMP JUMPDEST PUSH2 0x5D3 PUSH8 0x5C730A4F807FE17C PUSH1 0xC0 SHL PUSH2 0x1E4A JUMP JUMPDEST PUSH2 0x5E7 PUSH8 0x87FB95F4A2F66691 PUSH1 0xC0 SHL PUSH2 0x1E4A JUMP JUMPDEST PUSH2 0x5FB PUSH8 0xD86092EFC26640E0 PUSH1 0xC0 SHL PUSH2 0x1E4A JUMP JUMPDEST PUSH2 0x60F PUSH8 0xFF6B6AE0B01B0F43 PUSH1 0xC0 SHL PUSH2 0x1E4A JUMP JUMPDEST PUSH1 0x0 PUSH1 0x3 DUP1 SLOAD SWAP1 POP EQ ISZERO PUSH2 0x65E JUMPI PUSH2 0x631 PUSH8 0x69E6D006FF22D989 PUSH1 0xC0 SHL PUSH2 0x1E4A JUMP JUMPDEST PUSH2 0x645 PUSH8 0x6086AED0921974DD PUSH1 0xC0 SHL PUSH2 0x1E4A JUMP JUMPDEST PUSH2 0x659 PUSH8 0x72F6F4652D91D09F PUSH1 0xC0 SHL PUSH2 0x1E4A JUMP JUMPDEST PUSH2 0x8FC JUMP JUMPDEST PUSH2 0x672 PUSH8 0xD96724D22D799ED0 PUSH1 0xC0 SHL PUSH2 0x1E4A JUMP JUMPDEST PUSH2 0x686 PUSH8 0x495C596544380AF4 PUSH1 0xC0 SHL PUSH2 0x1E4A JUMP JUMPDEST PUSH2 0x69A PUSH8 0xD458B9043CA21688 PUSH1 0xC0 SHL PUSH2 0x1E4A JUMP JUMPDEST PUSH1 0x0 JUMPDEST PUSH1 0x1 PUSH1 0x3 DUP1 SLOAD SWAP1 POP PUSH2 0x6AF SWAP2 SWAP1 PUSH2 0x2A1E JUMP JUMPDEST DUP2 GT PUSH2 0x765 JUMPI PUSH2 0x6C9 PUSH8 0xD7A590A941C0704E PUSH1 0xC0 SHL PUSH2 0x1E4A JUMP JUMPDEST PUSH1 0x1 PUSH1 0x0 PUSH1 0x3 DUP4 DUP2 SLOAD DUP2 LT PUSH2 0x6E1 JUMPI PUSH2 0x6E0 PUSH2 0x2A9B JUMP JUMPDEST JUMPDEST SWAP1 PUSH1 0x0 MSTORE PUSH1 0x20 PUSH1 0x0 KECCAK256 ADD PUSH1 0x0 SWAP1 SLOAD SWAP1 PUSH2 0x100 EXP SWAP1 DIV PUSH20 0xFFFFFFFFFFFFFFFFFFFFFFFFFFFFFFFFFFFFFFFF AND PUSH20 0xFFFFFFFFFFFFFFFFFFFFFFFFFFFFFFFFFFFFFFFF AND PUSH20 0xFFFFFFFFFFFFFFFFFFFFFFFFFFFFFFFFFFFFFFFF AND DUP2 MSTORE PUSH1 0x20 ADD SWAP1 DUP2 MSTORE PUSH1 0x20 ADD PUSH1 0x0 KECCAK256 PUSH1 0x0 PUSH2 0x752 SWAP2 SWAP1 PUSH2 0x25A7 JUMP JUMPDEST DUP1 DUP1 PUSH2 0x75D SWAP1 PUSH2 0x2A52 JUMP JUMPDEST SWAP2 POP POP PUSH2 0x69D JUMP JUMPDEST POP PUSH2 0x77A PUSH8 0x8B00961562058A9E PUSH1 0xC0 SHL PUSH2 0x1E4A JUMP JUMPDEST PUSH1 0x3 PUSH1 0x0 PUSH2 0x788 SWAP2 SWAP1 PUSH2 0x25C8 JUMP JUMPDEST PUSH2 0x79C PUSH8 0xED6198810F7CF754 PUSH1 0xC0 SHL PUSH2 0x1E4A JUMP JUMPDEST PUSH2 0x7B0 PUSH8 0x13905CD011371309 PUSH1 0xC0 SHL PUSH2 0x1E4A JUMP JUMPDEST PUSH1 0x0 JUMPDEST PUSH1 0x4 SLOAD DUP2 GT PUSH2 0x8FA JUMPI PUSH2 0x7D0 PUSH8 0x85005A789B974E9 PUSH1 0xC0 SHL PUSH2 0x1E4A JUMP JUMPDEST PUSH2 0x7E4 PUSH8 0xE236F8A20ED3F09 PUSH1 0xC0 SHL PUSH2 0x1E4A JUMP JUMPDEST PUSH1 0x0 PUSH1 0x2 PUSH1 0x0 DUP4 DUP2 MSTORE PUSH1 0x20 ADD SWAP1 DUP2 MSTORE PUSH1 0x20 ADD PUSH1 0x0 KECCAK256 PUSH1 0x0 SWAP1 SLOAD SWAP1 PUSH2 0x100 EXP SWAP1 DIV PUSH20 0xFFFFFFFFFFFFFFFFFFFFFFFFFFFFFFFFFFFFFFFF AND SWAP1 POP PUSH2 0x830 PUSH8 0x15293A6D12B5DE7F PUSH1 0xC0 SHL PUSH2 0x1E4A JUMP JUMPDEST PUSH1 0x0 PUSH1 0x2 PUSH1 0x0 DUP5 DUP2 MSTORE PUSH1 0x20 ADD SWAP1 DUP2 MSTORE PUSH1 0x20 ADD PUSH1 0x0 KECCAK256 PUSH1 0x0 PUSH2 0x100 EXP DUP2 SLOAD DUP2 PUSH20 0xFFFFFFFFFFFFFFFFFFFFFFFFFFFFFFFFFFFFFFFF MUL NOT AND SWAP1 DUP4 PUSH20 0xFFFFFFFFFFFFFFFFFFFFFFFFFFFFFFFFFFFFFFFF AND MUL OR SWAP1 SSTORE POP PUSH2 0x897 PUSH8 0x60D16E9FF56E8EC5 PUSH1 0xC0 SHL PUSH2 0x1E4A JUMP JUMPDEST PUSH2 0x8AB PUSH8 0x23AC5DB09CB0E270 PUSH1 0xC0 SHL PUSH2 0x1E4A JUMP JUMPDEST PUSH32 0xA3BE76334976C368B4726800022E50475912FA6A8DC117941A00E82E1FC50F25 DUP3 DUP3 CALLER PUSH1 0x40 MLOAD PUSH2 0x8DE SWAP4 SWAP3 SWAP2 SWAP1 PUSH2 0x2B47 JUMP JUMPDEST PUSH1 0x40 MLOAD DUP1 SWAP2 SUB SWAP1 LOG1 POP DUP1 DUP1 PUSH2 0x8F2 SWAP1 PUSH2 0x2A52 JUMP JUMPDEST SWAP2 POP POP PUSH2 0x7B3 JUMP JUMPDEST POP JUMPDEST JUMP JUMPDEST PUSH1 0x0 PUSH2 0x914 PUSH8 0x2730085322C887D9 PUSH1 0xC0 SHL PUSH2 0x1E4D JUMP JUMPDEST PUSH2 0x928 PUSH8 0x77F9B46E1A2E8F4B PUSH1 0xC0 SHL PUSH2 0x1E4D JUMP JUMPDEST PUSH2 0x93C PUSH8 0xB9824FC0F9B89676 PUSH1 0xC0 SHL PUSH2 0x1E4D JUMP JUMPDEST PUSH1 0x0 DUP1 SLOAD SWAP1 PUSH2 0x100 EXP SWAP1 DIV PUSH20 0xFFFFFFFFFFFFFFFFFFFFFFFFFFFFFFFFFFFFFFFF AND SWAP1 POP SWAP1 JUMP JUMPDEST PUSH2 0x976 PUSH8 0xE09271D7CBD3DCDB PUSH1 0xC0 SHL PUSH2 0x1E4A JUMP JUMPDEST PUSH2 0x98A PUSH8 0xD045D931595083A0 PUSH1 0xC0 SHL PUSH2 0x1E4A JUMP JUMPDEST PUSH2 0x99E PUSH8 0xF6B8EF807BB87BF4 PUSH1 0xC0 SHL PUSH2 0x1E4A JUMP JUMPDEST PUSH2 0x9B2 PUSH8 0x3B2FCE12BFF4B445 PUSH1 0xC0 SHL PUSH2 0x1E4A JUMP JUMPDEST PUSH1 0x4 SLOAD DUP3 DUP3 SWAP1 POP GT ISZERO PUSH2 0x9FA JUMPI PUSH1 0x40 MLOAD PUSH32 0x8C379A000000000000000000000000000000000000000000000000000000000 DUP2 MSTORE PUSH1 0x4 ADD PUSH2 0x9F1 SWAP1 PUSH2 0x2BF0 JUMP JUMPDEST PUSH1 0x40 MLOAD DUP1 SWAP2 SUB SWAP1 REVERT JUMPDEST PUSH2 0xA0E PUSH8 0xDF4C78BCE94ABFEB PUSH1 0xC0 SHL PUSH2 0x1E4A JUMP JUMPDEST PUSH2 0xA22 PUSH8 0xA7108E03FFB21A83 PUSH1 0xC0 SHL PUSH2 0x1E4A JUMP JUMPDEST PUSH2 0xA36 PUSH8 0xFD1E783828A1E167 PUSH1 0xC0 SHL PUSH2 0x1E4A JUMP JUMPDEST PUSH1 0x0 JUMPDEST PUSH1 0x1 DUP4 DUP4 SWAP1 POP PUSH2 0xA49 SWAP2 SWAP1 PUSH2 0x2A1E JUMP JUMPDEST DUP2 GT PUSH2 0xE1C JUMPI PUSH2 0xA63 PUSH8 0xA8324968E76A9C4F PUSH1 0xC0 SHL PUSH2 0x1E4A JUMP JUMPDEST PUSH2 0xA77 PUSH8 0x7BFF0D1839C345D9 PUSH1 0xC0 SHL PUSH2 0x1E4A JUMP JUMPDEST PUSH1 0x0 DUP4 DUP4 DUP4 DUP2 DUP2 LT PUSH2 0xA8C JUMPI PUSH2 0xA8B PUSH2 0x2A9B JUMP JUMPDEST JUMPDEST SWAP1 POP PUSH1 0x20 MUL ADD CALLDATALOAD SWAP1 POP PUSH2 0xAA9 PUSH8 0x8A9CEA6C3F172A4D PUSH1 0xC0 SHL PUSH2 0x1E4A JUMP JUMPDEST PUSH2 0xABD PUSH8 0x9E0D4784B12444A2 PUSH1 0xC0 SHL PUSH2 0x1E4A JUMP JUMPDEST PUSH2 0xAD1 PUSH8 0xF8638FD930B97247 PUSH1 0xC0 SHL PUSH2 0x1E4A JUMP JUMPDEST PUSH1 0x1 PUSH1 0x4 SLOAD PUSH2 0xAE0 SWAP2 SWAP1 PUSH2 0x2A1E JUMP JUMPDEST DUP2 GT ISZERO PUSH2 0xB22 JUMPI PUSH1 0x40 MLOAD PUSH32 0x8C379A000000000000000000000000000000000000000000000000000000000 DUP2 MSTORE PUSH1 0x4 ADD PUSH2 0xB19 SWAP1 PUSH2 0x2C5C JUMP JUMPDEST PUSH1 0x40 MLOAD DUP1 SWAP2 SUB SWAP1 REVERT JUMPDEST PUSH2 0xB36 PUSH8 0xAD7CBB557A0413C9 PUSH1 0xC0 SHL PUSH2 0x1E4A JUMP JUMPDEST PUSH2 0xB4A PUSH8 0xD97D25AB6915A258 PUSH1 0xC0 SHL PUSH2 0x1E4A JUMP JUMPDEST PUSH2 0xB5E PUSH8 0x5B530154C667DDE1 PUSH1 0xC0 SHL PUSH2 0x1E4A JUMP JUMPDEST PUSH2 0xB72 PUSH8 0xF8D3D383AF68888A PUSH1 0xC0 SHL PUSH2 0x1E4A JUMP JUMPDEST PUSH1 0x0 PUSH20 0xFFFFFFFFFFFFFFFFFFFFFFFFFFFFFFFFFFFFFFFF AND PUSH1 0x2 PUSH1 0x0 DUP4 DUP2 MSTORE PUSH1 0x20 ADD SWAP1 DUP2 MSTORE PUSH1 0x20 ADD PUSH1 0x0 KECCAK256 PUSH1 0x0 SWAP1 SLOAD SWAP1 PUSH2 0x100 EXP SWAP1 DIV PUSH20 0xFFFFFFFFFFFFFFFFFFFFFFFFFFFFFFFFFFFFFFFF AND PUSH20 0xFFFFFFFFFFFFFFFFFFFFFFFFFFFFFFFFFFFFFFFF AND EQ PUSH2 0xC14 JUMPI PUSH1 0x40 MLOAD PUSH32 0x8C379A000000000000000000000000000000000000000000000000000000000 DUP2 MSTORE PUSH1 0x4 ADD PUSH2 0xC0B SWAP1 PUSH2 0x2D14 JUMP JUMPDEST PUSH1 0x40 MLOAD DUP1 SWAP2 SUB SWAP1 REVERT JUMPDEST PUSH2 0xC28 PUSH8 0xAC874EB266406D50 PUSH1 0xC0 SHL PUSH2 0x1E4A JUMP JUMPDEST PUSH2 0xC3C PUSH8 0xC7430DFE22612ED8 PUSH1 0xC0 SHL PUSH2 0x1E4A JUMP JUMPDEST PUSH2 0xC50 PUSH8 0x58A2CC956D4188D5 PUSH1 0xC0 SHL PUSH2 0x1E4A JUMP JUMPDEST PUSH1 0x3 CALLER SWAP1 DUP1 PUSH1 0x1 DUP2 SLOAD ADD DUP1 DUP3 SSTORE DUP1 SWAP2 POP POP PUSH1 0x1 SWAP1 SUB SWAP1 PUSH1 0x0 MSTORE PUSH1 0x20 PUSH1 0x0 KECCAK256 ADD PUSH1 0x0 SWAP1 SWAP2 SWAP1 SWAP2 SWAP1 SWAP2 PUSH2 0x100 EXP DUP2 SLOAD DUP2 PUSH20 0xFFFFFFFFFFFFFFFFFFFFFFFFFFFFFFFFFFFFFFFF MUL NOT AND SWAP1 DUP4 PUSH20 0xFFFFFFFFFFFFFFFFFFFFFFFFFFFFFFFFFFFFFFFF AND MUL OR SWAP1 SSTORE POP PUSH2 0xCC7 PUSH8 0x5DBC908389702679 PUSH1 0xC0 SHL PUSH2 0x1E4A JUMP JUMPDEST PUSH2 0xCDB PUSH8 0x201DD51417D9A8EE PUSH1 0xC0 SHL PUSH2 0x1E4A JUMP JUMPDEST PUSH1 0x1 PUSH1 0x0 CALLER PUSH20 0xFFFFFFFFFFFFFFFFFFFFFFFFFFFFFFFFFFFFFFFF AND PUSH20 0xFFFFFFFFFFFFFFFFFFFFFFFFFFFFFFFFFFFFFFFF AND DUP2 MSTORE PUSH1 0x20 ADD SWAP1 DUP2 MSTORE PUSH1 0x20 ADD PUSH1 0x0 KECCAK256 DUP2 SWAP1 DUP1 PUSH1 0x1 DUP2 SLOAD ADD DUP1 DUP3 SSTORE DUP1 SWAP2 POP POP PUSH1 0x1 SWAP1 SUB SWAP1 PUSH1 0x0 MSTORE PUSH1 0x20 PUSH1 0x0 KECCAK256 ADD PUSH1 0x0 SWAP1 SWAP2 SWAP1 SWAP2 SWAP1 SWAP2 POP SSTORE PUSH2 0xD55 PUSH8 0x9CE1782F2FD6B47C PUSH1 0xC0 SHL PUSH2 0x1E4A JUMP JUMPDEST CALLER PUSH1 0x2 PUSH1 0x0 DUP4 DUP2 MSTORE PUSH1 0x20 ADD SWAP1 DUP2 MSTORE PUSH1 0x20 ADD PUSH1 0x0 KECCAK256 PUSH1 0x0 PUSH2 0x100 EXP DUP2 SLOAD DUP2 PUSH20 0xFFFFFFFFFFFFFFFFFFFFFFFFFFFFFFFFFFFFFFFF MUL NOT AND SWAP1 DUP4 PUSH20 0xFFFFFFFFFFFFFFFFFFFFFFFFFFFFFFFFFFFFFFFF AND MUL OR SWAP1 SSTORE POP PUSH2 0xDBB PUSH8 0xE9C88B0BFE71DB2 PUSH1 0xC0 SHL PUSH2 0x1E4A JUMP JUMPDEST PUSH2 0xDCF PUSH8 0x25F8F541E4D6D270 PUSH1 0xC0 SHL PUSH2 0x1E4A JUMP JUMPDEST PUSH32 0x672B59F7AE6F9CE32310639926243C8A7B423F2C4BE780B7F555215A737AF776 DUP2 CALLER PUSH1 0x40 MLOAD PUSH2 0xE00 SWAP3 SWAP2 SWAP1 PUSH2 0x2D34 JUMP JUMPDEST PUSH1 0x40 MLOAD DUP1 SWAP2 SUB SWAP1 LOG1 POP DUP1 DUP1 PUSH2 0xE14 SWAP1 PUSH2 0x2A52 JUMP JUMPDEST SWAP2 POP POP PUSH2 0xA39 JUMP JUMPDEST POP POP POP JUMP JUMPDEST PUSH2 0xE35 PUSH8 0xB3B2F3441AC190DA PUSH1 0xC0 SHL PUSH2 0x1E4D JUMP JUMPDEST PUSH2 0xE49 PUSH8 0x7AB33A8CB6063076 PUSH1 0xC0 SHL PUSH2 0x1E4D JUMP JUMPDEST PUSH2 0xE5D PUSH8 0x282A066949985C98 PUSH1 0xC0 SHL PUSH2 0x1E4D JUMP JUMPDEST PUSH2 0xE71 PUSH8 0xCD8342D149DB9C57 PUSH1 0xC0 SHL PUSH2 0x1E4D JUMP JUMPDEST PUSH2 0xE85 PUSH8 0x5CFFB0BB3BF2A53A PUSH1 0xC0 SHL PUSH2 0x1E4D JUMP JUMPDEST PUSH1 0x0 DUP1 SLOAD SWAP1 PUSH2 0x100 EXP SWAP1 DIV PUSH20 0xFFFFFFFFFFFFFFFFFFFFFFFFFFFFFFFFFFFFFFFF AND PUSH20 0xFFFFFFFFFFFFFFFFFFFFFFFFFFFFFFFFFFFFFFFF AND CALLER PUSH20 0xFFFFFFFFFFFFFFFFFFFFFFFFFFFFFFFFFFFFFFFF AND EQ PUSH2 0xF13 JUMPI PUSH1 0x40 MLOAD PUSH32 0x8C379A000000000000000000000000000000000000000000000000000000000 DUP2 MSTORE PUSH1 0x4 ADD PUSH2 0xF0A SWAP1 PUSH2 0x2B27 JUMP JUMPDEST PUSH1 0x40 MLOAD DUP1 SWAP2 SUB SWAP1 REVERT JUMPDEST PUSH2 0xF27 PUSH8 0x14158F152CAD051D PUSH1 0xC0 SHL PUSH2 0x1E4D JUMP JUMPDEST PUSH2 0xF3B PUSH8 0x1CDC2F83909290E1 PUSH1 0xC0 SHL PUSH2 0x1E4D JUMP JUMPDEST PUSH2 0xF4F PUSH8 0xB5410B4A1734A85A PUSH1 0xC0 SHL PUSH2 0x1E4D JUMP JUMPDEST PUSH2 0xF63 PUSH8 0xC7127EEB719DDDDA PUSH1 0xC0 SHL PUSH2 0x1E4D JUMP JUMPDEST PUSH2 0xF77 PUSH8 0xF009A8DEC4A04C82 PUSH1 0xC0 SHL PUSH2 0x1E4D JUMP JUMPDEST PUSH2 0xF8B PUSH8 0x13DBDD1926AD67A3 PUSH1 0xC0 SHL PUSH2 0x1E4D JUMP JUMPDEST DUP1 PUSH20 0xFFFFFFFFFFFFFFFFFFFFFFFFFFFFFFFFFFFFFFFF AND PUSH1 0x0 DUP1 SLOAD SWAP1 PUSH2 0x100 EXP SWAP1 DIV PUSH20 0xFFFFFFFFFFFFFFFFFFFFFFFFFFFFFFFFFFFFFFFF AND PUSH20 0xFFFFFFFFFFFFFFFFFFFFFFFFFFFFFFFFFFFFFFFF AND PUSH32 0x342827C97908E5E2F71151C08502A66D44B6F758E3AC2F1DE95F02EB95F0A735 PUSH1 0x40 MLOAD PUSH1 0x40 MLOAD DUP1 SWAP2 SUB SWAP1 LOG3 PUSH2 0x1019 PUSH8 0xF861799007787698 PUSH1 0xC0 SHL PUSH2 0x1E4D JUMP JUMPDEST DUP1 PUSH1 0x0 DUP1 PUSH2 0x100 EXP DUP2 SLOAD DUP2 PUSH20 0xFFFFFFFFFFFFFFFFFFFFFFFFFFFFFFFFFFFFFFFF MUL NOT AND SWAP1 DUP4 PUSH20 0xFFFFFFFFFFFFFFFFFFFFFFFFFFFFFFFFFFFFFFFF AND MUL OR SWAP1 SSTORE POP POP JUMP JUMPDEST PUSH2 0x1070 PUSH8 0xADC8E639D9B37766 PUSH1 0xC0 SHL PUSH2 0x1E4A JUMP JUMPDEST PUSH2 0x1084 PUSH8 0xCD022ACC83107689 PUSH1 0xC0 SHL PUSH2 0x1E4A JUMP JUMPDEST PUSH2 0x1098 PUSH8 0xC47C462227FDD454 PUSH1 0xC0 SHL PUSH2 0x1E4A JUMP JUMPDEST PUSH2 0x10AC PUSH8 0xB64F1B67871EA335 PUSH1 0xC0 SHL PUSH2 0x1E4A JUMP JUMPDEST PUSH1 0x4 SLOAD DUP3 DUP3 SWAP1 POP GT ISZERO PUSH2 0x10F4 JUMPI PUSH1 0x40 MLOAD PUSH32 0x8C379A000000000000000000000000000000000000000000000000000000000 DUP2 MSTORE PUSH1 0x4 ADD PUSH2 0x10EB SWAP1 PUSH2 0x2DCF JUMP JUMPDEST PUSH1 0x40 MLOAD DUP1 SWAP2 SUB SWAP1 REVERT JUMPDEST PUSH2 0x1108 PUSH8 0xA014A8457C742FE3 PUSH1 0xC0 SHL PUSH2 0x1E4A JUMP JUMPDEST PUSH2 0x111C PUSH8 0xA9C63FD99B7CE433 PUSH1 0xC0 SHL PUSH2 0x1E4A JUMP JUMPDEST PUSH2 0x1130 PUSH8 0xF6D998785915D3DF PUSH1 0xC0 SHL PUSH2 0x1E4A JUMP JUMPDEST PUSH1 0x0 JUMPDEST PUSH1 0x1 DUP4 DUP4 SWAP1 POP PUSH2 0x1143 SWAP2 SWAP1 PUSH2 0x2A1E JUMP JUMPDEST DUP2 GT PUSH2 0x1576 JUMPI PUSH2 0x115D PUSH8 0x222927A0445B0A6D PUSH1 0xC0 SHL PUSH2 0x1E4A JUMP JUMPDEST PUSH2 0x1171 PUSH8 0xA68899188C4A2E38 PUSH1 0xC0 SHL PUSH2 0x1E4A JUMP JUMPDEST PUSH1 0x0 DUP4 DUP4 DUP4 DUP2 DUP2 LT PUSH2 0x1186 JUMPI PUSH2 0x1185 PUSH2 0x2A9B JUMP JUMPDEST JUMPDEST SWAP1 POP PUSH1 0x20 MUL ADD CALLDATALOAD SWAP1 POP PUSH2 0x11A3 PUSH8 0x593887961F737EB9 PUSH1 0xC0 SHL PUSH2 0x1E4A JUMP JUMPDEST PUSH2 0x11B7 PUSH8 0x298931136FDDE24 PUSH1 0xC0 SHL PUSH2 0x1E4A JUMP JUMPDEST PUSH2 0x11CB PUSH8 0xB43CF6C237D12323 PUSH1 0xC0 SHL PUSH2 0x1E4A JUMP JUMPDEST PUSH1 0x1 PUSH1 0x4 SLOAD PUSH2 0x11DA SWAP2 SWAP1 PUSH2 0x2A1E JUMP JUMPDEST DUP2 GT ISZERO PUSH2 0x121C JUMPI PUSH1 0x40 MLOAD PUSH32 0x8C379A000000000000000000000000000000000000000000000000000000000 DUP2 MSTORE PUSH1 0x4 ADD PUSH2 0x1213 SWAP1 PUSH2 0x2C5C JUMP JUMPDEST PUSH1 0x40 MLOAD DUP1 SWAP2 SUB SWAP1 REVERT JUMPDEST PUSH2 0x1230 PUSH8 0xD999BA80551E01FA PUSH1 0xC0 SHL PUSH2 0x1E4A JUMP JUMPDEST PUSH2 0x1244 PUSH8 0xA25DF037120A8B2D PUSH1 0xC0 SHL PUSH2 0x1E4A JUMP JUMPDEST PUSH2 0x1258 PUSH8 0x166E7E6921840C2 PUSH1 0xC0 SHL PUSH2 0x1E4A JUMP JUMPDEST PUSH2 0x126C PUSH8 0x93283D8049CF7CCA PUSH1 0xC0 SHL PUSH2 0x1E4A JUMP JUMPDEST PUSH2 0x1303 DUP2 PUSH1 0x1 PUSH1 0x0 CALLER PUSH20 0xFFFFFFFFFFFFFFFFFFFFFFFFFFFFFFFFFFFFFFFF AND PUSH20 0xFFFFFFFFFFFFFFFFFFFFFFFFFFFFFFFFFFFFFFFF AND DUP2 MSTORE PUSH1 0x20 ADD SWAP1 DUP2 MSTORE PUSH1 0x20 ADD PUSH1 0x0 KECCAK256 DUP1 SLOAD DUP1 PUSH1 0x20 MUL PUSH1 0x20 ADD PUSH1 0x40 MLOAD SWAP1 DUP2 ADD PUSH1 0x40 MSTORE DUP1 SWAP3 SWAP2 SWAP1 DUP2 DUP2 MSTORE PUSH1 0x20 ADD DUP3 DUP1 SLOAD DUP1 ISZERO PUSH2 0x12F9 JUMPI PUSH1 0x20 MUL DUP3 ADD SWAP2 SWAP1 PUSH1 0x0 MSTORE PUSH1 0x20 PUSH1 0x0 KECCAK256 SWAP1 JUMPDEST DUP2 SLOAD DUP2 MSTORE PUSH1 0x20 ADD SWAP1 PUSH1 0x1 ADD SWAP1 DUP1 DUP4 GT PUSH2 0x12E5 JUMPI JUMPDEST POP POP POP POP POP PUSH2 0x365 JUMP JUMPDEST PUSH2 0x1342 JUMPI PUSH1 0x40 MLOAD PUSH32 0x8C379A000000000000000000000000000000000000000000000000000000000 DUP2 MSTORE PUSH1 0x4 ADD PUSH2 0x1339 SWAP1 PUSH2 0x2E61 JUMP JUMPDEST PUSH1 0x40 MLOAD DUP1 SWAP2 SUB SWAP1 REVERT JUMPDEST PUSH2 0x1356 PUSH8 0x4D52DCA9B48DF435 PUSH1 0xC0 SHL PUSH2 0x1E4A JUMP JUMPDEST PUSH2 0x136A PUSH8 0x44A2AE20ACAE0A5B PUSH1 0xC0 SHL PUSH2 0x1E4A JUMP JUMPDEST PUSH2 0x137E PUSH8 0xCC90F1C62C6098AE PUSH1 0xC0 SHL PUSH2 0x1E4A JUMP JUMPDEST PUSH2 0x13C6 PUSH1 0x1 PUSH1 0x0 CALLER PUSH20 0xFFFFFFFFFFFFFFFFFFFFFFFFFFFFFFFFFFFFFFFF AND PUSH20 0xFFFFFFFFFFFFFFFFFFFFFFFFFFFFFFFFFFFFFFFF AND DUP2 MSTORE PUSH1 0x20 ADD SWAP1 DUP2 MSTORE PUSH1 0x20 ADD PUSH1 0x0 KECCAK256 DUP3 PUSH2 0x1E50 JUMP JUMPDEST PUSH2 0x13DA PUSH8 0xB3D39D4C7DBB6690 PUSH1 0xC0 SHL PUSH2 0x1E4A JUMP JUMPDEST PUSH2 0x13EE PUSH8 0xCCEFC2C9C9DE92F6 PUSH1 0xC0 SHL PUSH2 0x1E4A JUMP JUMPDEST PUSH1 0x0 PUSH1 0x1 PUSH1 0x0 CALLER PUSH20 0xFFFFFFFFFFFFFFFFFFFFFFFFFFFFFFFFFFFFFFFF AND PUSH20 0xFFFFFFFFFFFFFFFFFFFFFFFFFFFFFFFFFFFFFFFF AND DUP2 MSTORE PUSH1 0x20 ADD SWAP1 DUP2 MSTORE PUSH1 0x20 ADD PUSH1 0x0 KECCAK256 DUP1 SLOAD SWAP1 POP EQ ISZERO PUSH2 0x1483 JUMPI PUSH2 0x144D PUSH8 0xF486D08B0C32C053 PUSH1 0xC0 SHL PUSH2 0x1E4A JUMP JUMPDEST PUSH2 0x1461 PUSH8 0x393C2661C1202DC4 PUSH1 0xC0 SHL PUSH2 0x1E4A JUMP JUMPDEST PUSH2 0x1475 PUSH8 0x44DA4F2DA19FA3C PUSH1 0xC0 SHL PUSH2 0x1E4A JUMP JUMPDEST PUSH2 0x147E CALLER PUSH2 0x1ED1 JUMP JUMPDEST PUSH2 0x1498 JUMP JUMPDEST PUSH2 0x1497 PUSH8 0x4479BB0BCA16D6B9 PUSH1 0xC0 SHL PUSH2 0x1E4A JUMP JUMPDEST JUMPDEST PUSH2 0x14AC PUSH8 0x42D4BCE50D85E3CE PUSH1 0xC0 SHL PUSH2 0x1E4A JUMP JUMPDEST PUSH1 0x0 PUSH1 0x2 PUSH1 0x0 DUP4 DUP2 MSTORE PUSH1 0x20 ADD SWAP1 DUP2 MSTORE PUSH1 0x20 ADD PUSH1 0x0 KECCAK256 PUSH1 0x0 PUSH2 0x100 EXP DUP2 SLOAD DUP2 PUSH20 0xFFFFFFFFFFFFFFFFFFFFFFFFFFFFFFFFFFFFFFFF MUL NOT AND SWAP1 DUP4 PUSH20 0xFFFFFFFFFFFFFFFFFFFFFFFFFFFFFFFFFFFFFFFF AND MUL OR SWAP1 SSTORE POP PUSH2 0x1513 PUSH8 0xA67D19EAC5577DD9 PUSH1 0xC0 SHL PUSH2 0x1E4A JUMP JUMPDEST PUSH2 0x1527 PUSH8 0x487B9F6DD542FF86 PUSH1 0xC0 SHL PUSH2 0x1E4A JUMP JUMPDEST PUSH32 0xA3BE76334976C368B4726800022E50475912FA6A8DC117941A00E82E1FC50F25 DUP2 CALLER CALLER PUSH1 0x40 MLOAD PUSH2 0x155A SWAP4 SWAP3 SWAP2 SWAP1 PUSH2 0x2B47 JUMP JUMPDEST PUSH1 0x40 MLOAD DUP1 SWAP2 SUB SWAP1 LOG1 POP DUP1 DUP1 PUSH2 0x156E SWAP1 PUSH2 0x2A52 JUMP JUMPDEST SWAP2 POP POP PUSH2 0x1133 JUMP JUMPDEST POP POP POP JUMP JUMPDEST PUSH2 0x158F PUSH8 0xD7B72FEF54D62F77 PUSH1 0xC0 SHL PUSH2 0x1E4A JUMP JUMPDEST PUSH2 0x15A3 PUSH8 0x7AB33A8CB6063076 PUSH1 0xC0 SHL PUSH2 0x1E4D JUMP JUMPDEST PUSH2 0x15B7 PUSH8 0x282A066949985C98 PUSH1 0xC0 SHL PUSH2 0x1E4D JUMP JUMPDEST PUSH2 0x15CB PUSH8 0xCD8342D149DB9C57 PUSH1 0xC0 SHL PUSH2 0x1E4D JUMP JUMPDEST PUSH2 0x15DF PUSH8 0x5CFFB0BB3BF2A53A PUSH1 0xC0 SHL PUSH2 0x1E4D JUMP JUMPDEST PUSH1 0x0 DUP1 SLOAD SWAP1 PUSH2 0x100 EXP SWAP1 DIV PUSH20 0xFFFFFFFFFFFFFFFFFFFFFFFFFFFFFFFFFFFFFFFF AND PUSH20 0xFFFFFFFFFFFFFFFFFFFFFFFFFFFFFFFFFFFFFFFF AND CALLER PUSH20 0xFFFFFFFFFFFFFFFFFFFFFFFFFFFFFFFFFFFFFFFF AND EQ PUSH2 0x166D JUMPI PUSH1 0x40 MLOAD PUSH32 0x8C379A000000000000000000000000000000000000000000000000000000000 DUP2 MSTORE PUSH1 0x4 ADD PUSH2 0x1664 SWAP1 PUSH2 0x2B27 JUMP JUMPDEST PUSH1 0x40 MLOAD DUP1 SWAP2 SUB SWAP1 REVERT JUMPDEST PUSH2 0x1681 PUSH8 0x14158F152CAD051D PUSH1 0xC0 SHL PUSH2 0x1E4D JUMP JUMPDEST PUSH2 0x1695 PUSH8 0x1CDC2F83909290E1 PUSH1 0xC0 SHL PUSH2 0x1E4D JUMP JUMPDEST PUSH2 0x16A9 PUSH8 0xC1CE1CA5DCA03CEA PUSH1 0xC0 SHL PUSH2 0x1E4A JUMP JUMPDEST PUSH2 0x16BD PUSH8 0x1039D637FD936BCE PUSH1 0xC0 SHL PUSH2 0x1E4A JUMP JUMPDEST PUSH2 0x16D1 PUSH8 0xA3B427CB3584E538 PUSH1 0xC0 SHL PUSH2 0x1E4A JUMP JUMPDEST DUP1 PUSH1 0x4 PUSH1 0x0 DUP3 DUP3 SLOAD PUSH2 0x16E3 SWAP2 SWAP1 PUSH2 0x2E81 JUMP JUMPDEST SWAP3 POP POP DUP2 SWAP1 SSTORE POP POP JUMP JUMPDEST PUSH1 0x0 PUSH2 0x1703 PUSH8 0x47C7B43E98EAE890 PUSH1 0xC0 SHL PUSH2 0x1E4A JUMP JUMPDEST PUSH2 0x1717 PUSH8 0x8AA2BCD54CB96F3D PUSH1 0xC0 SHL PUSH2 0x1E4A JUMP JUMPDEST PUSH2 0x172B PUSH8 0x52415F04333C54D3 PUSH1 0xC0 SHL PUSH2 0x1E4A JUMP JUMPDEST PUSH1 0x4 SLOAD SWAP1 POP SWAP1 JUMP JUMPDEST PUSH2 0x1747 PUSH8 0x6EA253DC2A22ABDE PUSH1 0xC0 SHL PUSH2 0x1E4A JUMP JUMPDEST PUSH2 0x175B PUSH8 0x7AB33A8CB6063076 PUSH1 0xC0 SHL PUSH2 0x1E4D JUMP JUMPDEST PUSH2 0x176F PUSH8 0x282A066949985C98 PUSH1 0xC0 SHL PUSH2 0x1E4D JUMP JUMPDEST PUSH2 0x1783 PUSH8 0xCD8342D149DB9C57 PUSH1 0xC0 SHL PUSH2 0x1E4D JUMP JUMPDEST PUSH2 0x1797 PUSH8 0x5CFFB0BB3BF2A53A PUSH1 0xC0 SHL PUSH2 0x1E4D JUMP JUMPDEST PUSH1 0x0 DUP1 SLOAD SWAP1 PUSH2 0x100 EXP SWAP1 DIV PUSH20 0xFFFFFFFFFFFFFFFFFFFFFFFFFFFFFFFFFFFFFFFF AND PUSH20 0xFFFFFFFFFFFFFFFFFFFFFFFFFFFFFFFFFFFFFFFF AND CALLER PUSH20 0xFFFFFFFFFFFFFFFFFFFFFFFFFFFFFFFFFFFFFFFF AND EQ PUSH2 0x1825 JUMPI PUSH1 0x40 MLOAD PUSH32 0x8C379A000000000000000000000000000000000000000000000000000000000 DUP2 MSTORE PUSH1 0x4 ADD PUSH2 0x181C SWAP1 PUSH2 0x2B27 JUMP JUMPDEST PUSH1 0x40 MLOAD DUP1 SWAP2 SUB SWAP1 REVERT JUMPDEST PUSH2 0x1839 PUSH8 0x14158F152CAD051D PUSH1 0xC0 SHL PUSH2 0x1E4D JUMP JUMPDEST PUSH2 0x184D PUSH8 0x1CDC2F83909290E1 PUSH1 0xC0 SHL PUSH2 0x1E4D JUMP JUMPDEST PUSH2 0x1861 PUSH8 0x5222CA343791D258 PUSH1 0xC0 SHL PUSH2 0x1E4A JUMP JUMPDEST PUSH2 0x1875 PUSH8 0xE0D39A026699F294 PUSH1 0xC0 SHL PUSH2 0x1E4A JUMP JUMPDEST PUSH2 0x1889 PUSH8 0x1945C86C0900CED9 PUSH1 0xC0 SHL PUSH2 0x1E4A JUMP JUMPDEST PUSH2 0x189D PUSH8 0x11776DFC22014E8D PUSH1 0xC0 SHL PUSH2 0x1E4A JUMP JUMPDEST PUSH2 0x18B1 PUSH8 0x1208368CCE6933B9 PUSH1 0xC0 SHL PUSH2 0x1E4A JUMP JUMPDEST PUSH1 0x4 SLOAD DUP3 DUP3 SWAP1 POP GT ISZERO PUSH2 0x18F9 JUMPI PUSH1 0x40 MLOAD PUSH32 0x8C379A000000000000000000000000000000000000000000000000000000000 DUP2 MSTORE PUSH1 0x4 ADD PUSH2 0x18F0 SWAP1 PUSH2 0x2DCF JUMP JUMPDEST PUSH1 0x40 MLOAD DUP1 SWAP2 SUB SWAP1 REVERT JUMPDEST PUSH2 0x190D PUSH8 0xF5E1D8B7612C7FDE PUSH1 0xC0 SHL PUSH2 0x1E4A JUMP JUMPDEST PUSH2 0x1921 PUSH8 0x12CD701B683B652C PUSH1 0xC0 SHL PUSH2 0x1E4A JUMP JUMPDEST PUSH2 0x1935 PUSH8 0xA27ABD6E3CD66621 PUSH1 0xC0 SHL PUSH2 0x1E4A JUMP JUMPDEST PUSH1 0x0 JUMPDEST PUSH1 0x1 DUP4 DUP4 SWAP1 POP PUSH2 0x1948 SWAP2 SWAP1 PUSH2 0x2A1E JUMP JUMPDEST DUP2 GT PUSH2 0x1DA9 JUMPI PUSH2 0x1962 PUSH8 0xCCF2FAEE914F3FF5 PUSH1 0xC0 SHL PUSH2 0x1E4A JUMP JUMPDEST PUSH2 0x1976 PUSH8 0xC86D343B519419A2 PUSH1 0xC0 SHL PUSH2 0x1E4A JUMP JUMPDEST PUSH1 0x0 DUP4 DUP4 DUP4 DUP2 DUP2 LT PUSH2 0x198B JUMPI PUSH2 0x198A PUSH2 0x2A9B JUMP JUMPDEST JUMPDEST SWAP1 POP PUSH1 0x20 MUL ADD CALLDATALOAD SWAP1 POP PUSH2 0x19A8 PUSH8 0xCDB1AA871DC2F268 PUSH1 0xC0 SHL PUSH2 0x1E4A JUMP JUMPDEST PUSH2 0x19BC PUSH8 0x233FBAFC82BA6E7D PUSH1 0xC0 SHL PUSH2 0x1E4A JUMP JUMPDEST PUSH2 0x19D0 PUSH8 0x8BE0E07A4A79367E PUSH1 0xC0 SHL PUSH2 0x1E4A JUMP JUMPDEST PUSH1 0x1 PUSH1 0x4 SLOAD PUSH2 0x19DF SWAP2 SWAP1 PUSH2 0x2A1E JUMP JUMPDEST DUP2 GT ISZERO PUSH2 0x1A21 JUMPI PUSH1 0x40 MLOAD PUSH32 0x8C379A000000000000000000000000000000000000000000000000000000000 DUP2 MSTORE PUSH1 0x4 ADD PUSH2 0x1A18 SWAP1 PUSH2 0x2C5C JUMP JUMPDEST PUSH1 0x40 MLOAD DUP1 SWAP2 SUB SWAP1 REVERT JUMPDEST PUSH2 0x1A35 PUSH8 0xB6E104EA78C55B12 PUSH1 0xC0 SHL PUSH2 0x1E4A JUMP JUMPDEST PUSH2 0x1A49 PUSH8 0x35E7503A0F5542D8 PUSH1 0xC0 SHL PUSH2 0x1E4A JUMP JUMPDEST PUSH2 0x1A5D PUSH8 0xBC4ED8BEF775ACAC PUSH1 0xC0 SHL PUSH2 0x1E4A JUMP JUMPDEST PUSH2 0x1A71 PUSH8 0xB4C63D3D894B0737 PUSH1 0xC0 SHL PUSH2 0x1E4A JUMP JUMPDEST PUSH1 0x0 PUSH20 0xFFFFFFFFFFFFFFFFFFFFFFFFFFFFFFFFFFFFFFFF AND PUSH1 0x2 PUSH1 0x0 DUP4 DUP2 MSTORE PUSH1 0x20 ADD SWAP1 DUP2 MSTORE PUSH1 0x20 ADD PUSH1 0x0 KECCAK256 PUSH1 0x0 SWAP1 SLOAD SWAP1 PUSH2 0x100 EXP SWAP1 DIV PUSH20 0xFFFFFFFFFFFFFFFFFFFFFFFFFFFFFFFFFFFFFFFF AND PUSH20 0xFFFFFFFFFFFFFFFFFFFFFFFFFFFFFFFFFFFFFFFF AND EQ ISZERO PUSH2 0x1B14 JUMPI PUSH1 0x40 MLOAD PUSH32 0x8C379A000000000000000000000000000000000000000000000000000000000 DUP2 MSTORE PUSH1 0x4 ADD PUSH2 0x1B0B SWAP1 PUSH2 0x2F49 JUMP JUMPDEST PUSH1 0x40 MLOAD DUP1 SWAP2 SUB SWAP1 REVERT JUMPDEST PUSH2 0x1B28 PUSH8 0xD1C76F9A1854DF96 PUSH1 0xC0 SHL PUSH2 0x1E4A JUMP JUMPDEST PUSH2 0x1B3C PUSH8 0x6D02A8E29E035F94 PUSH1 0xC0 SHL PUSH2 0x1E4A JUMP JUMPDEST PUSH2 0x1B50 PUSH8 0xFA91D1699799C0DC PUSH1 0xC0 SHL PUSH2 0x1E4A JUMP JUMPDEST PUSH1 0x0 PUSH1 0x2 PUSH1 0x0 DUP4 DUP2 MSTORE PUSH1 0x20 ADD SWAP1 DUP2 MSTORE PUSH1 0x20 ADD PUSH1 0x0 KECCAK256 PUSH1 0x0 SWAP1 SLOAD SWAP1 PUSH2 0x100 EXP SWAP1 DIV PUSH20 0xFFFFFFFFFFFFFFFFFFFFFFFFFFFFFFFFFFFFFFFF AND SWAP1 POP PUSH2 0x1B9C PUSH8 0xE08E5B071C33CA68 PUSH1 0xC0 SHL PUSH2 0x1E4A JUMP JUMPDEST PUSH2 0x1BB0 PUSH8 0x7FAE012AA989A30B PUSH1 0xC0 SHL PUSH2 0x1E4A JUMP JUMPDEST PUSH2 0x1BF8 PUSH1 0x1 PUSH1 0x0 DUP4 PUSH20 0xFFFFFFFFFFFFFFFFFFFFFFFFFFFFFFFFFFFFFFFF AND PUSH20 0xFFFFFFFFFFFFFFFFFFFFFFFFFFFFFFFFFFFFFFFF AND DUP2 MSTORE PUSH1 0x20 ADD SWAP1 DUP2 MSTORE PUSH1 0x20 ADD PUSH1 0x0 KECCAK256 DUP4 PUSH2 0x1E50 JUMP JUMPDEST PUSH2 0x1C0C PUSH8 0x44BEC608331D5729 PUSH1 0xC0 SHL PUSH2 0x1E4A JUMP JUMPDEST PUSH2 0x1C20 PUSH8 0x4DA98387350F4746 PUSH1 0xC0 SHL PUSH2 0x1E4A JUMP JUMPDEST PUSH1 0x0 PUSH1 0x1 PUSH1 0x0 DUP4 PUSH20 0xFFFFFFFFFFFFFFFFFFFFFFFFFFFFFFFFFFFFFFFF AND PUSH20 0xFFFFFFFFFFFFFFFFFFFFFFFFFFFFFFFFFFFFFFFF AND DUP2 MSTORE PUSH1 0x20 ADD SWAP1 DUP2 MSTORE PUSH1 0x20 ADD PUSH1 0x0 KECCAK256 DUP1 SLOAD SWAP1 POP EQ ISZERO PUSH2 0x1CB5 JUMPI PUSH2 0x1C7F PUSH8 0xED50029C7481FDEA PUSH1 0xC0 SHL PUSH2 0x1E4A JUMP JUMPDEST PUSH2 0x1C93 PUSH8 0x9AD5F6B9C611BBAC PUSH1 0xC0 SHL PUSH2 0x1E4A JUMP JUMPDEST PUSH2 0x1CA7 PUSH8 0x3989D42118390F41 PUSH1 0xC0 SHL PUSH2 0x1E4A JUMP JUMPDEST PUSH2 0x1CB0 DUP2 PUSH2 0x1ED1 JUMP JUMPDEST PUSH2 0x1CCA JUMP JUMPDEST PUSH2 0x1CC9 PUSH8 0xC31D81FBE05A8043 PUSH1 0xC0 SHL PUSH2 0x1E4A JUMP JUMPDEST JUMPDEST PUSH2 0x1CDE PUSH8 0xB6324CDC1170667D PUSH1 0xC0 SHL PUSH2 0x1E4A JUMP JUMPDEST PUSH1 0x0 PUSH1 0x2 PUSH1 0x0 DUP5 DUP2 MSTORE PUSH1 0x20 ADD SWAP1 DUP2 MSTORE PUSH1 0x20 ADD PUSH1 0x0 KECCAK256 PUSH1 0x0 PUSH2 0x100 EXP DUP2 SLOAD DUP2 PUSH20 0xFFFFFFFFFFFFFFFFFFFFFFFFFFFFFFFFFFFFFFFF MUL NOT AND SWAP1 DUP4 PUSH20 0xFFFFFFFFFFFFFFFFFFFFFFFFFFFFFFFFFFFFFFFF AND MUL OR SWAP1 SSTORE POP PUSH2 0x1D45 PUSH8 0x382F189193ACD1D5 PUSH1 0xC0 SHL PUSH2 0x1E4A JUMP JUMPDEST PUSH2 0x1D59 PUSH8 0x46BE9242211C3D0E PUSH1 0xC0 SHL PUSH2 0x1E4A JUMP JUMPDEST PUSH32 0xA3BE76334976C368B4726800022E50475912FA6A8DC117941A00E82E1FC50F25 DUP3 DUP3 CALLER PUSH1 0x40 MLOAD PUSH2 0x1D8C SWAP4 SWAP3 SWAP2 SWAP1 PUSH2 0x2B47 JUMP JUMPDEST PUSH1 0x40 MLOAD DUP1 SWAP2 SUB SWAP1 LOG1 POP POP DUP1 DUP1 PUSH2 0x1DA1 SWAP1 PUSH2 0x2A52 JUMP JUMPDEST SWAP2 POP POP PUSH2 0x1938 JUMP JUMPDEST POP POP POP JUMP JUMPDEST PUSH2 0x1E46 DUP3 DUP3 PUSH1 0x40 MLOAD PUSH1 0x24 ADD PUSH2 0x1DC4 SWAP3 SWAP2 SWAP1 PUSH2 0x2FE0 JUMP JUMPDEST PUSH1 0x40 MLOAD PUSH1 0x20 DUP2 DUP4 SUB SUB DUP2 MSTORE SWAP1 PUSH1 0x40 MSTORE PUSH32 0x319AF33300000000000000000000000000000000000000000000000000000000 PUSH28 0xFFFFFFFFFFFFFFFFFFFFFFFFFFFFFFFFFFFFFFFFFFFFFFFFFFFFFFFF NOT AND PUSH1 0x20 DUP3 ADD DUP1 MLOAD PUSH28 0xFFFFFFFFFFFFFFFFFFFFFFFFFFFFFFFFFFFFFFFFFFFFFFFFFFFFFFFF DUP4 DUP2 DUP4 AND OR DUP4 MSTORE POP POP POP POP PUSH2 0x1F4F JUMP JUMPDEST POP POP JUMP JUMPDEST POP JUMP JUMPDEST POP JUMP JUMPDEST PUSH2 0x1E64 PUSH8 0x499BB9FFAAE84D95 PUSH1 0xC0 SHL PUSH2 0x1E4A JUMP JUMPDEST PUSH2 0x1E78 PUSH8 0xE123DC2F20358CEA PUSH1 0xC0 SHL PUSH2 0x1E4A JUMP JUMPDEST PUSH2 0x1E8C PUSH8 0x50CD023CCFF87E21 PUSH1 0xC0 SHL PUSH2 0x1E4A JUMP JUMPDEST PUSH1 0x0 PUSH2 0x1E98 DUP4 DUP4 PUSH2 0x1F78 JUMP JUMPDEST SWAP1 POP PUSH2 0x1EAE PUSH8 0xE7AADF62F954B100 PUSH1 0xC0 SHL PUSH2 0x1E4A JUMP JUMPDEST PUSH2 0x1EC2 PUSH8 0x8482B32130098002 PUSH1 0xC0 SHL PUSH2 0x1E4A JUMP JUMPDEST PUSH2 0x1ECC DUP4 DUP3 PUSH2 0x20F3 JUMP JUMPDEST POP POP POP JUMP JUMPDEST PUSH2 0x1EE5 PUSH8 0x29C1CB78719D3315 PUSH1 0xC0 SHL PUSH2 0x1E4A JUMP JUMPDEST PUSH2 0x1EF9 PUSH8 0xA15C41C0BB9B47D7 PUSH1 0xC0 SHL PUSH2 0x1E4A JUMP JUMPDEST PUSH2 0x1F0D PUSH8 0xD172DC1E91CA12FF PUSH1 0xC0 SHL PUSH2 0x1E4A JUMP JUMPDEST PUSH1 0x0 PUSH2 0x1F18 DUP3 PUSH2 0x228E JUMP JUMPDEST SWAP1 POP PUSH2 0x1F2E PUSH8 0xED3971981253E80E PUSH1 0xC0 SHL PUSH2 0x1E4A JUMP JUMPDEST PUSH2 0x1F42 PUSH8 0xE7D15BD37E6E96AF PUSH1 0xC0 SHL PUSH2 0x1E4A JUMP JUMPDEST PUSH2 0x1F4B DUP2 PUSH2 0x2456 JUMP JUMPDEST POP POP JUMP JUMPDEST PUSH1 0x0 DUP2 MLOAD SWAP1 POP PUSH1 0x0 PUSH11 0x636F6E736F6C652E6C6F67 SWAP1 POP PUSH1 0x20 DUP4 ADD PUSH1 0x0 DUP1 DUP5 DUP4 DUP6 GAS STATICCALL POP POP POP POP POP JUMP JUMPDEST PUSH1 0x0 PUSH2 0x1F8E PUSH8 0xBFB8C58298D0644D PUSH1 0xC0 SHL PUSH2 0x1E4A JUMP JUMPDEST PUSH2 0x1FA2 PUSH8 0x113A266CFDB3A071 PUSH1 0xC0 SHL PUSH2 0x1E4A JUMP JUMPDEST PUSH2 0x1FB6 PUSH8 0x6BFB4C9DD4676A56 PUSH1 0xC0 SHL PUSH2 0x1E4A JUMP JUMPDEST PUSH1 0x0 JUMPDEST PUSH1 0x1 DUP5 DUP1 SLOAD SWAP1 POP PUSH2 0x1FCA SWAP2 SWAP1 PUSH2 0x2A1E JUMP JUMPDEST DUP2 GT PUSH2 0x2089 JUMPI PUSH2 0x1FE4 PUSH8 0x91346372C69B404A PUSH1 0xC0 SHL PUSH2 0x1E4A JUMP JUMPDEST PUSH2 0x1FF8 PUSH8 0x921B6C37FA79CC7A PUSH1 0xC0 SHL PUSH2 0x1E4A JUMP JUMPDEST DUP3 DUP5 DUP3 DUP2 SLOAD DUP2 LT PUSH2 0x200C JUMPI PUSH2 0x200B PUSH2 0x2A9B JUMP JUMPDEST JUMPDEST SWAP1 PUSH1 0x0 MSTORE PUSH1 0x20 PUSH1 0x0 KECCAK256 ADD SLOAD EQ ISZERO PUSH2 0x2062 JUMPI PUSH2 0x2031 PUSH8 0x6ED817CCAA72B806 PUSH1 0xC0 SHL PUSH2 0x1E4A JUMP JUMPDEST PUSH2 0x2045 PUSH8 0x3D73D7C1F446AAD2 PUSH1 0xC0 SHL PUSH2 0x1E4A JUMP JUMPDEST PUSH2 0x2059 PUSH8 0xCB7470977E159DBE PUSH1 0xC0 SHL PUSH2 0x1E4A JUMP JUMPDEST DUP1 SWAP2 POP POP PUSH2 0x20ED JUMP JUMPDEST PUSH2 0x2076 PUSH8 0x93201A8F80CE5A0A PUSH1 0xC0 SHL PUSH2 0x1E4A JUMP JUMPDEST DUP1 DUP1 PUSH2 0x2081 SWAP1 PUSH2 0x2A52 JUMP JUMPDEST SWAP2 POP POP PUSH2 0x1FB9 JUMP JUMPDEST POP PUSH2 0x209E PUSH8 0xC7AAC0ECDBBD152 PUSH1 0xC0 SHL PUSH2 0x1E4A JUMP JUMPDEST PUSH2 0x20B2 PUSH8 0x92F1B569184CF73E PUSH1 0xC0 SHL PUSH2 0x1E4A JUMP JUMPDEST PUSH1 0x40 MLOAD PUSH32 0x8C379A000000000000000000000000000000000000000000000000000000000 DUP2 MSTORE PUSH1 0x4 ADD PUSH2 0x20E4 SWAP1 PUSH2 0x3082 JUMP JUMPDEST PUSH1 0x40 MLOAD DUP1 SWAP2 SUB SWAP1 REVERT JUMPDEST SWAP3 SWAP2 POP POP JUMP JUMPDEST PUSH2 0x2107 PUSH8 0x9AC8DBE8D71C91EF PUSH1 0xC0 SHL PUSH2 0x1E4A JUMP JUMPDEST PUSH2 0x211B PUSH8 0x62862A731F8E6EC5 PUSH1 0xC0 SHL PUSH2 0x1E4A JUMP JUMPDEST PUSH2 0x212F PUSH8 0x8EAC1FFEF1C865EA PUSH1 0xC0 SHL PUSH2 0x1E4A JUMP JUMPDEST PUSH1 0x0 DUP3 DUP1 SLOAD SWAP1 POP EQ DUP1 ISZERO PUSH2 0x2153 JUMPI POP PUSH2 0x2152 PUSH8 0xA53248240483F816 PUSH1 0xC0 SHL PUSH2 0x259C JUMP JUMPDEST JUMPDEST DUP1 PUSH2 0x217E JUMPI POP DUP2 DUP1 SLOAD SWAP1 POP DUP2 LT ISZERO DUP1 ISZERO PUSH2 0x217D JUMPI POP PUSH2 0x217C PUSH8 0x35BEC3025870C5D2 PUSH1 0xC0 SHL PUSH2 0x259C JUMP JUMPDEST JUMPDEST JUMPDEST ISZERO PUSH2 0x21C4 JUMPI PUSH2 0x2197 PUSH8 0x49DD58DC116824E3 PUSH1 0xC0 SHL PUSH2 0x1E4A JUMP JUMPDEST PUSH2 0x21AB PUSH8 0x241AC41168CA93D5 PUSH1 0xC0 SHL PUSH2 0x1E4A JUMP JUMPDEST PUSH2 0x21BF PUSH8 0x908607946A8B4C8F PUSH1 0xC0 SHL PUSH2 0x1E4A JUMP JUMPDEST PUSH1 0x0 DUP1 REVERT JUMPDEST PUSH2 0x21D8 PUSH8 0x83C9954A4080B444 PUSH1 0xC0 SHL PUSH2 0x1E4A JUMP JUMPDEST PUSH2 0x21EC PUSH8 0xB2A6E24DD27C4174 PUSH1 0xC0 SHL PUSH2 0x1E4A JUMP JUMPDEST DUP2 PUSH1 0x1 DUP4 DUP1 SLOAD SWAP1 POP PUSH2 0x21FE SWAP2 SWAP1 PUSH2 0x2A1E JUMP JUMPDEST DUP2 SLOAD DUP2 LT PUSH2 0x220F JUMPI PUSH2 0x220E PUSH2 0x2A9B JUMP JUMPDEST JUMPDEST SWAP1 PUSH1 0x0 MSTORE PUSH1 0x20 PUSH1 0x0 KECCAK256 ADD SLOAD DUP3 DUP3 DUP2 SLOAD DUP2 LT PUSH2 0x222D JUMPI PUSH2 0x222C PUSH2 0x2A9B JUMP JUMPDEST JUMPDEST SWAP1 PUSH1 0x0 MSTORE PUSH1 0x20 PUSH1 0x0 KECCAK256 ADD DUP2 SWAP1 SSTORE POP PUSH2 0x224F PUSH8 0x430017887DC2B418 PUSH1 0xC0 SHL PUSH2 0x1E4A JUMP JUMPDEST PUSH2 0x2263 PUSH8 0xDEDA8AEF8764A129 PUSH1 0xC0 SHL PUSH2 0x1E4A JUMP JUMPDEST DUP2 DUP1 SLOAD DUP1 PUSH2 0x2274 JUMPI PUSH2 0x2273 PUSH2 0x30A2 JUMP JUMPDEST JUMPDEST PUSH1 0x1 SWAP1 SUB DUP2 DUP2 SWAP1 PUSH1 0x0 MSTORE PUSH1 0x20 PUSH1 0x0 KECCAK256 ADD PUSH1 0x0 SWAP1 SSTORE SWAP1 SSTORE POP POP JUMP JUMPDEST PUSH1 0x0 PUSH2 0x22A4 PUSH8 0x30DA624578DD70FB PUSH1 0xC0 SHL PUSH2 0x1E4A JUMP JUMPDEST PUSH2 0x22B8 PUSH8 0xF7C301FF0C3FAAB8 PUSH1 0xC0 SHL PUSH2 0x1E4A JUMP JUMPDEST PUSH2 0x22CC PUSH8 0x9C775C45EB63E2B PUSH1 0xC0 SHL PUSH2 0x1E4A JUMP JUMPDEST PUSH1 0x0 JUMPDEST PUSH1 0x1 PUSH1 0x3 DUP1 SLOAD SWAP1 POP PUSH2 0x22E1 SWAP2 SWAP1 PUSH2 0x2A1E JUMP JUMPDEST DUP2 GT PUSH2 0x23ED JUMPI PUSH2 0x22FB PUSH8 0x552EE50D6453DCF PUSH1 0xC0 SHL PUSH2 0x1E4A JUMP JUMPDEST PUSH2 0x230F PUSH8 0x2F967B6379E01689 PUSH1 0xC0 SHL PUSH2 0x1E4A JUMP JUMPDEST DUP3 PUSH20 0xFFFFFFFFFFFFFFFFFFFFFFFFFFFFFFFFFFFFFFFF AND PUSH1 0x3 DUP3 DUP2 SLOAD DUP2 LT PUSH2 0x233A JUMPI PUSH2 0x2339 PUSH2 0x2A9B JUMP JUMPDEST JUMPDEST SWAP1 PUSH1 0x0 MSTORE PUSH1 0x20 PUSH1 0x0 KECCAK256 ADD PUSH1 0x0 SWAP1 SLOAD SWAP1 PUSH2 0x100 EXP SWAP1 DIV PUSH20 0xFFFFFFFFFFFFFFFFFFFFFFFFFFFFFFFFFFFFFFFF AND PUSH20 0xFFFFFFFFFFFFFFFFFFFFFFFFFFFFFFFFFFFFFFFF AND EQ ISZERO PUSH2 0x23C6 JUMPI PUSH2 0x2395 PUSH8 0xDDF9430CFAB1F57D PUSH1 0xC0 SHL PUSH2 0x1E4A JUMP JUMPDEST PUSH2 0x23A9 PUSH8 0x7D9460F6C9DD018C PUSH1 0xC0 SHL PUSH2 0x1E4A JUMP JUMPDEST PUSH2 0x23BD PUSH8 0x470CF6419EEF98D7 PUSH1 0xC0 SHL PUSH2 0x1E4A JUMP JUMPDEST DUP1 SWAP2 POP POP PUSH2 0x2451 JUMP JUMPDEST PUSH2 0x23DA PUSH8 0xEF01CE1A36A5D476 PUSH1 0xC0 SHL PUSH2 0x1E4A JUMP JUMPDEST DUP1 DUP1 PUSH2 0x23E5 SWAP1 PUSH2 0x2A52 JUMP JUMPDEST SWAP2 POP POP PUSH2 0x22CF JUMP JUMPDEST POP PUSH2 0x2402 PUSH8 0xFD59C8152FC472BA PUSH1 0xC0 SHL PUSH2 0x1E4A JUMP JUMPDEST PUSH2 0x2416 PUSH8 0xFAC5ABCC585C584A PUSH1 0xC0 SHL PUSH2 0x1E4A JUMP JUMPDEST PUSH1 0x40 MLOAD PUSH32 0x8C379A000000000000000000000000000000000000000000000000000000000 DUP2 MSTORE PUSH1 0x4 ADD PUSH2 0x2448 SWAP1 PUSH2 0x3143 JUMP JUMPDEST PUSH1 0x40 MLOAD DUP1 SWAP2 SUB SWAP1 REVERT JUMPDEST SWAP2 SWAP1 POP JUMP JUMPDEST PUSH2 0x246A PUSH8 0x3D4A7529E29448FC PUSH1 0xC0 SHL PUSH2 0x1E4A JUMP JUMPDEST PUSH2 0x247E PUSH8 0x120B99F019A453EC PUSH1 0xC0 SHL PUSH2 0x1E4A JUMP JUMPDEST PUSH1 0x3 PUSH1 0x1 PUSH1 0x3 DUP1 SLOAD SWAP1 POP PUSH2 0x2492 SWAP2 SWAP1 PUSH2 0x2A1E JUMP JUMPDEST DUP2 SLOAD DUP2 LT PUSH2 0x24A3 JUMPI PUSH2 0x24A2 PUSH2 0x2A9B JUMP JUMPDEST JUMPDEST SWAP1 PUSH1 0x0 MSTORE PUSH1 0x20 PUSH1 0x0 KECCAK256 ADD PUSH1 0x0 SWAP1 SLOAD SWAP1 PUSH2 0x100 EXP SWAP1 DIV PUSH20 0xFFFFFFFFFFFFFFFFFFFFFFFFFFFFFFFFFFFFFFFF AND PUSH1 0x3 DUP3 DUP2 SLOAD DUP2 LT PUSH2 0x24E2 JUMPI PUSH2 0x24E1 PUSH2 0x2A9B JUMP JUMPDEST JUMPDEST SWAP1 PUSH1 0x0 MSTORE PUSH1 0x20 PUSH1 0x0 KECCAK256 ADD PUSH1 0x0 PUSH2 0x100 EXP DUP2 SLOAD DUP2 PUSH20 0xFFFFFFFFFFFFFFFFFFFFFFFFFFFFFFFFFFFFFFFF MUL NOT AND SWAP1 DUP4 PUSH20 0xFFFFFFFFFFFFFFFFFFFFFFFFFFFFFFFFFFFFFFFF AND MUL OR SWAP1 SSTORE POP PUSH2 0x253E PUSH8 0x141038852AE6C36E PUSH1 0xC0 SHL PUSH2 0x1E4A JUMP JUMPDEST PUSH2 0x2552 PUSH8 0xA19D6AD0B11C80BA PUSH1 0xC0 SHL PUSH2 0x1E4A JUMP JUMPDEST PUSH1 0x3 DUP1 SLOAD DUP1 PUSH2 0x2564 JUMPI PUSH2 0x2563 PUSH2 0x30A2 JUMP JUMPDEST JUMPDEST PUSH1 0x1 SWAP1 SUB DUP2 DUP2 SWAP1 PUSH1 0x0 MSTORE PUSH1 0x20 PUSH1 0x0 KECCAK256 ADD PUSH1 0x0 PUSH2 0x100 EXP DUP2 SLOAD SWAP1 PUSH20 0xFFFFFFFFFFFFFFFFFFFFFFFFFFFFFFFFFFFFFFFF MUL NOT AND SWAP1 SSTORE SWAP1 SSTORE POP JUMP JUMPDEST PUSH1 0x0 PUSH1 0x1 SWAP1 POP SWAP2 SWAP1 POP JUMP JUMPDEST POP DUP1 SLOAD PUSH1 0x0 DUP3 SSTORE SWAP1 PUSH1 0x0 MSTORE PUSH1 0x20 PUSH1 0x0 KECCAK256 SWAP1 DUP2 ADD SWAP1 PUSH2 0x25C5 SWAP2 SWAP1 PUSH2 0x25E9 JUMP JUMPDEST POP JUMP JUMPDEST POP DUP1 SLOAD PUSH1 0x0 DUP3 SSTORE SWAP1 PUSH1 0x0 MSTORE PUSH1 0x20 PUSH1 0x0 KECCAK256 SWAP1 DUP2 ADD SWAP1 PUSH2 0x25E6 SWAP2 SWAP1 PUSH2 0x25E9 JUMP JUMPDEST POP JUMP JUMPDEST JUMPDEST DUP1 DUP3 GT ISZERO PUSH2 0x2602 JUMPI PUSH1 0x0 DUP2 PUSH1 0x0 SWAP1 SSTORE POP PUSH1 0x1 ADD PUSH2 0x25EA JUMP JUMPDEST POP SWAP1 JUMP JUMPDEST PUSH1 0x0 DUP2 SWAP1 POP SWAP2 SWAP1 POP JUMP JUMPDEST PUSH2 0x2619 DUP2 PUSH2 0x2606 JUMP JUMPDEST DUP3 MSTORE POP POP JUMP JUMPDEST PUSH1 0x0 PUSH1 0x20 DUP3 ADD SWAP1 POP PUSH2 0x2634 PUSH1 0x0 DUP4 ADD DUP5 PUSH2 0x2610 JUMP JUMPDEST SWAP3 SWAP2 POP POP JUMP JUMPDEST PUSH1 0x0 PUSH1 0x40 MLOAD SWAP1 POP SWAP1 JUMP JUMPDEST PUSH1 0x0 DUP1 REVERT JUMPDEST PUSH1 0x0 DUP1 REVERT JUMPDEST PUSH2 0x2657 DUP2 PUSH2 0x2606 JUMP JUMPDEST DUP2 EQ PUSH2 0x2662 JUMPI PUSH1 0x0 DUP1 REVERT JUMPDEST POP JUMP JUMPDEST PUSH1 0x0 DUP2 CALLDATALOAD SWAP1 POP PUSH2 0x2674 DUP2 PUSH2 0x264E JUMP JUMPDEST SWAP3 SWAP2 POP POP JUMP JUMPDEST PUSH1 0x0 DUP1 REVERT JUMPDEST PUSH1 0x0 PUSH1 0x1F NOT PUSH1 0x1F DUP4 ADD AND SWAP1 POP SWAP2 SWAP1 POP JUMP JUMPDEST PUSH32 0x4E487B7100000000000000000000000000000000000000000000000000000000 PUSH1 0x0 MSTORE PUSH1 0x41 PUSH1 0x4 MSTORE PUSH1 0x24 PUSH1 0x0 REVERT JUMPDEST PUSH2 0x26C8 DUP3 PUSH2 0x267F JUMP JUMPDEST DUP2 ADD DUP2 DUP2 LT PUSH8 0xFFFFFFFFFFFFFFFF DUP3 GT OR ISZERO PUSH2 0x26E7 JUMPI PUSH2 0x26E6 PUSH2 0x2690 JUMP JUMPDEST JUMPDEST DUP1 PUSH1 0x40 MSTORE POP POP POP JUMP JUMPDEST PUSH1 0x0 PUSH2 0x26FA PUSH2 0x263A JUMP JUMPDEST SWAP1 POP PUSH2 0x2706 DUP3 DUP3 PUSH2 0x26BF JUMP JUMPDEST SWAP2 SWAP1 POP JUMP JUMPDEST PUSH1 0x0 PUSH8 0xFFFFFFFFFFFFFFFF DUP3 GT ISZERO PUSH2 0x2726 JUMPI PUSH2 0x2725 PUSH2 0x2690 JUMP JUMPDEST JUMPDEST PUSH1 0x20 DUP3 MUL SWAP1 POP PUSH1 0x20 DUP2 ADD SWAP1 POP SWAP2 SWAP1 POP JUMP JUMPDEST PUSH1 0x0 DUP1 REVERT JUMPDEST PUSH1 0x0 PUSH2 0x274F PUSH2 0x274A DUP5 PUSH2 0x270B JUMP JUMPDEST PUSH2 0x26F0 JUMP JUMPDEST SWAP1 POP DUP1 DUP4 DUP3 MSTORE PUSH1 0x20 DUP3 ADD SWAP1 POP PUSH1 0x20 DUP5 MUL DUP4 ADD DUP6 DUP2 GT ISZERO PUSH2 0x2772 JUMPI PUSH2 0x2771 PUSH2 0x2737 JUMP JUMPDEST JUMPDEST DUP4 JUMPDEST DUP2 DUP2 LT ISZERO PUSH2 0x279B JUMPI DUP1 PUSH2 0x2787 DUP9 DUP3 PUSH2 0x2665 JUMP JUMPDEST DUP5 MSTORE PUSH1 0x20 DUP5 ADD SWAP4 POP POP PUSH1 0x20 DUP2 ADD SWAP1 POP PUSH2 0x2774 JUMP JUMPDEST POP POP POP SWAP4 SWAP3 POP POP POP JUMP JUMPDEST PUSH1 0x0 DUP3 PUSH1 0x1F DUP4 ADD SLT PUSH2 0x27BA JUMPI PUSH2 0x27B9 PUSH2 0x267A JUMP JUMPDEST JUMPDEST DUP2 CALLDATALOAD PUSH2 0x27CA DUP5 DUP3 PUSH1 0x20 DUP7 ADD PUSH2 0x273C JUMP JUMPDEST SWAP2 POP POP SWAP3 SWAP2 POP POP JUMP JUMPDEST PUSH1 0x0 DUP1 PUSH1 0x40 DUP4 DUP6 SUB SLT ISZERO PUSH2 0x27EA JUMPI PUSH2 0x27E9 PUSH2 0x2644 JUMP JUMPDEST JUMPDEST PUSH1 0x0 PUSH2 0x27F8 DUP6 DUP3 DUP7 ADD PUSH2 0x2665 JUMP JUMPDEST SWAP3 POP POP PUSH1 0x20 DUP4 ADD CALLDATALOAD PUSH8 0xFFFFFFFFFFFFFFFF DUP2 GT ISZERO PUSH2 0x2819 JUMPI PUSH2 0x2818 PUSH2 0x2649 JUMP JUMPDEST JUMPDEST PUSH2 0x2825 DUP6 DUP3 DUP7 ADD PUSH2 0x27A5 JUMP JUMPDEST SWAP2 POP POP SWAP3 POP SWAP3 SWAP1 POP JUMP JUMPDEST PUSH1 0x0 DUP2 ISZERO ISZERO SWAP1 POP SWAP2 SWAP1 POP JUMP JUMPDEST PUSH2 0x2844 DUP2 PUSH2 0x282F JUMP JUMPDEST DUP3 MSTORE POP POP JUMP JUMPDEST PUSH1 0x0 PUSH1 0x20 DUP3 ADD SWAP1 POP PUSH2 0x285F PUSH1 0x0 DUP4 ADD DUP5 PUSH2 0x283B JUMP JUMPDEST SWAP3 SWAP2 POP POP JUMP JUMPDEST PUSH1 0x0 PUSH20 0xFFFFFFFFFFFFFFFFFFFFFFFFFFFFFFFFFFFFFFFF DUP3 AND SWAP1 POP SWAP2 SWAP1 POP JUMP JUMPDEST PUSH1 0x0 PUSH2 0x2890 DUP3 PUSH2 0x2865 JUMP JUMPDEST SWAP1 POP SWAP2 SWAP1 POP JUMP JUMPDEST PUSH2 0x28A0 DUP2 PUSH2 0x2885 JUMP JUMPDEST DUP3 MSTORE POP POP JUMP JUMPDEST PUSH1 0x0 PUSH1 0x20 DUP3 ADD SWAP1 POP PUSH2 0x28BB PUSH1 0x0 DUP4 ADD DUP5 PUSH2 0x2897 JUMP JUMPDEST SWAP3 SWAP2 POP POP JUMP JUMPDEST PUSH1 0x0 DUP1 REVERT JUMPDEST PUSH1 0x0 DUP1 DUP4 PUSH1 0x1F DUP5 ADD SLT PUSH2 0x28DC JUMPI PUSH2 0x28DB PUSH2 0x267A JUMP JUMPDEST JUMPDEST DUP3 CALLDATALOAD SWAP1 POP PUSH8 0xFFFFFFFFFFFFFFFF DUP2 GT ISZERO PUSH2 0x28F9 JUMPI PUSH2 0x28F8 PUSH2 0x28C1 JUMP JUMPDEST JUMPDEST PUSH1 0x20 DUP4 ADD SWAP2 POP DUP4 PUSH1 0x20 DUP3 MUL DUP4 ADD GT ISZERO PUSH2 0x2915 JUMPI PUSH2 0x2914 PUSH2 0x2737 JUMP JUMPDEST JUMPDEST SWAP3 POP SWAP3 SWAP1 POP JUMP JUMPDEST PUSH1 0x0 DUP1 PUSH1 0x20 DUP4 DUP6 SUB SLT ISZERO PUSH2 0x2933 JUMPI PUSH2 0x2932 PUSH2 0x2644 JUMP JUMPDEST JUMPDEST PUSH1 0x0 DUP4 ADD CALLDATALOAD PUSH8 0xFFFFFFFFFFFFFFFF DUP2 GT ISZERO PUSH2 0x2951 JUMPI PUSH2 0x2950 PUSH2 0x2649 JUMP JUMPDEST JUMPDEST PUSH2 0x295D DUP6 DUP3 DUP7 ADD PUSH2 0x28C6 JUMP JUMPDEST SWAP3 POP SWAP3 POP POP SWAP3 POP SWAP3 SWAP1 POP JUMP JUMPDEST PUSH2 0x2972 DUP2 PUSH2 0x2885 JUMP JUMPDEST DUP2 EQ PUSH2 0x297D JUMPI PUSH1 0x0 DUP1 REVERT JUMPDEST POP JUMP JUMPDEST PUSH1 0x0 DUP2 CALLDATALOAD SWAP1 POP PUSH2 0x298F DUP2 PUSH2 0x2969 JUMP JUMPDEST SWAP3 SWAP2 POP POP JUMP JUMPDEST PUSH1 0x0 PUSH1 0x20 DUP3 DUP5 SUB SLT ISZERO PUSH2 0x29AB JUMPI PUSH2 0x29AA PUSH2 0x2644 JUMP JUMPDEST JUMPDEST PUSH1 0x0 PUSH2 0x29B9 DUP5 DUP3 DUP6 ADD PUSH2 0x2980 JUMP JUMPDEST SWAP2 POP POP SWAP3 SWAP2 POP POP JUMP JUMPDEST PUSH1 0x0 PUSH1 0x20 DUP3 DUP5 SUB SLT ISZERO PUSH2 0x29D8 JUMPI PUSH2 0x29D7 PUSH2 0x2644 JUMP JUMPDEST JUMPDEST PUSH1 0x0 PUSH2 0x29E6 DUP5 DUP3 DUP6 ADD PUSH2 0x2665 JUMP JUMPDEST SWAP2 POP POP SWAP3 SWAP2 POP POP JUMP JUMPDEST PUSH32 0x4E487B7100000000000000000000000000000000000000000000000000000000 PUSH1 0x0 MSTORE PUSH1 0x11 PUSH1 0x4 MSTORE PUSH1 0x24 PUSH1 0x0 REVERT JUMPDEST PUSH1 0x0 PUSH2 0x2A29 DUP3 PUSH2 0x2606 JUMP JUMPDEST SWAP2 POP PUSH2 0x2A34 DUP4 PUSH2 0x2606 JUMP JUMPDEST SWAP3 POP DUP3 DUP3 LT ISZERO PUSH2 0x2A47 JUMPI PUSH2 0x2A46 PUSH2 0x29EF JUMP JUMPDEST JUMPDEST DUP3 DUP3 SUB SWAP1 POP SWAP3 SWAP2 POP POP JUMP JUMPDEST PUSH1 0x0 PUSH2 0x2A5D DUP3 PUSH2 0x2606 JUMP JUMPDEST SWAP2 POP PUSH32 0xFFFFFFFFFFFFFFFFFFFFFFFFFFFFFFFFFFFFFFFFFFFFFFFFFFFFFFFFFFFFFFFF DUP3 EQ ISZERO PUSH2 0x2A90 JUMPI PUSH2 0x2A8F PUSH2 0x29EF JUMP JUMPDEST JUMPDEST PUSH1 0x1 DUP3 ADD SWAP1 POP SWAP2 SWAP1 POP JUMP JUMPDEST PUSH32 0x4E487B7100000000000000000000000000000000000000000000000000000000 PUSH1 0x0 MSTORE PUSH1 0x32 PUSH1 0x4 MSTORE PUSH1 0x24 PUSH1 0x0 REVERT JUMPDEST PUSH1 0x0 DUP3 DUP3 MSTORE PUSH1 0x20 DUP3 ADD SWAP1 POP SWAP3 SWAP2 POP POP JUMP JUMPDEST PUSH32 0x43616C6C6572206973206E6F74206F776E657200000000000000000000000000 PUSH1 0x0 DUP3 ADD MSTORE POP JUMP JUMPDEST PUSH1 0x0 PUSH2 0x2B11 PUSH1 0x13 DUP4 PUSH2 0x2ACA JUMP JUMPDEST SWAP2 POP PUSH2 0x2B1C DUP3 PUSH2 0x2ADB JUMP JUMPDEST PUSH1 0x20 DUP3 ADD SWAP1 POP SWAP2 SWAP1 POP JUMP JUMPDEST PUSH1 0x0 PUSH1 0x20 DUP3 ADD SWAP1 POP DUP2 DUP2 SUB PUSH1 0x0 DUP4 ADD MSTORE PUSH2 0x2B40 DUP2 PUSH2 0x2B04 JUMP JUMPDEST SWAP1 POP SWAP2 SWAP1 POP JUMP JUMPDEST PUSH1 0x0 PUSH1 0x60 DUP3 ADD SWAP1 POP PUSH2 0x2B5C PUSH1 0x0 DUP4 ADD DUP7 PUSH2 0x2610 JUMP JUMPDEST PUSH2 0x2B69 PUSH1 0x20 DUP4 ADD DUP6 PUSH2 0x2897 JUMP JUMPDEST PUSH2 0x2B76 PUSH1 0x40 DUP4 ADD DUP5 PUSH2 0x2897 JUMP JUMPDEST SWAP5 SWAP4 POP POP POP POP JUMP JUMPDEST PUSH32 0x546865206E756D626572206F6620726F6F6D7320796F75206172652074727969 PUSH1 0x0 DUP3 ADD MSTORE PUSH32 0x6E6720746F207265736572766520697320746F6F206269670000000000000000 PUSH1 0x20 DUP3 ADD MSTORE POP JUMP JUMPDEST PUSH1 0x0 PUSH2 0x2BDA PUSH1 0x38 DUP4 PUSH2 0x2ACA JUMP JUMPDEST SWAP2 POP PUSH2 0x2BE5 DUP3 PUSH2 0x2B7E JUMP JUMPDEST PUSH1 0x40 DUP3 ADD SWAP1 POP SWAP2 SWAP1 POP JUMP JUMPDEST PUSH1 0x0 PUSH1 0x20 DUP3 ADD SWAP1 POP DUP2 DUP2 SUB PUSH1 0x0 DUP4 ADD MSTORE PUSH2 0x2C09 DUP2 PUSH2 0x2BCD JUMP JUMPDEST SWAP1 POP SWAP2 SWAP1 POP JUMP JUMPDEST PUSH32 0x54686520726F6F6D206E756D626572206973206F7574206F662072616E676500 PUSH1 0x0 DUP3 ADD MSTORE POP JUMP JUMPDEST PUSH1 0x0 PUSH2 0x2C46 PUSH1 0x1F DUP4 PUSH2 0x2ACA JUMP JUMPDEST SWAP2 POP PUSH2 0x2C51 DUP3 PUSH2 0x2C10 JUMP JUMPDEST PUSH1 0x20 DUP3 ADD SWAP1 POP SWAP2 SWAP1 POP JUMP JUMPDEST PUSH1 0x0 PUSH1 0x20 DUP3 ADD SWAP1 POP DUP2 DUP2 SUB PUSH1 0x0 DUP4 ADD MSTORE PUSH2 0x2C75 DUP2 PUSH2 0x2C39 JUMP JUMPDEST SWAP1 POP SWAP2 SWAP1 POP JUMP JUMPDEST PUSH32 0x596F7572207265736572766174696F6E2063616E6E6F7420626520636F6D706C PUSH1 0x0 DUP3 ADD MSTORE PUSH32 0x657465642C2062656361757365206120726F6F6D20796F752077616E74206973 PUSH1 0x20 DUP3 ADD MSTORE PUSH32 0x20616C7265616479206F63637570696564000000000000000000000000000000 PUSH1 0x40 DUP3 ADD MSTORE POP JUMP JUMPDEST PUSH1 0x0 PUSH2 0x2CFE PUSH1 0x51 DUP4 PUSH2 0x2ACA JUMP JUMPDEST SWAP2 POP PUSH2 0x2D09 DUP3 PUSH2 0x2C7C JUMP JUMPDEST PUSH1 0x60 DUP3 ADD SWAP1 POP SWAP2 SWAP1 POP JUMP JUMPDEST PUSH1 0x0 PUSH1 0x20 DUP3 ADD SWAP1 POP DUP2 DUP2 SUB PUSH1 0x0 DUP4 ADD MSTORE PUSH2 0x2D2D DUP2 PUSH2 0x2CF1 JUMP JUMPDEST SWAP1 POP SWAP2 SWAP1 POP JUMP JUMPDEST PUSH1 0x0 PUSH1 0x40 DUP3 ADD SWAP1 POP PUSH2 0x2D49 PUSH1 0x0 DUP4 ADD DUP6 PUSH2 0x2610 JUMP JUMPDEST PUSH2 0x2D56 PUSH1 0x20 DUP4 ADD DUP5 PUSH2 0x2897 JUMP JUMPDEST SWAP4 SWAP3 POP POP POP JUMP JUMPDEST PUSH32 0x546865206E756D626572206F6620726F6F6D7320796F75206172652074727969 PUSH1 0x0 DUP3 ADD MSTORE PUSH32 0x6E6720746F206672656520697320746F6F206269670000000000000000000000 PUSH1 0x20 DUP3 ADD MSTORE POP JUMP JUMPDEST PUSH1 0x0 PUSH2 0x2DB9 PUSH1 0x35 DUP4 PUSH2 0x2ACA JUMP JUMPDEST SWAP2 POP PUSH2 0x2DC4 DUP3 PUSH2 0x2D5D JUMP JUMPDEST PUSH1 0x40 DUP3 ADD SWAP1 POP SWAP2 SWAP1 POP JUMP JUMPDEST PUSH1 0x0 PUSH1 0x20 DUP3 ADD SWAP1 POP DUP2 DUP2 SUB PUSH1 0x0 DUP4 ADD MSTORE PUSH2 0x2DE8 DUP2 PUSH2 0x2DAC JUMP JUMPDEST SWAP1 POP SWAP2 SWAP1 POP JUMP JUMPDEST PUSH32 0x596F7520617265206E6F7420616C6C6F77656420746F2066726565206120726F PUSH1 0x0 DUP3 ADD MSTORE PUSH32 0x6F6D20796F7520646F6E2774206F636375707900000000000000000000000000 PUSH1 0x20 DUP3 ADD MSTORE POP JUMP JUMPDEST PUSH1 0x0 PUSH2 0x2E4B PUSH1 0x33 DUP4 PUSH2 0x2ACA JUMP JUMPDEST SWAP2 POP PUSH2 0x2E56 DUP3 PUSH2 0x2DEF JUMP JUMPDEST PUSH1 0x40 DUP3 ADD SWAP1 POP SWAP2 SWAP1 POP JUMP JUMPDEST PUSH1 0x0 PUSH1 0x20 DUP3 ADD SWAP1 POP DUP2 DUP2 SUB PUSH1 0x0 DUP4 ADD MSTORE PUSH2 0x2E7A DUP2 PUSH2 0x2E3E JUMP JUMPDEST SWAP1 POP SWAP2 SWAP1 POP JUMP JUMPDEST PUSH1 0x0 PUSH2 0x2E8C DUP3 PUSH2 0x2606 JUMP JUMPDEST SWAP2 POP PUSH2 0x2E97 DUP4 PUSH2 0x2606 JUMP JUMPDEST SWAP3 POP DUP3 PUSH32 0xFFFFFFFFFFFFFFFFFFFFFFFFFFFFFFFFFFFFFFFFFFFFFFFFFFFFFFFFFFFFFFFF SUB DUP3 GT ISZERO PUSH2 0x2ECC JUMPI PUSH2 0x2ECB PUSH2 0x29EF JUMP JUMPDEST JUMPDEST DUP3 DUP3 ADD SWAP1 POP SWAP3 SWAP2 POP POP JUMP JUMPDEST PUSH32 0x54686520726F6F6D2063616E6E6F742062652066726565642C20626563617573 PUSH1 0x0 DUP3 ADD MSTORE PUSH32 0x65206974206973206E6F74206F63637570696564000000000000000000000000 PUSH1 0x20 DUP3 ADD MSTORE POP JUMP JUMPDEST PUSH1 0x0 PUSH2 0x2F33 PUSH1 0x34 DUP4 PUSH2 0x2ACA JUMP JUMPDEST SWAP2 POP PUSH2 0x2F3E DUP3 PUSH2 0x2ED7 JUMP JUMPDEST PUSH1 0x40 DUP3 ADD SWAP1 POP SWAP2 SWAP1 POP JUMP JUMPDEST PUSH1 0x0 PUSH1 0x20 DUP3 ADD SWAP1 POP DUP2 DUP2 SUB PUSH1 0x0 DUP4 ADD MSTORE PUSH2 0x2F62 DUP2 PUSH2 0x2F26 JUMP JUMPDEST SWAP1 POP SWAP2 SWAP1 POP JUMP JUMPDEST PUSH1 0x0 DUP2 MLOAD SWAP1 POP SWAP2 SWAP1 POP JUMP JUMPDEST PUSH1 0x0 JUMPDEST DUP4 DUP2 LT ISZERO PUSH2 0x2F92 JUMPI DUP1 DUP3 ADD MLOAD DUP2 DUP5 ADD MSTORE PUSH1 0x20 DUP2 ADD SWAP1 POP PUSH2 0x2F77 JUMP JUMPDEST DUP4 DUP2 GT ISZERO PUSH2 0x2FA1 JUMPI PUSH1 0x0 DUP5 DUP5 ADD MSTORE JUMPDEST POP POP POP POP JUMP JUMPDEST PUSH1 0x0 PUSH2 0x2FB2 DUP3 PUSH2 0x2F69 JUMP JUMPDEST PUSH2 0x2FBC DUP2 DUP6 PUSH2 0x2ACA JUMP JUMPDEST SWAP4 POP PUSH2 0x2FCC DUP2 DUP6 PUSH1 0x20 DUP7 ADD PUSH2 0x2F74 JUMP JUMPDEST PUSH2 0x2FD5 DUP2 PUSH2 0x267F JUMP JUMPDEST DUP5 ADD SWAP2 POP POP SWAP3 SWAP2 POP POP JUMP JUMPDEST PUSH1 0x0 PUSH1 0x40 DUP3 ADD SWAP1 POP DUP2 DUP2 SUB PUSH1 0x0 DUP4 ADD MSTORE PUSH2 0x2FFA DUP2 DUP6 PUSH2 0x2FA7 JUMP JUMPDEST SWAP1 POP PUSH2 0x3009 PUSH1 0x20 DUP4 ADD DUP5 PUSH2 0x2897 JUMP JUMPDEST SWAP4 SWAP3 POP POP POP JUMP JUMPDEST PUSH32 0x546865207375626D69747465642076616C756520636F756C646E277420626520 PUSH1 0x0 DUP3 ADD MSTORE PUSH32 0x666F756E6420696E207468652072657370656374697665206172726179210000 PUSH1 0x20 DUP3 ADD MSTORE POP JUMP JUMPDEST PUSH1 0x0 PUSH2 0x306C PUSH1 0x3E DUP4 PUSH2 0x2ACA JUMP JUMPDEST SWAP2 POP PUSH2 0x3077 DUP3 PUSH2 0x3010 JUMP JUMPDEST PUSH1 0x40 DUP3 ADD SWAP1 POP SWAP2 SWAP1 POP JUMP JUMPDEST PUSH1 0x0 PUSH1 0x20 DUP3 ADD SWAP1 POP DUP2 DUP2 SUB PUSH1 0x0 DUP4 ADD MSTORE PUSH2 0x309B DUP2 PUSH2 0x305F JUMP JUMPDEST SWAP1 POP SWAP2 SWAP1 POP JUMP JUMPDEST PUSH32 0x4E487B7100000000000000000000000000000000000000000000000000000000 PUSH1 0x0 MSTORE PUSH1 0x31 PUSH1 0x4 MSTORE PUSH1 0x24 PUSH1 0x0 REVERT JUMPDEST PUSH32 0x54686520726573706563746976652061646472657373206973206E6F74206120 PUSH1 0x0 DUP3 ADD MSTORE PUSH32 0x636C69656E74206F662074686520486F6E65737420486F74656C210000000000 PUSH1 0x20 DUP3 ADD MSTORE POP JUMP JUMPDEST PUSH1 0x0 PUSH2 0x312D PUSH1 0x3B DUP4 PUSH2 0x2ACA JUMP JUMPDEST SWAP2 POP PUSH2 0x3138 DUP3 PUSH2 0x30D1 JUMP JUMPDEST PUSH1 0x40 DUP3 ADD SWAP1 POP SWAP2 SWAP1 POP JUMP JUMPDEST PUSH1 0x0 PUSH1 0x20 DUP3 ADD SWAP1 POP DUP2 DUP2 SUB PUSH1 0x0 DUP4 ADD MSTORE PUSH2 0x315C DUP2 PUSH2 0x3120 JUMP JUMPDEST SWAP1 POP SWAP2 SWAP1 POP JUMP INVALID LOG2 PUSH5 0x6970667358 0x22 SLT KECCAK256 AND ADDRESS SWAP9 SWAP6 0xE8 0xB0 0xDD PUSH11 0x1D8864BDBB13C75E859D7 PUSH19 0x8CC751F2E5C45BA0C44939564736F6C634300 ADDMOD MULMOD STOP CALLER "},"methodIdentifiers":{"changeOwner(address)":"a6f9dae1","forceFreeAllRooms()":"5b014401","forceFreeRooms(uint256[])":"f68e5f60","freeRooms(uint256[])":"d94955df","getOccupiedRoomsNr()":"18d7b320","getOwner()":"893d20e8","getRoomCount()":"eadddb3c","increaseRoomCountBy(uint256)":"e0e3738c","isUintInList(uint256,uint256[])":"43f96fe0","occupyRooms(uint256[])":"9b4e0ef5"}}}}}