{
  "_format": "hh-sol-artifact-1",
  "contractName": "HonestHotel",
  "sourceName": "contracts/HonestHotel.sol",
  "abi": [
    {
      "inputs": [
        {
          "internalType": "uint256",
          "name": "_roomCount",
          "type": "uint256"
        }
      ],
      "stateMutability": "nonpayable",
      "type": "constructor"
    },
    {
      "anonymous": false,
      "inputs": [
        {
          "indexed": true,
          "internalType": "address",
          "name": "oldOwner",
          "type": "address"
        },
        {
          "indexed": true,
          "internalType": "address",
          "name": "newOwner",
          "type": "address"
        }
      ],
      "name": "OwnerSet",
      "type": "event"
    },
    {
      "anonymous": false,
      "inputs": [
        {
          "indexed": false,
          "internalType": "uint256",
          "name": "roomNr",
          "type": "uint256"
        },
        {
          "indexed": false,
          "internalType": "address",
          "name": "lastTenant",
          "type": "address"
        },
        {
          "indexed": false,
          "internalType": "address",
          "name": "freedBy",
          "type": "address"
        }
      ],
      "name": "RoomFreed",
      "type": "event"
    },
    {
      "anonymous": false,
      "inputs": [
        {
          "indexed": false,
          "internalType": "uint256",
          "name": "roomNr",
          "type": "uint256"
        },
        {
          "indexed": false,
          "internalType": "address",
          "name": "client",
          "type": "address"
        }
      ],
      "name": "RoomOccupied",
      "type": "event"
    },
    {
      "inputs": [
        {
          "internalType": "address",
          "name": "newOwner",
          "type": "address"
        }
      ],
      "name": "changeOwner",
      "outputs": [],
      "stateMutability": "nonpayable",
      "type": "function"
    },
    {
      "inputs": [],
      "name": "forceFreeAllRooms",
      "outputs": [],
      "stateMutability": "nonpayable",
      "type": "function"
    },
    {
      "inputs": [
        {
          "internalType": "uint256[]",
          "name": "roomNumbers",
          "type": "uint256[]"
        }
      ],
      "name": "forceFreeRooms",
      "outputs": [],
      "stateMutability": "nonpayable",
      "type": "function"
    },
    {
      "inputs": [
        {
          "internalType": "uint256[]",
          "name": "roomNumbers",
          "type": "uint256[]"
        }
      ],
      "name": "freeRooms",
      "outputs": [],
      "stateMutability": "nonpayable",
      "type": "function"
    },
    {
      "inputs": [],
      "name": "getOccupiedRoomsNr",
      "outputs": [
        {
          "internalType": "uint256",
          "name": "",
          "type": "uint256"
        }
      ],
      "stateMutability": "view",
      "type": "function"
    },
    {
      "inputs": [],
      "name": "getOwner",
      "outputs": [
        {
          "internalType": "address",
          "name": "",
          "type": "address"
        }
      ],
      "stateMutability": "view",
      "type": "function"
    },
    {
      "inputs": [],
      "name": "getRoomCount",
      "outputs": [
        {
          "internalType": "uint256",
          "name": "",
          "type": "uint256"
        }
      ],
      "stateMutability": "view",
      "type": "function"
    },
    {
      "inputs": [
        {
          "internalType": "uint256",
          "name": "roomsToAdd",
          "type": "uint256"
        }
      ],
      "name": "increaseRoomCountBy",
      "outputs": [],
      "stateMutability": "nonpayable",
      "type": "function"
    },
    {
      "inputs": [
        {
          "internalType": "uint256",
          "name": "searchedNr",
          "type": "uint256"
        },
        {
          "internalType": "uint256[]",
          "name": "nrArray",
          "type": "uint256[]"
        }
      ],
      "name": "isUintInList",
      "outputs": [
        {
          "internalType": "bool",
          "name": "",
          "type": "bool"
        }
      ],
      "stateMutability": "pure",
      "type": "function"
    },
    {
      "inputs": [
        {
          "internalType": "uint256[]",
          "name": "roomNumbers",
          "type": "uint256[]"
        }
      ],
      "name": "occupyRooms",
      "outputs": [],
      "stateMutability": "nonpayable",
      "type": "function"
    }
  ],
  "bytecode": "0x60806040523480156200001157600080fd5b506040516200374d3803806200374d833981810160405281019062000037919062000341565b620000536796d6f6766204b60360c01b6200022c60201b60201c565b6200006f67b002ea01e2288fc860c01b6200022c60201b60201c565b6200008b677ab33a8cb606307660c01b6200022c60201b60201c565b620000d76040518060400160405280601b81526020017f4f776e657220636f6e7472616374206465706c6f7965642062793a0000000000815250336200022f60201b62001ec21760201c565b620000f367282a066949985c9860c01b6200022c60201b60201c565b336000806101000a81548173ffffffffffffffffffffffffffffffffffffffff021916908373ffffffffffffffffffffffffffffffffffffffff1602179055506200014f67cd8342d149db9c5760c01b6200022c60201b60201c565b6200016b675cffb0bb3bf2a53a60c01b6200022c60201b60201c565b60008054906101000a900473ffffffffffffffffffffffffffffffffffffffff1673ffffffffffffffffffffffffffffffffffffffff16600073ffffffffffffffffffffffffffffffffffffffff167f342827c97908e5e2f71151c08502a66d44b6f758e3ac2f1de95f02eb95f0a73560405160405180910390a36200020267a27135d46c88d75f60c01b620002d560201b60201c565b6200021e676cad12ab6ac8580660c01b620002d560201b60201c565b806004819055505062000490565b50565b620002d18282604051602401620002489291906200045c565b6040516020818303038152906040527f319af333000000000000000000000000000000000000000000000000000000007bffffffffffffffffffffffffffffffffffffffffffffffffffffffff19166020820180517bffffffffffffffffffffffffffffffffffffffffffffffffffffffff8381831617835250505050620002d860201b60201c565b5050565b50565b60008151905060006a636f6e736f6c652e6c6f679050602083016000808483855afa5050505050565b600080fd5b6000819050919050565b6200031b8162000306565b81146200032757600080fd5b50565b6000815190506200033b8162000310565b92915050565b6000602082840312156200035a576200035962000301565b5b60006200036a848285016200032a565b91505092915050565b600081519050919050565b600082825260208201905092915050565b60005b83811015620003af57808201518184015260208101905062000392565b83811115620003bf576000848401525b50505050565b6000601f19601f8301169050919050565b6000620003e38262000373565b620003ef81856200037e565b9350620004018185602086016200038f565b6200040c81620003c5565b840191505092915050565b600073ffffffffffffffffffffffffffffffffffffffff82169050919050565b6000620004448262000417565b9050919050565b620004568162000437565b82525050565b60006040820190508181036000830152620004788185620003d6565b90506200048960208301846200044b565b9392505050565b6132ad80620004a06000396000f3fe608060405234801561001057600080fd5b506004361061009e5760003560e01c8063a6f9dae111610066578063a6f9dae114610135578063d94955df14610151578063e0e3738c1461016d578063eadddb3c14610189578063f68e5f60146101a75761009e565b806318d7b320146100a357806343f96fe0146100c15780635b014401146100f1578063893d20e8146100fb5780639b4e0ef514610119575b600080fd5b6100ab6101c3565b6040516100b89190612733565b60405180910390f35b6100db60048036038101906100d691906128e7565b610365565b6040516100e8919061295e565b60405180910390f35b6100f96104a5565b005b610103610988565b60405161011091906129ba565b60405180910390f35b610133600480360381019061012e9190612a30565b6109ec565b005b61014f600480360381019061014a9190612aa9565b610eab565b005b61016b60048036038101906101669190612a30565b6110e6565b005b61018760048036038101906101829190612ad6565b611605565b005b610191611777565b60405161019e9190612733565b60405180910390f35b6101c160048036038101906101bc9190612a30565b6117bd565b005b60006101d96724cb88086cafe94360c01b611f5e565b6101ed67b46d451e17146f2d60c01b611f5e565b61020167f5602eb3e0dbabd160c01b611f5e565b60006102176773f53794fb630d7a60c01b611f5e565b61022b67cce47783ec6cbce660c01b611f5e565b60005b600160045461023d9190612b32565b8111610335576102576747c7b43e98eae89060c01b611f5e565b61026b678aa2bcd54cb96f3d60c01b611f5e565b600073ffffffffffffffffffffffffffffffffffffffff166002600083815260200190815260200160002060009054906101000a900473ffffffffffffffffffffffffffffffffffffffff1673ffffffffffffffffffffffffffffffffffffffff161461030d576102e66752415f04333c54d360c01b611f5e565b6102fa6714adddc6c88609eb60c01b611f5e565b818061030590612b66565b925050610322565b610321674d22fa06af38f52360c01b611f5e565b5b808061032d90612b66565b91505061022e565b5061034a670ac06bbe6826980760c01b611f5e565b61035e677bed1210507323bc60c01b611f5e565b8091505090565b600061037b67b7409d3a077a813960c01b611f5e565b61038f679ba12e610dc0aa2960c01b611f5e565b6103a36708d9d6850799aeae60c01b611f5e565b60005b600183516103b49190612b32565b8111610471576103ce674493f57a13e06eae60c01b611f5e565b6103e26754ae3bf779289c9e60c01b611f5e565b838382815181106103f6576103f5612baf565b5b6020026020010151141561044a57610418672078fe6b712852e160c01b611f5e565b61042c67d2cdd4b87252b3f460c01b611f5e565b61044067292d9ce1ac9508e760c01b611f5e565b600191505061049f565b61045e673417aa66a8c53de960c01b611f5e565b808061046990612b66565b9150506103a6565b506104866727dae45036a6e6eb60c01b611f5e565b61049a67ef8afe7bc8a33a8360c01b611f5e565b600090505b92915050565b6104b967bdd7f2ee5de7738a60c01b611f5e565b6104cd67c8cbac8358fc41e660c01b611f61565b6104e1677298e4fde750db0b60c01b611f61565b6104f567b452cbeb6ab1713160c01b611f61565b610509676b92ded8e461915760c01b611f61565b60008054906101000a900473ffffffffffffffffffffffffffffffffffffffff1673ffffffffffffffffffffffffffffffffffffffff163373ffffffffffffffffffffffffffffffffffffffff1614610597576040517f08c379a000000000000000000000000000000000000000000000000000000000815260040161058e90612c3b565b60405180910390fd5b6105ab67a5a73c2f0610d4d260c01b611f61565b6105bf67922ac618d7aaab8260c01b611f61565b6105d3673177104f1e7330cd60c01b611f5e565b6105e767382f189193acd1d560c01b611f5e565b6105fb6746be9242211c3d0e60c01b611f5e565b61060f67824e2e04d5ca1c6360c01b611f5e565b6000600380549050141561065e57610631671eeb7fe70f29b94b60c01b611f5e565b6106456787fb95f4a2f6669160c01b611f5e565b61065967d86092efc26640e060c01b611f5e565b610986565b61067267ff6b6ae0b01b0f4360c01b611f5e565b6106866769e6d006ff22d98960c01b611f5e565b61069a676086aed0921974dd60c01b611f5e565b60005b60016003805490506106af9190612b32565b8111610765576106c96772f6f4652d91d09f60c01b611f5e565b60016000600383815481106106e1576106e0612baf565b5b9060005260206000200160009054906101000a900473ffffffffffffffffffffffffffffffffffffffff1673ffffffffffffffffffffffffffffffffffffffff1673ffffffffffffffffffffffffffffffffffffffff168152602001908152602001600020600061075291906126bb565b808061075d90612b66565b91505061069d565b5061077a67d96724d22d799ed060c01b611f5e565b6003600061078891906126dc565b61079c67495c596544380af460c01b611f5e565b6107b067d458b9043ca2168860c01b611f5e565b60005b6004548111610984576107d067d7a590a941c0704e60c01b611f5e565b6107e4678b00961562058a9e60c01b611f5e565b60006002600083815260200190815260200160002060009054906101000a900473ffffffffffffffffffffffffffffffffffffffff16905061083067ed6198810f7cf75460c01b611f5e565b6108446713905cd01137130960c01b611f5e565b600073ffffffffffffffffffffffffffffffffffffffff168173ffffffffffffffffffffffffffffffffffffffff161461095b5761088c67085005a789b974e960c01b611f5e565b6108a0670e236f8a20ed3f0960c01b611f5e565b60006002600084815260200190815260200160002060006101000a81548173ffffffffffffffffffffffffffffffffffffffff021916908373ffffffffffffffffffffffffffffffffffffffff1602179055506109076715293a6d12b5de7f60c01b611f5e565b61091b6760d16e9ff56e8ec560c01b611f5e565b7fa3be76334976c368b4726800022e50475912fa6a8dc117941a00e82e1fc50f2582823360405161094e93929190612c5b565b60405180910390a1610970565b61096f6723ac5db09cb0e27060c01b611f5e565b5b50808061097c90612b66565b9150506107b3565b505b565b600061099e67b0e568373fad74d660c01b611f61565b6109b267fb99474c7207f13460c01b611f61565b6109c66712dd4788531a539060c01b611f61565b60008054906101000a900473ffffffffffffffffffffffffffffffffffffffff16905090565b610a00677f21bd12eb98f9c560c01b611f5e565b610a14678d0fc171c0f4515160c01b611f5e565b610a2867e64703fba2beaa8560c01b611f5e565b610a3c6710a6b4c0d6c8cefa60c01b611f5e565b600454828290501115610a84576040517f08c379a0000000000000000000000000000000000000000000000000000000008152600401610a7b90612d04565b60405180910390fd5b610a98672752e34f0df375df60c01b611f5e565b610aac671c8ffcf1825a856f60c01b611f5e565b610ac0678b4bce7c177e4eca60c01b611f5e565b60005b600183839050610ad39190612b32565b8111610ea657610aed676205b9b2ed160d6260c01b611f5e565b610b0167e09271d7cbd3dcdb60c01b611f5e565b6000838383818110610b1657610b15612baf565b5b905060200201359050610b3367d045d931595083a060c01b611f5e565b610b4767f6b8ef807bb87bf460c01b611f5e565b610b5b673b2fce12bff4b44560c01b611f5e565b6001600454610b6a9190612b32565b811115610bac576040517f08c379a0000000000000000000000000000000000000000000000000000000008152600401610ba390612d70565b60405180910390fd5b610bc067df4c78bce94abfeb60c01b611f5e565b610bd467a7108e03ffb21a8360c01b611f5e565b610be867fd1e783828a1e16760c01b611f5e565b610bfc67a8324968e76a9c4f60c01b611f5e565b600073ffffffffffffffffffffffffffffffffffffffff166002600083815260200190815260200160002060009054906101000a900473ffffffffffffffffffffffffffffffffffffffff1673ffffffffffffffffffffffffffffffffffffffff1614610c9e576040517f08c379a0000000000000000000000000000000000000000000000000000000008152600401610c9590612e28565b60405180910390fd5b610cb2677bff0d1839c345d960c01b611f5e565b610cc6678a9cea6c3f172a4d60c01b611f5e565b610cda679e0d4784b12444a260c01b611f5e565b6003339080600181540180825580915050600190039060005260206000200160009091909190916101000a81548173ffffffffffffffffffffffffffffffffffffffff021916908373ffffffffffffffffffffffffffffffffffffffff160217905550610d5167f8638fd930b9724760c01b611f5e565b610d6567ad7cbb557a0413c960c01b611f5e565b600160003373ffffffffffffffffffffffffffffffffffffffff1673ffffffffffffffffffffffffffffffffffffffff168152602001908152602001600020819080600181540180825580915050600190039060005260206000200160009091909190915055610ddf67d97d25ab6915a25860c01b611f5e565b336002600083815260200190815260200160002060006101000a81548173ffffffffffffffffffffffffffffffffffffffff021916908373ffffffffffffffffffffffffffffffffffffffff160217905550610e45675b530154c667dde160c01b611f5e565b610e5967f8d3d383af68888a60c01b611f5e565b7f672b59f7ae6f9ce32310639926243c8a7b423f2c4be780b7f555215a737af7768133604051610e8a929190612e48565b60405180910390a1508080610e9e90612b66565b915050610ac3565b505050565b610ebf676139b28d292d672360c01b611f61565b610ed367c8cbac8358fc41e660c01b611f61565b610ee7677298e4fde750db0b60c01b611f61565b610efb67b452cbeb6ab1713160c01b611f61565b610f0f676b92ded8e461915760c01b611f61565b60008054906101000a900473ffffffffffffffffffffffffffffffffffffffff1673ffffffffffffffffffffffffffffffffffffffff163373ffffffffffffffffffffffffffffffffffffffff1614610f9d576040517f08c379a0000000000000000000000000000000000000000000000000000000008152600401610f9490612c3b565b60405180910390fd5b610fb167a5a73c2f0610d4d260c01b611f61565b610fc567922ac618d7aaab8260c01b611f61565b610fd9675f8b028f9edd7db660c01b611f61565b610fed678b11fb289d56593c60c01b611f61565b61100167445f245cb1bca28160c01b611f61565b61101567b7bff48b7c2c06ab60c01b611f61565b8073ffffffffffffffffffffffffffffffffffffffff1660008054906101000a900473ffffffffffffffffffffffffffffffffffffffff1673ffffffffffffffffffffffffffffffffffffffff167f342827c97908e5e2f71151c08502a66d44b6f758e3ac2f1de95f02eb95f0a73560405160405180910390a36110a3676aa84991b9856e9e60c01b611f61565b806000806101000a81548173ffffffffffffffffffffffffffffffffffffffff021916908373ffffffffffffffffffffffffffffffffffffffff16021790555050565b6110fa67ac874eb266406d5060c01b611f5e565b61110e67c7430dfe22612ed860c01b611f5e565b6111226758a2cc956d4188d560c01b611f5e565b611136675dbc90838970267960c01b611f5e565b60045482829050111561117e576040517f08c379a000000000000000000000000000000000000000000000000000000000815260040161117590612ee3565b60405180910390fd5b61119267201dd51417d9a8ee60c01b611f5e565b6111a6679ce1782f2fd6b47c60c01b611f5e565b6111ba670e9c88b0bfe71db260c01b611f5e565b60005b6001838390506111cd9190612b32565b8111611600576111e76725f8f541e4d6d27060c01b611f5e565b6111fb67adc8e639d9b3776660c01b611f5e565b60008383838181106112105761120f612baf565b5b90506020020135905061122d67cd022acc8310768960c01b611f5e565b61124167c47c462227fdd45460c01b611f5e565b61125567b64f1b67871ea33560c01b611f5e565b60016004546112649190612b32565b8111156112a6576040517f08c379a000000000000000000000000000000000000000000000000000000000815260040161129d90612d70565b60405180910390fd5b6112ba67a014a8457c742fe360c01b611f5e565b6112ce67a9c63fd99b7ce43360c01b611f5e565b6112e267f6d998785915d3df60c01b611f5e565b6112f667222927a0445b0a6d60c01b611f5e565b61138d81600160003373ffffffffffffffffffffffffffffffffffffffff1673ffffffffffffffffffffffffffffffffffffffff16815260200190815260200160002080548060200260200160405190810160405280929190818152602001828054801561138357602002820191906000526020600020905b81548152602001906001019080831161136f575b5050505050610365565b6113cc576040517f08c379a00000000000000000000000000000000000000000000000000000000081526004016113c390612f75565b60405180910390fd5b6113e067a68899188c4a2e3860c01b611f5e565b6113f467593887961f737eb960c01b611f5e565b611408670298931136fdde2460c01b611f5e565b611450600160003373ffffffffffffffffffffffffffffffffffffffff1673ffffffffffffffffffffffffffffffffffffffff16815260200190815260200160002082611f64565b61146467b43cf6c237d1232360c01b611f5e565b61147867d999ba80551e01fa60c01b611f5e565b6000600160003373ffffffffffffffffffffffffffffffffffffffff1673ffffffffffffffffffffffffffffffffffffffff16815260200190815260200160002080549050141561150d576114d767a25df037120a8b2d60c01b611f5e565b6114eb670166e7e6921840c260c01b611f5e565b6114ff6793283d8049cf7cca60c01b611f5e565b61150833611fe5565b611522565b611521674d52dca9b48df43560c01b611f5e565b5b6115366744a2ae20acae0a5b60c01b611f5e565b60006002600083815260200190815260200160002060006101000a81548173ffffffffffffffffffffffffffffffffffffffff021916908373ffffffffffffffffffffffffffffffffffffffff16021790555061159d67cc90f1c62c6098ae60c01b611f5e565b6115b167b3d39d4c7dbb669060c01b611f5e565b7fa3be76334976c368b4726800022e50475912fa6a8dc117941a00e82e1fc50f258133336040516115e493929190612c5b565b60405180910390a15080806115f890612b66565b9150506111bd565b505050565b6116196720df01d1cb2bbb8760c01b611f5e565b61162d67c8cbac8358fc41e660c01b611f61565b611641677298e4fde750db0b60c01b611f61565b61165567b452cbeb6ab1713160c01b611f61565b611669676b92ded8e461915760c01b611f61565b60008054906101000a900473ffffffffffffffffffffffffffffffffffffffff1673ffffffffffffffffffffffffffffffffffffffff163373ffffffffffffffffffffffffffffffffffffffff16146116f7576040517f08c379a00000000000000000000000000000000000000000000000000000000081526004016116ee90612c3b565b60405180910390fd5b61170b67a5a73c2f0610d4d260c01b611f61565b61171f67922ac618d7aaab8260c01b611f61565b61173367add8d51958860db760c01b611f5e565b611747671039d637fd936bce60c01b611f5e565b61175b67a3b427cb3584e53860c01b611f5e565b806004600082825461176d9190612f95565b9250508190555050565b600061178d671742b36344e28e7160c01b611f5e565b6117a1674f427722fa72c72b60c01b611f5e565b6117b5678dfca3526f4fdd9d60c01b611f5e565b600454905090565b6117d167d857af5d0665fe8b60c01b611f5e565b6117e567c8cbac8358fc41e660c01b611f61565b6117f9677298e4fde750db0b60c01b611f61565b61180d67b452cbeb6ab1713160c01b611f61565b611821676b92ded8e461915760c01b611f61565b60008054906101000a900473ffffffffffffffffffffffffffffffffffffffff1673ffffffffffffffffffffffffffffffffffffffff163373ffffffffffffffffffffffffffffffffffffffff16146118af576040517f08c379a00000000000000000000000000000000000000000000000000000000081526004016118a690612c3b565b60405180910390fd5b6118c367a5a73c2f0610d4d260c01b611f61565b6118d767922ac618d7aaab8260c01b611f61565b6118eb67a273ab0dff6ce42560c01b611f5e565b6118ff67393c2661c1202dc460c01b611f5e565b61191367044da4f2da19fa3c60c01b611f5e565b611927674479bb0bca16d6b960c01b611f5e565b61193b6742d4bce50d85e3ce60c01b611f5e565b600454828290501115611983576040517f08c379a000000000000000000000000000000000000000000000000000000000815260040161197a90612ee3565b60405180910390fd5b61199767a67d19eac5577dd960c01b611f5e565b6119ab67487b9f6dd542ff8660c01b611f5e565b6119bf6727632c41d1e94b7060c01b611f5e565b60005b6001838390506119d29190612b32565b8111611ebd576119ec676358452cbaf9c33260c01b611f5e565b611a0067e0d39a026699f29460c01b611f5e565b6000838383818110611a1557611a14612baf565b5b905060200201359050611a32671945c86c0900ced960c01b611f5e565b611a466711776dfc22014e8d60c01b611f5e565b611a5a671208368cce6933b960c01b611f5e565b6001600454611a699190612b32565b811115611aab576040517f08c379a0000000000000000000000000000000000000000000000000000000008152600401611aa290612d70565b60405180910390fd5b611abf67f5e1d8b7612c7fde60c01b611f5e565b611ad36712cd701b683b652c60c01b611f5e565b611ae767a27abd6e3cd6662160c01b611f5e565b611afb67ccf2faee914f3ff560c01b611f5e565b600073ffffffffffffffffffffffffffffffffffffffff166002600083815260200190815260200160002060009054906101000a900473ffffffffffffffffffffffffffffffffffffffff1673ffffffffffffffffffffffffffffffffffffffff161415611b9e576040517f08c379a0000000000000000000000000000000000000000000000000000000008152600401611b959061305d565b60405180910390fd5b611bb267c86d343b519419a260c01b611f5e565b611bc667cdb1aa871dc2f26860c01b611f5e565b611bda67233fbafc82ba6e7d60c01b611f5e565b60006002600083815260200190815260200160002060009054906101000a900473ffffffffffffffffffffffffffffffffffffffff169050611c26678be0e07a4a79367e60c01b611f5e565b611c3a67b6e104ea78c55b1260c01b611f5e565b611c82600160008373ffffffffffffffffffffffffffffffffffffffff1673ffffffffffffffffffffffffffffffffffffffff16815260200190815260200160002083611f64565b611c966735e7503a0f5542d860c01b611f5e565b611caa67bc4ed8bef775acac60c01b611f5e565b6000600160008373ffffffffffffffffffffffffffffffffffffffff1673ffffffffffffffffffffffffffffffffffffffff168152602001908152602001600020805490501415611d3f57611d0967b4c63d3d894b073760c01b611f5e565b611d1d67d1c76f9a1854df9660c01b611f5e565b611d31676d02a8e29e035f9460c01b611f5e565b611d3a81611fe5565b611d54565b611d5367fa91d1699799c0dc60c01b611f5e565b5b611d6867e08e5b071c33ca6860c01b611f5e565b611d7c677fae012aa989a30b60c01b611f5e565b600073ffffffffffffffffffffffffffffffffffffffff168173ffffffffffffffffffffffffffffffffffffffff1614611e9357611dc46744bec608331d572960c01b611f5e565b611dd8674da98387350f474660c01b611f5e565b60006002600084815260200190815260200160002060006101000a81548173ffffffffffffffffffffffffffffffffffffffff021916908373ffffffffffffffffffffffffffffffffffffffff160217905550611e3f67ed50029c7481fdea60c01b611f5e565b611e53679ad5f6b9c611bbac60c01b611f5e565b7fa3be76334976c368b4726800022e50475912fa6a8dc117941a00e82e1fc50f25828233604051611e8693929190612c5b565b60405180910390a1611ea8565b611ea7673989d42118390f4160c01b611f5e565b5b50508080611eb590612b66565b9150506119c2565b505050565b611f5a8282604051602401611ed89291906130f4565b6040516020818303038152906040527f319af333000000000000000000000000000000000000000000000000000000007bffffffffffffffffffffffffffffffffffffffffffffffffffffffff19166020820180517bffffffffffffffffffffffffffffffffffffffffffffffffffffffff8381831617835250505050612063565b5050565b50565b50565b611f7867499bb9ffaae84d9560c01b611f5e565b611f8c67e123dc2f20358cea60c01b611f5e565b611fa06750cd023ccff87e2160c01b611f5e565b6000611fac838361208c565b9050611fc267e7aadf62f954b10060c01b611f5e565b611fd6678482b3213009800260c01b611f5e565b611fe08382612207565b505050565b611ff96729c1cb78719d331560c01b611f5e565b61200d67a15c41c0bb9b47d760c01b611f5e565b61202167d172dc1e91ca12ff60c01b611f5e565b600061202c826123a2565b905061204267ed3971981253e80e60c01b611f5e565b61205667e7d15bd37e6e96af60c01b611f5e565b61205f8161256a565b5050565b60008151905060006a636f6e736f6c652e6c6f679050602083016000808483855afa5050505050565b60006120a267bfb8c58298d0644d60c01b611f5e565b6120b667113a266cfdb3a07160c01b611f5e565b6120ca676bfb4c9dd4676a5660c01b611f5e565b60005b600184805490506120de9190612b32565b811161219d576120f86791346372c69b404a60c01b611f5e565b61210c67921b6c37fa79cc7a60c01b611f5e565b828482815481106121205761211f612baf565b5b9060005260206000200154141561217657612145676ed817ccaa72b80660c01b611f5e565b612159673d73d7c1f446aad260c01b611f5e565b61216d67cb7470977e159dbe60c01b611f5e565b80915050612201565b61218a6793201a8f80ce5a0a60c01b611f5e565b808061219590612b66565b9150506120cd565b506121b2670c7aac0ecdbbd15260c01b611f5e565b6121c66792f1b569184cf73e60c01b611f5e565b6040517f08c379a00000000000000000000000000000000000000000000000000000000081526004016121f890613196565b60405180910390fd5b92915050565b61221b679ac8dbe8d71c91ef60c01b611f5e565b61222f6762862a731f8e6ec560c01b611f5e565b612243678eac1ffef1c865ea60c01b611f5e565b60008280549050148015612267575061226667a53248240483f81660c01b6126b0565b5b8061229257508180549050811015801561229157506122906735bec3025870c5d260c01b6126b0565b5b5b156122d8576122ab6749dd58dc116824e360c01b611f5e565b6122bf67241ac41168ca93d560c01b611f5e565b6122d367908607946a8b4c8f60c01b611f5e565b600080fd5b6122ec6783c9954a4080b44460c01b611f5e565b61230067b2a6e24dd27c417460c01b611f5e565b81600183805490506123129190612b32565b8154811061232357612322612baf565b5b906000526020600020015482828154811061234157612340612baf565b5b906000526020600020018190555061236367430017887dc2b41860c01b611f5e565b61237767deda8aef8764a12960c01b611f5e565b81805480612388576123876131b6565b5b600190038181906000526020600020016000905590555050565b60006123b86730da624578dd70fb60c01b611f5e565b6123cc67f7c301ff0c3faab860c01b611f5e565b6123e06709c775c45eb63e2b60c01b611f5e565b60005b60016003805490506123f59190612b32565b81116125015761240f670552ee50d6453dcf60c01b611f5e565b612423672f967b6379e0168960c01b611f5e565b8273ffffffffffffffffffffffffffffffffffffffff166003828154811061244e5761244d612baf565b5b9060005260206000200160009054906101000a900473ffffffffffffffffffffffffffffffffffffffff1673ffffffffffffffffffffffffffffffffffffffff1614156124da576124a967ddf9430cfab1f57d60c01b611f5e565b6124bd677d9460f6c9dd018c60c01b611f5e565b6124d167470cf6419eef98d760c01b611f5e565b80915050612565565b6124ee67ef01ce1a36a5d47660c01b611f5e565b80806124f990612b66565b9150506123e3565b5061251667fd59c8152fc472ba60c01b611f5e565b61252a67fac5abcc585c584a60c01b611f5e565b6040517f08c379a000000000000000000000000000000000000000000000000000000000815260040161255c90613257565b60405180910390fd5b919050565b61257e673d4a7529e29448fc60c01b611f5e565b61259267120b99f019a453ec60c01b611f5e565b600360016003805490506125a69190612b32565b815481106125b7576125b6612baf565b5b9060005260206000200160009054906101000a900473ffffffffffffffffffffffffffffffffffffffff16600382815481106125f6576125f5612baf565b5b9060005260206000200160006101000a81548173ffffffffffffffffffffffffffffffffffffffff021916908373ffffffffffffffffffffffffffffffffffffffff16021790555061265267141038852ae6c36e60c01b611f5e565b61266667a19d6ad0b11c80ba60c01b611f5e565b6003805480612678576126776131b6565b5b6001900381819060005260206000200160006101000a81549073ffffffffffffffffffffffffffffffffffffffff0219169055905550565b600060019050919050565b50805460008255906000526020600020908101906126d991906126fd565b50565b50805460008255906000526020600020908101906126fa91906126fd565b50565b5b808211156127165760008160009055506001016126fe565b5090565b6000819050919050565b61272d8161271a565b82525050565b60006020820190506127486000830184612724565b92915050565b6000604051905090565b600080fd5b600080fd5b61276b8161271a565b811461277657600080fd5b50565b60008135905061278881612762565b92915050565b600080fd5b6000601f19601f8301169050919050565b7f4e487b7100000000000000000000000000000000000000000000000000000000600052604160045260246000fd5b6127dc82612793565b810181811067ffffffffffffffff821117156127fb576127fa6127a4565b5b80604052505050565b600061280e61274e565b905061281a82826127d3565b919050565b600067ffffffffffffffff82111561283a576128396127a4565b5b602082029050602081019050919050565b600080fd5b600061286361285e8461281f565b612804565b905080838252602082019050602084028301858111156128865761288561284b565b5b835b818110156128af578061289b8882612779565b845260208401935050602081019050612888565b5050509392505050565b600082601f8301126128ce576128cd61278e565b5b81356128de848260208601612850565b91505092915050565b600080604083850312156128fe576128fd612758565b5b600061290c85828601612779565b925050602083013567ffffffffffffffff81111561292d5761292c61275d565b5b612939858286016128b9565b9150509250929050565b60008115159050919050565b61295881612943565b82525050565b6000602082019050612973600083018461294f565b92915050565b600073ffffffffffffffffffffffffffffffffffffffff82169050919050565b60006129a482612979565b9050919050565b6129b481612999565b82525050565b60006020820190506129cf60008301846129ab565b92915050565b600080fd5b60008083601f8401126129f0576129ef61278e565b5b8235905067ffffffffffffffff811115612a0d57612a0c6129d5565b5b602083019150836020820283011115612a2957612a2861284b565b5b9250929050565b60008060208385031215612a4757612a46612758565b5b600083013567ffffffffffffffff811115612a6557612a6461275d565b5b612a71858286016129da565b92509250509250929050565b612a8681612999565b8114612a9157600080fd5b50565b600081359050612aa381612a7d565b92915050565b600060208284031215612abf57612abe612758565b5b6000612acd84828501612a94565b91505092915050565b600060208284031215612aec57612aeb612758565b5b6000612afa84828501612779565b91505092915050565b7f4e487b7100000000000000000000000000000000000000000000000000000000600052601160045260246000fd5b6000612b3d8261271a565b9150612b488361271a565b925082821015612b5b57612b5a612b03565b5b828203905092915050565b6000612b718261271a565b91507fffffffffffffffffffffffffffffffffffffffffffffffffffffffffffffffff821415612ba457612ba3612b03565b5b600182019050919050565b7f4e487b7100000000000000000000000000000000000000000000000000000000600052603260045260246000fd5b600082825260208201905092915050565b7f43616c6c6572206973206e6f74206f776e657200000000000000000000000000600082015250565b6000612c25601383612bde565b9150612c3082612bef565b602082019050919050565b60006020820190508181036000830152612c5481612c18565b9050919050565b6000606082019050612c706000830186612724565b612c7d60208301856129ab565b612c8a60408301846129ab565b949350505050565b7f546865206e756d626572206f6620726f6f6d7320796f7520617265207472796960008201527f6e6720746f207265736572766520697320746f6f206269670000000000000000602082015250565b6000612cee603883612bde565b9150612cf982612c92565b604082019050919050565b60006020820190508181036000830152612d1d81612ce1565b9050919050565b7f54686520726f6f6d206e756d626572206973206f7574206f662072616e676500600082015250565b6000612d5a601f83612bde565b9150612d6582612d24565b602082019050919050565b60006020820190508181036000830152612d8981612d4d565b9050919050565b7f596f7572207265736572766174696f6e2063616e6e6f7420626520636f6d706c60008201527f657465642c2062656361757365206120726f6f6d20796f752077616e7420697360208201527f20616c7265616479206f63637570696564000000000000000000000000000000604082015250565b6000612e12605183612bde565b9150612e1d82612d90565b606082019050919050565b60006020820190508181036000830152612e4181612e05565b9050919050565b6000604082019050612e5d6000830185612724565b612e6a60208301846129ab565b9392505050565b7f546865206e756d626572206f6620726f6f6d7320796f7520617265207472796960008201527f6e6720746f206672656520697320746f6f206269670000000000000000000000602082015250565b6000612ecd603583612bde565b9150612ed882612e71565b604082019050919050565b60006020820190508181036000830152612efc81612ec0565b9050919050565b7f596f7520617265206e6f7420616c6c6f77656420746f2066726565206120726f60008201527f6f6d20796f7520646f6e2774206f636375707900000000000000000000000000602082015250565b6000612f5f603383612bde565b9150612f6a82612f03565b604082019050919050565b60006020820190508181036000830152612f8e81612f52565b9050919050565b6000612fa08261271a565b9150612fab8361271a565b9250827fffffffffffffffffffffffffffffffffffffffffffffffffffffffffffffffff03821115612fe057612fdf612b03565b5b828201905092915050565b7f54686520726f6f6d2063616e6e6f742062652066726565642c2062656361757360008201527f65206974206973206e6f74206f63637570696564000000000000000000000000602082015250565b6000613047603483612bde565b915061305282612feb565b604082019050919050565b600060208201905081810360008301526130768161303a565b9050919050565b600081519050919050565b60005b838110156130a657808201518184015260208101905061308b565b838111156130b5576000848401525b50505050565b60006130c68261307d565b6130d08185612bde565b93506130e0818560208601613088565b6130e981612793565b840191505092915050565b6000604082019050818103600083015261310e81856130bb565b905061311d60208301846129ab565b9392505050565b7f546865207375626d69747465642076616c756520636f756c646e27742062652060008201527f666f756e6420696e207468652072657370656374697665206172726179210000602082015250565b6000613180603e83612bde565b915061318b82613124565b604082019050919050565b600060208201905081810360008301526131af81613173565b9050919050565b7f4e487b7100000000000000000000000000000000000000000000000000000000600052603160045260246000fd5b7f54686520726573706563746976652061646472657373206973206e6f7420612060008201527f636c69656e74206f662074686520486f6e65737420486f74656c210000000000602082015250565b6000613241603b83612bde565b915061324c826131e5565b604082019050919050565b6000602082019050818103600083015261327081613234565b905091905056fea2646970667358221220594aba0e9da259b43d0836ae0048b58ad5bb335bc544d4507eb226b337efdddd64736f6c63430008090033",
  "linkReferences": {},
  "deployedLinkReferences": {}
}